:02000002D0002C
:1040000000400D0010620D00000006000D000501CB
:0840100004017E050000000020
:04401800745C0D00C7
:10401C0009480A49884208B505D0094A824202D0AB
:10402C00121A01F0C1FD0748074A0021121A01F0CB
:10403C00C6FD014808BD00BFD0E2032050610D0051
:10404C0068E3032068E30320F0E7032070B500F079
:10405C0079FD074C074BE41AA40800251E46A5421F
:10406C0004D056F8253098470135F8E770BD00BFED
:10407C0048610D000C610D0000F025B808B500F08A
:10408C0053F8BDE8084000F02BBD00F017BB00F062
:10409C001DBB00F01BBB0078B0FA80F040097047E4
:1040AC0001230370704710B5036804469B6898475A
:1040BC00A368013BA3602BB923682046DB68BDE8ED
:1040CC001040184710BD08B501F0EEF84FF416512A
:1040DC00BDE8084001F0DCB830B585B0054600F00D
:1040EC0061F90F4B2A681B788DF8003004463C238D
:1040FC0002A80C4900F082FE039828B14368013BEA
:10410C0043600BB9FFF7CFFF00F04CF9054601F007
:10411C00CBF80A22291B00F079FC05B030BD00BF9A
:10412C0074E30320885C0D0010B5574B9FED577A54
:10413C002DED028B03F11402F3EC017A934237EE6E
:10414C00277AF9D1F1EE047AC7EE276A504B83ED4A
:10415C00007AB0EE087A4F4BF4EEC76AF1EE10FA23
:10416C00C3ED006AB0EE678A40F1828001F09CF8E2
:10417C00494900F0F0FB494B93ED007AF7EE007AD9
:10418C00B4EE677AF1EE10FA0ED1D3ED017AF5EEBA
:10419C00407AF1EE10FA07D14148FFF79DFF01F08C
:1041AC0083F8404900F0D7FB3F4B93ED007AD3EDF9
:1041BC00047A77EEC77AB2EE047AF4EEC77AF1EEAF
:1041CC0010FA07DB3648FFF787FF01F06DF8374927
:1041DC0000F0C1FB344BDFED2D7A03F11402B3EC8C
:1041EC00017A9A4277EE877AF9D187EE887A304B4A
:1041FC00304CC3ED007ADFED307A84ED007AB4EE0A
:10420C00E77AF1EE10FA9FED2D8A0CDBB4EEC87A4A
:10421C00F1EE10FA07D52248FFF75EFF01F044F8E3
:10422C00274900F098FBD4ED007AF4EEC87AF1EE51
:10423C0010FA9FED248A0CDBF4EEC87AF1EE10FA3A
:10424C0007D51748FFF748FF01F02EF81E4900F07C
:10425C0082FBD4ED007AF4EEC87AF1EE10FA07DBAB
:10426C000F48FFF739FF01F01FF8174900F073FBF7
:10427C000720002101F0DCFABDEC028B4FF4FA6050
:10428C00BDE8104000F0DEBBD8E2032000000000C7
:10429C009CE303206CE30320935C0D00D0E203202D
:1042AC007CE30320A05C0D00ECE20320DF5C0D003E
:1042BC0070E3032078E303200000A0420000B44226
:1042CC00025D0D000000C842315D0D0070B50E4B53
:1042DC000E4C0F4E0F4D01221A7000F033F80E49A0
:1042EC00204600F0C4FA20460C4C3246294601F018
:1042FC00FBFA0B49204600F0BAFA32462946204612
:10430C00BDE8704001F0F0BA74E303207CE30320B5
:10431C0068E30320ED470D006E5D0D008CE3032078
:10432C00875D0D0008B5024B1B689B68019308BDA7
:10433C006802030008B5024B1B68DB68019308BDDB
:10434C006802030008B5024B1B681B68019308BD8B
:10435C002C02030008B5024B1B68DB68019308BDF7
:10436C002C02030008B5024B1B681B69019308BDA6
:10437C002C02030008B5024B1B68DB69019308BDD6
:10438C003002030008B5024B1B681B6A019308BD81
:10439C003002030008B5024B1B685B68019308BD33
:1043AC001802030008B5024B1B681B69019308BD7A
:1043BC001802030008B5024B1B685B69019308BD2A
:1043CC001802030008B5024B1B689B68019308BDDB
:1043DC004802030008B5024B1B681B69019308BD1A
:1043EC004802030008B5024B1B685B69019308BDCA
:1043FC004802030008B5024B1B681B6B019308BDF8
:10440C004802030008B5024B1B685B6C019308BDA6
:10441C004802030008B5024B1B685B69019308BD99
:10442C006402030008B5024B1B681B68019308BDAE
:10443C003C02030008B5024B1B68DB68019308BD06
:10444C003C02030008B5024B1B681B69019308BDB5
:10445C003C02030008B5024B1B685B69019308BD65
:10446C003C02030008B5024B1B689B69019308BD15
:10447C003C02030008B5024B1B68DB69019308BDC5
:10448C003C02030008B5024B1B681B6A019308BD74
:10449C003C02030008B5024B1B689B6A019308BDE4
:1044AC003C02030008B5024B1B681B6A019308BD54
:1044BC002802030008B5024B1B685B6A019308BD18
:1044CC002802030008B5024B1B689B6A019308BDC8
:1044DC002802030008B5024B1B68DB6A019308BD78
:1044EC002802030008B5024B1B681B6B019308BD27
:1044FC002802030008B5024B1B685B6B019308BDD7
:10450C002802030008B5024B1B681B6C019308BD05
:10451C002802030008B5024B1B681B68019308BDF9
:10452C004C02030008B5024B1B685B68019308BD85
:10453C004C02030008B5024B1B681B69019308BDB4
:10454C004C02030008B5024B1B685B69019308BD64
:10455C004C02030008B5024B1B689B69019308BD14
:10456C004C02030008B5024B1B68DB69019308BDC4
:10457C004C02030008B5024B1B681B6A019308BD73
:10458C004C02030008B5024B1B685B68019308BD25
:10459C002002030008B5024B1B685B69019308BD40
:1045AC002002030008B5024B1B68DB6C019308BDAD
:1045BC002002030008B5024B1B685B6D019308BD1C
:1045CC002002030008B5034B1B68D3F88830019315
:1045DC0008BD00002002030008B5034B1B68D3F88C
:1045EC009430019308BD00002002030008B5024B73
:1045FC001B685B68019308BD4002030008B5024BC1
:10460C001B689B68019308BD4002030008B5024B70
:10461C001B68DB68019308BD4002030008B5024B20
:10462C001B681B69019308BD4002030008B5024BCF
:10463C001B685B69019308BD4002030008B5024B7F
:10464C001B689B69019308BD4002030008B5024B2F
:10465C001B68DB69019308BD4002030008B5024BDF
:10466C001B681B6A019308BD4002030008B5024B8E
:10467C001B681B6B019308BD4002030008B5024B7D
:10468C001B685B6B019308BD4002030008B5024B2D
:10469C001B685B69019308BD4402030008B5024B1B
:1046AC001B681B6A019308BD4402030008B5024B4A
:1046BC001B68DB6B019308BD4402030008B5024B79
:1046CC001B681B68019308BD1C02030008B5024B54
:1046DC001B685B68019308BD1C02030008B5024B04
:1046EC001B689B68019308BD1C02030008B5024BB4
:1046FC001B68DB6A019308BD1C02030008B5024B62
:10470C001B681B6B019308BD1C02030000221146A1
:10471C004068FFF7A3BF002211464068FFF7AEBF09
:10472C0000224068FFF7A2BF002281F0010140681F
:10473C00FFF78CBF00231A4619464068FFF77EBF6F
:10474C0000231A4619464068FFF770BF0022114635
:10475C004068FFF763BF002211464068FFF74EBF69
:10476C00002202214068FFF751BF00231A4640681F
:10477C00FFF73CBF024B03225A60024A1A60704793
:10478C00A0E303200C5E0D00704710B51021044609
:10479C0001F0AFF8204610BD70B5084B036004461D
:1047AC0000250E4640F80C5FFFF724FE30462671BC
:1047BC00FFF7E0FDA560204670BD00BF405E0D0018
:1047CC000079FFF7DFBD0000044B00204FF6FF72AD
:1047DC00187058809A80FFF7D5BE00BFA8E303205D
:1047EC0010B504460068FFF771FF204610BD10B5E8
:1047FC000446006808B1FFF769FF00232360A3603B
:10480C00636010BD38B504460D4600680131FFF7F2
:10481C0065FF10B184E82100012038BD10B5036894
:10482C00044613B143688B4207D22046FFF7EAFFD8
:10483C0020B1A3680BB922681370012010BD70B5AC
:10484C000E46114604461546FFF7E8FF18B92046F8
:10485C00FFF7CDFF09E02A463146A560206801F03C
:10486C00A3F92268A3680021D154204670BD38B545
:10487C000023044603604360836003730D4639B123
:10488C00084601F0E8F9294602462046FFF7D7FF13
:10489C00204638BD10B5036804469B689847A3684A
:1048AC00013BA3602BB923682046DB68BDE81040B0
:1048BC00184710BD0B68036013B15A6801325A6077
:1048CC00704710B50446006828B14368013B43604B
:1048DC000BB9FFF7DFFF204610BD00000248002394
:1048EC000360FFF78FBD00BFB0E30320F8B50646A9
:1048FC000D468F180024BD420CD0336815F8011BEF
:10490C009B6830469847002801DB0444F3E7002CF1
:10491C0008BF04462046F8BD70B505460C4608464F
:10492C0049B101F098F92B68024621462846DB680C
:10493C00BDE87040184770BD03689B68184738B5D0
:10494C000D210546FFF7F8FF0A2104462846FFF71C
:10495C00F3FF204438BD38B50546FFF7DDFF0446AC
:10496C002846FFF7ECFF204438BD30B58BB00B4622
:10497C0000218DF82410012A98BF0A220DF123047E
:10498C00B3FBF2F505FB123303F0FF03092B94BFC5
:10499C0030333733DBB2214604F801392B46002D76
:1049AC00EED1FFF7B9FF0BB030BD10B42AB90368D4
:1049BC005DF8044B9B68C9B21847D2B25DF8044B42
:1049CC00FFF7D3BFFFF7F1BF2DE9F04107460E46C5
:1049DC0015462AB90368C9B29B68BDE8F04118476F
:1049EC000A2A02D1002901DA04E0D2B2BDE8F04172
:1049FC00FFF7BBBF2D21FFF79FFF2A4604467142EC
:104A0C003846FFF7B2FF2044BDE8F08138B50546C3
:104A1C00FFF7DAFF04462846FFF791FF204438BD24
:104A2C00014B024A1A607047B4E30320BB5E0D00D1
:104A3C00024B1A68024B1A60704700BF00E3032058
:104A4C00B8E303200021FFF7A5BD10B58368044629
:104A5C0013B1032201469847204610BD10B50446F9
:104A6C00FFF7F3FF204610BD13B50B46044603C8F1
:104A7C008DE8030093E8030084E803009DE803003D
:104A8C0083E8030002B010BD0348044A0449002324
:104A9C00836000F029BF00BFBCE3032068E3032060
:104AAC00694A0D0008B50C4B33B100F0FDFB0368EF
:104ABC001B699847002809DC084B63B100F0C2FC65
:104ACC0003681B699847002803DC08BDAFF300801E
:104ADC00F2E7AFF3008008BD00000000000000000A
:104AEC0008B5FFF7DFFFFFF765FC014B186008BD49
:104AFC0034E7032007B5002300931A466FF07701C3
:104B0C00FFF76AFD03B05DF804FB000007B54388AE
:104B1C000A2B08D0502B09D1094B1B683BB103B0B1
:104B2C005DF804EB1847FFF7E5FF06E00023009360
:104B3C001A466FF07701FFF74FFD03B05DF804FBE9
:104B4C00CCE3032010B5FFF725FC044601F040F838
:104B5C00074B13B12046AFF3008000210448FFF748
:104B6C00A5FD00210348BDE81040FFF72BBD00BF99
:104B7C0000000000194B0D0070470020704710B565
:104B8C001021044600F0B5FE204610BD08B508B152
:104B9C00FFF7F5FF08BD0022026010B54FF69C72BE
:104BAC008280B1F9044084808A8002680C680460B9
:104BBC000A6010BD10B504460068FFF787FD20465B
:104BCC0010BD38B5C468F4B12378022B03D104F1BD
:104BDC000C00FFF7EFFF656835B12846FFF735FF8E
:104BEC001021284600F085FEA56835B12846FFF750
:104BFC002CFF1021284600F07CFE20461421BDE835
:104C0C00384000F076BE38BD13B5044691E8050077
:104C1C0000234B600B602060626001A8019300933D
:104C2C00FFF74FFE204602B010BDF7B50C4602ADA3
:104C3C0054F8043B45F8083D06460F4601A82146AA
:104C4C00FFF738FE29463046FFF7DEFF01A8FFF7D5
:104C5C0038FE2046FFF735FE3846082100F049FEA5
:104C6C00304603B0F0BD000038B5002304460360A5
:104C7C0010200D46FFF709FA28B101234360836029
:104C8C00024B0360C5602060204638BD5C5F0D00A0
:104C9C00826810B50AB900F02EFEC368BDE810405A
:104CAC00184708B5006800F11001FFF7F1FF08BDC7
:104CBC00826810B50AB900F01EFEC368BDE810404A
:104CCC00184708B5006800F11001FFF7F1FF08BDA7
:104CDC0038B5002383608B6804460D462BB1022245
:104CEC009847EB68E360AB68A360204638BD0000D2
:104CFC00F0B589B004686846FFF74DFF00238DF8C6
:104D0C0008304FF00202D4E84F3F002B03D1C4E827
:104D1C00412F0029F7D102D08DF8083063E014F14F
:104D2C000C0503D069462846FFF735FFBFF35F8FAC
:104D3C0001236370002004F10803BFF35F8F53E875
:104D4C00006F43E80002002AF9D1BFF35F8F002EF9
:104D5C0049D0FFF727FC20B129463046FFF798FFD2
:104D6C003AE0314602A8FFF7B3FFE068B4F91050FF
:104D7C0008B100F055FF06901020ADF81C50FFF75D
:104D8C0084F90546E8B1002787601820FFF77DF904
:104D9C00044688B10146876002A8FFF765FE049BB4
:104DAC00A268A360059B049206A9E268E36004F183
:104DBC0010000592FFF7EFFE0D4BEB600D4B2C60D6
:104DCC00AB6006A8FFF7F6FE02A8FFF73EFE002236
:104DDC0029460948FFF7EEFB3046FFF736FE102157
:104DEC00304600F086FD6846FFF7E4FE09B0F0BDE2
:104DFC00AF4C0D00254F0D009D540D002DE9F04FCB
:104E0C008BB006460F46904699469DF850A0FFF78A
:104E1C003DFC07AD834630BB4FF62E73059005A9BC
:104E2C002846ADF81830FFF7B6FE1420FFF72DF921
:104E3C00044658B10223037001234370C0F804B038
:104E4C00C0F808B029460C30FFF7A5FE30462146C5
:104E5C0040F8044BFFF708FF2846FFF7ABFE05A808
:104E6C00FFF7A8FE52E000240C2314206C60AC6009
:104E7C000793FFF70AF9014618B1047044704460B7
:104E8C00846004A80391FFF7EFFE224B08930820DF
:104E9C00FFF7FBF8044628B1039B40F8043B04A938
:104EAC00FFF708FD00955FFA8AF34A4641463846FB
:104EBC000994FFF7F3FB20B9039B5B7803F0FF0227
:104ECC0083B1039B059304A906A8FFF7F3FC05A97E
:104EDC003046FFF799FE06A8FFF7F3FC04A8FFF78E
:104EEC00F0FC13E04FF69C7305A903A80592ADF8EE
:104EFC001830FFF7FDFE05A8FFF75CFE05A8099921
:104F0C00FFF793FE06A8FFF7DCFCDAE730460BB0A0
:104F1C00BDE8F08F95500D00022AF8B5044606D076
:104F2C00032A17D0012A22D10B6803601FE0182036
:104F3C000E68FFF7AAF8054650B13146FFF7C8FED8
:104F4C003069B6F9147008B100F06AFE2861AF82BE
:104F5C0025600CE0046854B104F11000FFF72AFE40
:104F6C002046FFF772FD1821204600F0C2FC0020FD
:104F7C00F8BD38B5002383608B6804460D462BB111
:104F8C0002229847EB68E360AB68A360204638BD0B
:104F9C00022A70B5044606D0032A11D0012A18D172
:104FAC000B68036015E014200E68FFF76EF80546D9
:104FBC0020B13146FFF7DDFF337C2B74256008E010
:104FCC00046834B12046FFF740FD1421204600F060
:104FDC0090FC002070BD0000F0B5002387B00C469B
:104FEC00BFF35F8F50E8006F40E80032002AF9D120
:104FFC00BFF35F8F002E3FD01846FFF7D3FA07465A
:10500C0020B121463046FFF753FE2EE0314601A871
:10501C00FFF7AFFF23788DF814301020FFF735F829
:10502C000546D0B187601420FFF72FF8044678B1FD
:10503C008760014601A8FFF717FD039BA268A360D8
:10504C00049B0392E268E3609DF81430049223748D
:10505C000A4BEB600A4B2C60AB6001A8FFF7F5FC28
:10506C00002229460748FFF7A5FA3046FFF7EDFC6A
:10507C001021304600F03DFC07B0F0BDCF4C0D00C8
:10508C009D4F0D009D540D0030B585B004460D4666
:10509C0068461146FFF7C9FD7CB124B228460DB114
:1050AC0000F0BEFD029002A96846ADF80C40FFF777
:1050BC001FFE02A8FFF77EFD1DE000988DF808404A
:1050CC004FF00102D0E84F3FA34203D1C0E8412F7B
:1050DC000029F7D102D08DF808300CE010F10C014A
:1050EC004FF0010318BF0373BFF35F8F043000F858
:1050FC00033CFFF771FF01A8FFF7E3FB05B030BDE0
:10510C00704710B51821044600F0F3FB204610BD83
:10511C00F0B5037D062B8DB00E4600F104074FF061
:10512C00000402D000F1080518E00CAD394605F872
:10513C00304D2F232A460A20FFF76CF9284600F041
:10514C008AFD33680246DB682946304698470FE0F3
:10515C0024B12E213046FFF7EFFB044415F8011D56
:10516C000A223046FFF72EFCBD420444F0D1204603
:10517C000DB0F0BD10B5054B0446112240F8043BB0
:10518C00002100F01CFD204610BD00BF785F0D0013
:10519C000346074A10B543F8042B01F1100251F8ED
:1051AC00044B43F8044B9142F9D10A781A7010BDA4
:1051BC00785F0D0010B59DF8084044EA032343EADC
:1051CC00024242EA016104234160037510BD37B508
:1051DC000D788B784A78C97800912946FFF7EAFF59
:1051EC0003B030BD41747047704708B50021007C96
:1051FC00FFF7B0F930EA200028BF4FF0FF3008BDB0
:10520C0008B50121007CFFF7A5F930EA200028BF82
:10521C004FF0FF3008BD08B5007CFFF793F920EA8A
:10522C00E07008BD08B5007CFFF784F920EAE07057
:10523C0008BD007CFFF79EB910B51421044600F0A0
:10524C0058FB204610BD38B50446007C0D46FFF7D0
:10525C0079F9002801DC607C28B12946207CFFF715
:10526C0081F920EAE07038BD10B504460023636074
:10527C004FF47A73A360054B236001230846217415
:10528C0063741146FFF746F9204610BD8C5F0D0084
:10529C000022007CFFF746B910B514220446002109
:1052AC0000F08DFC204610BD30B50E4D87B001A826
:1052BC00FFF7F2FF296811F0010410D12846FEF720
:1052CC00EAFE60B101AA21460748FFF7CDFF284648
:1052DC00FEF7E6FE054A0649034800F005FB0248C6
:1052EC0007B030BDD0E30320D4E3032068E30320F0
:1052FC00F5510D00002211464068FFF78FB90022CE
:10530C0011464068FFF7AAB9002211464068FFF722
:10531C00B5B900224068FFF7A9B9002281F001015C
:10532C004068FFF793B900231A4619464068FFF707
:10533C0085B900231A4619464068FFF777B9002251
:10534C0011464068FFF75AB9002202214068FFF766
:10535C005DB900231A464068FFF748B938B5084CC8
:10536C0028252A460021204600F029FC4FF0FF3367
:10537C006360044B258004225A60034A1A6038BDCE
:10538C00F0E30320E8E30320BC5F0D007047417499
:10539C00704708B5007CFFF77DF820EAE07008BD87
:1053AC0008B5007CFFF74EF820EAE07008BD08B5A0
:1053BC00007CFFF757F830EA200028BF4FF0FF3091
:1053CC0008BD08B5007CFFF745F830EA200028BF7F
:1053DC004FF0FF3008BD007CFFF74CB810B514211E
:1053EC00044600F086FA204610BD70B5457C044694
:1053FC000E4625B9007CFFF74DF8002805DD314637
:10540C00207CBDE87040FFF715B8284670BD000041
:10541C0010B5044608461146002262604FF47A72B9
:10542C00A260054A22600122207462741A46FEF7BB
:10543C00F9FF204610BD00BFF05F0D00007CFFF7A8
:10544C0021B8000038B50C4D296811F0010411D1B8
:10545C002846FEF720FE68B1084A094B0948214648
:10546C00FFF7D6FF2846FEF71BFE074A07490548FB
:10547C0000F03AFA034838BDB0E40320B4E403204A
:10548C002CE4032018E4032068E3032099530D0057
:10549C0010B5836804460BB900F02DFAC368984721
:1054AC00A3681BB1032221462046984720461021B1
:1054BC00BDE8104000F01DBA7047F8B50646154619
:1054CC000C468F18BC4206D0336814F8011B9B683D
:1054DC0030469847F6E72846F8BD0022007CFEF7D8
:1054EC00E1BF0021007CFEF7E5BF0021007CFEF748
:1054FC00E9BF0021007CFEF7EDBF0021007CFEF728
:10550C00F1BF10B51421044600F0F3F9204610BD8C
:10551C0010B504464FF47A730846A3600021044B7F
:10552C00207461602360FEF7EDFF204610BD00BFC4
:10553C0020600D000021007CFEF7DCBF002211462C
:10554C004068FFF78BB8002211464068FFF796B809
:10555C0000224068FFF78AB8002281F00101406800
:10556C00FFF774B800231A4601214068FFF766B8AC
:10557C0000231A4619464068FFF758B80022114616
:10558C004068FFF74BB8002211464068FFF736B869
:10559C00002202214068FFF739B800231A46406800
:1055AC00FFF724B838B5054688B104684CB1A36838
:1055BC001BB103222146204698471021204600F0BB
:1055CC0098F928461421BDE8384000F092B938BD4E
:1055DC0010B103685B681847704710B50368044640
:1055EC00BBB15868FEF7EEFE78B923685A7C12B945
:1055FC005868FEF7EFFE23685868FEF7F3FE206844
:10560C000023236028B1FFF7CDFF206808B1FFF716
:10561C00C9FF204610BD000038B50C4B0360044692
:10562C00D0F8CC0108B1FEF734FDD4F8C45135B133
:10563C002846FFF7D2FF0421284600F05AF9A0684B
:10564C0008B1FFF7C5FF204638BD00BF48600D000C
:10565C0038B50E4C0E4B23600025022304F5E47084
:10566C006360A560C4F8C451C4F8C851FEF7CAFE03
:10567C00084BC4F8CC5184F8D05123602046064A1C
:10568C000649BDE8384000F02FB900BF38E50320CB
:10569C007C600D0048600D0068E3032025560D006A
:1056AC0000231A464068FEF7A1BF00220221406881
:1056BC00FEF7ACBF002211464068FEF79FBF0022E8
:1056CC0011464068FEF7AABF00231A4619464068E7
:1056DC00FEF7ACBF00231A4619464068FEF7AEBF72
:1056EC00002281F001014068FEF7B0BF0022406843
:1056FC00FEF7BCBF002211464068FEF7BFBF002278
:10570C0011464068FEF7AABF2DE9F043002495B07E
:10571C0016460D460746FFF72DFD214620220CA804
:10572C00009400F04CFA40230C9321466B460CAAD3
:10573C003046FEF7FFFD0446002844D10246012105
:10574C006868FEF76BFF0221804622466868FEF708
:10575C0065FF009E81462146002E34D0002932D1AF
:10576C007368022B02D00A2B09D02AE0B8F1000F83
:10577C0027D0716938460431FFF729FD20E0B9F1D3
:10578C00000F1ED07469112201A800F018FA06232C
:10579C008DF8143001AD04F10803183418685968F9
:1057AC002A4603C20833A3421546F7D101A906A81D
:1057BC0007ADFFF7EDFC0FCD3C1D0FC42B6823701C
:1057CC000121F669C8E70098FEF7ACFD384615B024
:1057DC00BDE8F083024B034A1A6000225A607047FE
:1057EC000CE703207C600D0010B504460F48FEF753
:1057FC00E7FF28B1A4F10B03022B01D8002010BD48
:10580C0000F052F8FFF796FE08B1012CF6D9FFF71D
:10581C0019FEFFF713FE18B1A4F10903012BEDD902
:10582C00232C8CBF0020012010BD00BF14E70320E7
:10583C0038B504460D46FEF78DFDFF2810D006281E
:10584C0004D84D2323FA00F0C30709D42046FFF7F0
:10585C00CBFF28B129462046BDE83840FEF782BD73
:10586C0038BD000070B50C4C0C4E0D4D002120467F
:10587C00FEF792FF20460B4C3246294600F034F8D6
:10588C0001212046FEF788FF324629462046BDE816
:10589C00704000F029B800BF14E7032068E3032030
:1058AC0095470D0024E7032038B50B4D296811F0FE
:1058BC0001040FD12846FEF7EEFB58B121460748EC
:1058CC00FFF726FE2846FEF7EBFB054A0549034881
:1058DC0000F00AF8014838BD38E703203CE7032004
:1058EC0068E30320C5540D000B460146184600F032
:1058FC004DB9FEF7CCBB08B5FEF7F8FE184B1A688D
:10590C00D1075CBF01221A60164B1A68D2075CBF24
:10591C0001221A60144B1A68D0075CBF01221A606E
:10592C00124B1A68D1075CBF01221A60104B1A681F
:10593C00D2075CBF01221A600E4B1A68D0075CBFFD
:10594C0001221A600C4B1A68D1075CBF01221A6045
:10595C000A4B1A68D2075CBF01221A60704700BF5D
:10596C006CE7032068E7032064E7032060E703206B
:10597C005CE7032058E7032054E7032050E703209B
:10598C00244B1A68D0075CBF01221A60224B1A689C
:10599C00D1075CBF01221A60204B1A68D2075CBF8A
:1059AC0001221A601E4B1A68D0075CBF01221A60D4
:1059BC001C4B1A68D1075CBF01221A601A4B1A687B
:1059CC00D2075CBF01221A60184B1A68D0075CBF63
:1059DC0001221A60164B1A68D1075CBF01221A60AB
:1059EC00144B1A68D2075CBF01221A60124B1A685A
:1059FC00D0075CBF01221A60104B1A68D1075CBF3C
:105A0C0001221A600E4B1A68D2075CBF01221A6081
:105A1C00704700BF9CE7032098E7032094E703201E
:105A2C0090E703208CE7032088E7032084E703201A
:105A3C0080E703207CE7032078E7032074E703204A
:105A4C0070E70320244B1A68D0075CBF01221A6050
:105A5C00224B1A68D1075CBF01221A60204B1A68CE
:105A6C00D2075CBF01221A601E4B1A68D0075CBFBC
:105A7C0001221A601C4B1A68D1075CBF01221A6004
:105A8C001A4B1A68D2075CBF01221A60184B1A68AD
:105A9C00D0075CBF01221A60164B1A68D1075CBF95
:105AAC0001221A60144B1A68D2075CBF01221A60DB
:105ABC00124B1A68D0075CBF01221A60104B1A688F
:105ACC00D1075CBF01221A600E4B1A68D2075CBF6B
:105ADC0001221A60704700BFCCE70320C8E70320FF
:105AEC00C4E70320C0E70320BCE70320B8E703208A
:105AFC00B4E70320B0E70320ACE70320A8E70320BA
:105B0C00A4E70320A0E70320184B1A68D1075CBF59
:105B1C0001221A60164B1A68D2075CBF01221A6068
:105B2C00144B1A68D0075CBF01221A60124B1A681A
:105B3C00D1075CBF01221A60104B1A68D2075CBFF8
:105B4C0001221A600E4B1A68D0075CBF01221A6042
:105B5C000C4B1A68D1075CBF01221A600A4B1A68F9
:105B6C00D2075CBF01221A60704700BFECE703202C
:105B7C00E8E70320E4E70320E0E70320DCE7032069
:105B8C00D8E70320D4E70320D0E7032010B5054C59
:105B9C0013462CB10A4601460220AFF3008010BD1B
:105BAC00204610BD0000000010B5431E0A4491426F
:105BBC0004D011F8014B03F8014FF8E710BD024473
:105BCC000346934202D003F8011BFAE7704700002A
:105BDC0038B5124B1C68A36B0546D3B91820FEF7D9
:105BEC006DFD43F20E33A06303804AF6CD33438040
:105BFC0041F2342383804EF26D63C3804DF6EC6327
:105C0C000381052343810B23838101220023C0E9F7
:105C1C000423A36B00221D615A6138BD64E3032089
:105C2C00024B0146186800F003B800BF64E3032080
:105C3C0070B5064608460C4600F00DF8451C294682
:105C4C003046FEF75BFD064618B12A462146FFF7A3
:105C5C00ABFF304670BD034613F8012B002AFBD175
:105C6C00181A0138704700001D400D0059400D00F6
:105C7C0085400D0089400D00000000007477696CB0
:105C8C00696F5F736D73006368696C6420696E2063
:105C9C006361720053656E64696E67206D65737322
:105CAC00616765206265636175736520636172204D
:105CBC007475726E6564206F666620616E64206315
:105CCC0068696C6420697320696E20746865206350
:105CDC006172005468652074656D706572617475CD
:105CEC00726520697320726973696E6720746F6FB7
:105CFC0020666173740053656E64696E67206D6510
:105D0C007373616765206265636175736520746583
:105D1C006D706572617475726520697320746F6F34
:105D2C0020686F740053656E64696E67206D6573CF
:105D3C007361676520626563617573652074656D59
:105D4C007020697320637269746963616C00747785
:105D5C00696C696F5F736D735F637269746963619A
:105D6C006C00596F7572206368696C6420697320CC
:105D7C00696E207468652063617200596F757220BA
:105D8C006368696C6420697320696E20746865208F
:105D9C0063617220616E6420697420697320746F72
:105DAC006F20686F74212043616C6C203931312075
:105DBC006966206E65636573736172792E20506C11
:105DCC00656173652073656E6420726573706F6EA8
:105DDC0073206D657373616765206F6620616E79E2
:105DEC007468696E6720616E6420676F20676574E4
:105DFC00207468656D0000000000000000000000C9
:105E0C0077470D006D470D0063470D0059470D0096
:105E1C004D470D0041470D0035470D002D470D0036
:105E2C0023470D0019470D0015570D000000000009
:105E3C000000000095470D0097470D0062617564E6
:105E4C000053657269616C0053657269616C310055
:105E5C007479706500706172616D00636D640069C6
:105E6C006400686E64007374726D0066696C740013
:105E7C006C766C0061646448616E646C657200726F
:105E8C00656D6F766548616E646C657200656E75E4
:105E9C006D48616E646C657273004A534F4E537457
:105EAC007265616D4C6F6748616E646C6572006100
:105EBC00707000253031307520005D2000256400A5
:105ECC002C200028293A2000205B00636F64652099
:105EDC003D200025690064657461696C73203D2068
:105EEC00000D0A0066006C6E00666E00636F6465E0
:105EFC000064657461696C006E6F6E65007472612C
:105F0C00636500696E666F007761726E0065727210
:105F1C006F720070616E696300616C6C005A0025D1
:105F2C002B3033643A253032750025592D256D2DD3
:105F3C0025645425483A254D3A2553257A0061733A
:105F4C006374696D65000000000000000000000033
:105F5C00854B0D008B4B0D00CF4B0D00994B0D005D
:105F6C00874B0D0000000000000000001D510D00CB
:105F7C000D510D000F510D0000000000000000003D
:105F8C00F5510D0045520D0053520D00F9480D000E
:105F9C0031520D00F7510D000D520D003F520D0006
:105FAC0023520D00F1510D00000000000000000014
:105FBC005F530D0055530D004B530D0001530D0055
:105FCC003F530D0033530D0027530D001F530D008D
:105FDC0015530D000B530D0015570D00000000005C
:105FEC000000000099530D00E9530D00F7530D000C
:105FFC00F9480D00AD530D00CF530D00BB530D00F0
:10600C00E3530D009B530D009F530D000000000047
:10601C0000000000C5540D000F550D00E7540D0095
:10602C00C7540D00EF540D00F7540D00FF540D0034
:10603C0007550D000000000000000000A7550D00E2
:10604C009D550D0093550D0089550D007D550D0086
:10605C0071550D0065550D005D550D0053550D0026
:10606C0049550D0015570D00000000000000000000
:10607C00AD560D00B7560D00C1560D00CB560D0098
:10608C00D5560D00E1560D00ED560D00F9560D00DC
:10609C0001570D000B570D0015570D0000000000A7
:1060AC0000000000000000000000000000000000E4
:1060BC0000000000000000000000000000000000D4
:1060CC0000000000000000000000000000000000C4
:1060DC0000000000000000000000000000000000B4
:1060EC0000000000000000000000000000000000A4
:1060FC000000000000000000000000004300000051
:10610C00D9420D0081470D00D5470D00E9480D001F
:10611C002D4A0D003D4A0D00954A0D0069530D00A6
:10612C005D560D00E1570D0071580D0009590D0019
:10613C008D590D00515A0D00155B0D00000000002B
:04614C00000000004F
:106150000000803F000000000000803F0000803F02
:106160000000803F0000803F0000803F000096421A
:1061700000009642000096420000964200009642BF
:106180004A5F0D0000000000A8600D00C8600D000F
:10619000E8600D00000000000000000000000000AA
:1061A0000000000008610D00000000000000000079
:1061B00000000000000000000000000000000000DF
:1061C00000000000000000000000000000000000CF
:1061D00000000000000000000000000000000000BF
:0861E0000000000004E30320AD
:1061E800FFFFFFFF00000102030405060708090A74
:1061F8000B0C0D0E0F101112131415161718191A6F
:086208001B1C1D1E1F202800B5
:046210007856341276
:04000003D000401CCD
:00000001FF
