:02000004080AE8
:1000000000000A08B4300A080000060006000501D6
:0800100004027E05000000005F
:04001800202B0A0887
:10001C0009480A4908B5884205D0094A824202D0EB
:10002C00121A02F0DDFC0748074A0021121A02F0EE
:10003C00E2FC064808BD00BF0000002024300A087E
:10004C006800002068000020740600207406002060
:10005C0070B500F033FE074B074C1E46E41AA4089B
:10006C000025A54204D056F8253098470135F8E70D
:10007C0070BD00BFE02F0A0814300A0800F014B855
:10008C0008B500F05DF8BDE8084000F0D9BD00F0FF
:10009C004FBB00F055BB0078B0FA80F040097047B8
:1000AC000123037070470000094A002309491360BB
:1000BC005360002241F8223001320A2AFAD1064953
:1000CC00002241F8223001320A2AFAD1704700BFCF
:1000DC00CC000020D80000208400002038B5046833
:1000EC0005467CB16368013B63605BB923682046BD
:1000FC009B689847A368013BA3601BB92368204603
:10010C00DB689847284638BD1FB50A4B02681B7838
:10011C0009498DF8003002A83C2300F03DFF03A8EC
:10012C00FFF7DCFF01F08AF9044900F0D1FB05B0C0
:10013C005DF804FB7C000020342B0A083F2B0A08D6
:10014C002DE9F74F02F088FCAB4CDFF8108304402C
:10015C00002CBEBF04F1FF3464F00104013401F043
:10016C006DF9A64900F0B4FB01F068F90A222146AA
:10017C0000F019FC02F070FC062390FBF3F707FB70
:10018C00130701F05BF99E4900F0A2FB01F056F950
:10019C000A22394600F007FC02F05EFC064601F02C
:1001AC004DF9984900F094FB01F048F9964900F09C
:1001BC00A2FBDFF8AC92D8F80050DFF8A8A2D9F86F
:1001CC0000005AF8251002F02DF98346384602F04B
:1001DC00DFF901464AF82500584602F025F90135A9
:1001EC00092DCABF0023C8F80050C8F80030874951
:1001FC00C9F8000002F0D4FA854D286001F01EF910
:10020C00844900F065FB01F019F90746286801F0F4
:10021C00B9FD0223009302460B46384600F081FCE0
:10022C007D49286802F0A6FB002800F0DD8001F073
:10023C0005F97A4900F05FFB204602F0A9F9DFF8D6
:10024C002882774DD8F800702C4645F827000137E6
:10025C00012FCABF0023C8F80070C8F8003001F0A5
:10026C00EDF8704900F034FB01F0E8F80746286817
:10027C0001F088FD022502460B463846009500F039
:10028C004BFC01F0DBF80746606801F07BFD009544
:10029C0002460B46384600F044FC4FF07E51206875
:1002AC0002F05EFB68B15E4B0021586802F058FB0F
:1002BC0038B15D48FFF728FF01F0C0F85B4900F04A
:1002CC001AFBDFF8A8815A4CD8F80050594F54F853
:1002DC002510386802F0A6F88146512096FBF0F301
:1002EC0000FB1360463002F053F9014644F8250038
:1002FC00484602F099F80135092DCABF0023C8F809
:10030C000050C8F80030386001F098F84A4900F005
:10031C00DFFA01F093F80646206801F033FD022560
:10032C0002460B463046009500F0F6FB01F086F8CD
:10033C000646606A01F026FD009502460B463046E3
:10034C0000F0EFFB2168606A02F06CF82F4902F0B4
:10035C0025FB20B101F072F8384900F0CCFA2B499A
:10036C00386802F01DFA364C206001F067F8354908
:10037C0000F0AEFA01F062F80546206801F002FDCB
:10038C000223009302460B46284600F0CAFB256860
:10039C002D49284602F002FB60B12C49284602F098
:1003AC00E9FA38B12048FFF7AFFE01F047F82849C9
:1003BC0000F0A1FA25682549284602F0EFFA48B169
:1003CC002449284602F0D6FA20B101F037F8224928
:1003DC0000F091FA1F49206802F0E0FA20B101F018
:1003EC002DF81D4900F087FA41F2883003B0BDE8C2
:1003FC00F04F00F0C3BB00BF010000804E2B0A0879
:10040C00562B0A08602B0A086C2B0A0800002041A6
:10041C0074000020742B0A08000040408C2B0A0842
:10042C00CC000020992B0A08AC000020AD2B0A0848
:10043C008400002078000020D42B0A08052C0A0820
:10044C0080000020282C0A080000A0420000B442C2
:10045C003F2C0A080000C8426E2C0A08D400002069
:10046C0000010020D8000020700000206C0000204B
:10047C0070B50E4B0E4C01221A700E4E00F024F883
:10048C000D4D0E49204600F0EAF920460C4C324640
:10049C00294601F0C1F90B49204600F0E0F932463B
:1004AC0029462046BDE8704001F0B6B97C0000201A
:1004BC00AC00002068000020DD070A08C42C0A08E4
:1004CC00BC000020DD2C0A0808B5024B1B681B6819
:1004DC00019308BDB001060808B5024B1B68DB6927
:1004EC00019308BDB401060808B5024B1B685B6894
:1004FC00019308BD9C01060808B5024B1B685B699B
:10050C00019308BD9C01060808B5024B1B681B6BC8
:10051C00019308BDD001060808B5024B1B689B6906
:10052C00019308BDC401060808B5024B1B685B6A41
:10053C00019308BDC401060808B5024B1B689B6AF1
:10054C00019308BDC401060808B5024B1B68DB6AA1
:10055C00019308BDC401060808B5024B1B681B6B50
:10056C00019308BDC401060808B5024B1B685B6B00
:10057C00019308BDC401060808B5024B1B681B6C2F
:10058C00019308BDC401060808B5024B1B681B6823
:10059C00019308BDD801060808B5024B1B681B69FE
:1005AC00019308BDD801060808B5024B1B685B69AE
:1005BC00019308BDD801060808B5024B1B689B695E
:1005CC00019308BDD801060808B5024B1B68DB690E
:1005DC00019308BDD801060808B5024B1B681B6ABD
:1005EC00019308BDD801060808B5024B1B689B6C2B
:1005FC00019308BDC001060808B5024B1B685B6877
:10060C00019308BDA401060808B5024B1B685B6981
:10061C00019308BDA401060808B5024B1B68DB6CEE
:10062C00019308BDA401060808B5024B1B685B6D5D
:10063C00019308BDA401060808B5034B1B68D3F849
:10064C009030019308BD0000A401060808B5034BC7
:10065C001B68D3F89C30019308BD0000A401060868
:10066C0008B5024B1B685B68019308BDC8010608FE
:10067C0008B5024B1B689B68019308BDC8010608AE
:10068C0008B5024B1B68DB68019308BDC80106085E
:10069C0008B5024B1B681B69019308BDC80106080D
:1006AC0008B5024B1B685B69019308BDC8010608BD
:1006BC0008B5024B1B689B69019308BDC80106086D
:1006CC0008B5024B1B68DB69019308BDC80106081D
:1006DC0008B5024B1B681B6A019308BDC8010608CC
:1006EC0008B5024B1B681B6B019308BDC8010608BB
:1006FC0008B5024B1B685B6B019308BDC80106086B
:10070C0008B5024B1B685B69019308BDCC01060858
:10071C0008B5024B1B681B6A019308BDCC01060887
:10072C0008B5024B1B68DB6B019308BDCC010608B6
:10073C0008B5024B1B681B68019308BDA001060895
:10074C0008B5024B1B685B68019308BDA001060845
:10075C0008B5024B1B689B68019308BDA0010608F5
:10076C0008B5024B1B68DB6A019308BDA0010608A3
:10077C0008B5024B1B681B6B019308BDA001060852
:10078C00704710B50446102101F04BF8204610BDFF
:10079C0070B504460E46074B0025036040F80C5F0D
:1007AC00FFF7B2FE30462671FFF796FEA560204695
:1007BC0070BD00BF602D0A084FF6FF72034B00207E
:1007CC00187058809A80FFF717BF00BF04010020F3
:1007DC0010B504460068FFF7B3FF204610BD10B5F6
:1007EC000446006808B1FFF7ABFF00232360A36049
:1007FC00636010BD38B504460D4600680131FFF743
:10080C00A7FF10B184E82100012038BD10B50368A2
:10081C00044613B143688B4207D22046FFF7EAFF28
:10082C0020B1A3680BB922681370012010BD70B5FC
:10083C000E46114604461546FFF7E8FF18B9204648
:10084C00FFF7CDFF09E02A463146A560206802F08B
:10085C00C7F82268A3680021D154204670BD38B572
:10086C000023044603604360836003730D4639B173
:10087C00084602F046F9294602462046FFF7D7FF04
:10088C00204638BDF8B506460D468F180024BD42EB
:10089C000CD0336815F8011B9B683046984700282C
:1008AC0001DB0444F3E7002C08BF04462046F8BDE6
:1008BC0070B505460C46084649B102F022F92B6882
:1008CC00024621462846BDE87040DB68184770BDDB
:1008DC0008B5FFF7EDFF08BD03689B68184738B5EE
:1008EC000D210546FFF7F8FF0A2104462846FFF7BD
:1008FC00F3FF204438BD38B50546FFF7D9FF044651
:10090C002846FFF7ECFF204438BD012A98BF0A2285
:10091C0030B50B468BB000218DF824100DF123045B
:10092C00B3FBF2F505FB1233DBB2092B94BF30336A
:10093C003733DBB2214604F801392B46002DEFD1B9
:10094C00FFF7B6FF0BB030BD10B422B90368C9B2C3
:10095C009B6810BC1847D2B210BCFFF7D6BFFFF78C
:10096C00F3BF2DE9F04107460E4615462AB9BDE8FE
:10097C00F0410368C9B29B6818470A2A02D10029C2
:10098C0001DA04E0D2B2BDE8F041FFF7BEBF2D2181
:10099C00FFF7A2FF2A46044671423846FFF7B5FF1F
:1009AC002044BDE8F08138B50546FFF7DAFF044670
:1009BC002846FFF794FF204438BD00002DE9F8438A
:1009CC0019468046104617461E469DF8205001F0E9
:1009DC00C7FC08B1474912E026F000444FF0FF3243
:1009EC00454B3846214601F0BBFC68B94FF0FF324D
:1009FC00414B3846214601F095FC28B93F49404609
:100A0C00FFF756FFBDE8F8834FF060423C4B384689
:100A1C00314601F09BFC08B13A49F0E74FF06042D7
:100A2C00394B3846314601F073FC0028F4D10022D2
:100A3C0000233846314601F06BFC38B12D2140467D
:100A4C00FFF74AFF06F10046044600E004462F4932
:100A5C004FF0000900205FFA89F39D4206D900226D
:100A6C002B4B01F00DFB09F10109F4E73A46334633
:100A7C0001F02AF80F46064601F0B0FC0A220146A6
:100A8C0081464046FFF741FF04447DB3484601F0E0
:100A9C0057F902460B463046394601F013F8064624
:100AAC000F4640461B49FFF703FF0444184B002236
:100ABC003046394601F0BAF90F46064601F066FC9D
:100ACC000A22014681464046FFF74BFF0444484644
:100ADC0001F046F902460B463046394600F0F2FF6B
:100AEC00013D15F0FF0506460F46DFD12046BDE857
:100AFC00F88300BF682D0A08FFFFEF7F722D0A08EC
:100B0C00FFFFEF416C2D0A08FFFFEFC10000E03F33
:100B1C0000002440702D0A089DF800100091FFF78A
:100B2C004DBF37B59DF8181005460091FFF746FFED
:100B3C0004462846FFF7D3FE204403B030BD002303
:100B4C001A4619464068FFF7ABBD0B68036013B13A
:100B5C005A6801325A607047014A024B1A6070475A
:100B6C00EC2D0A080C010020024B1A68024B1A608B
:100B7C00704700BF00000020100100200021FFF78B
:100B8C0043BD10B58368044613B103220146984750
:100B9C00204610BD10B50446FFF7F3FF204610BDEC
:100BAC0013B50B46044603C88DE8030093E8030015
:100BBC0084E803009DE8030083E8030002B010BD45
:100BCC00034800238360034A034900F025BE00BF9D
:100BDC001401002068000020A10B0A0808B5144B72
:100BEC0033B100F02BFC03681B699847002816DC16
:100BFC00104B33B100F0DCFC03681B6998470028EC
:100C0C0010DC0D4B0BB1AFF300800C4B7BB100F043
:100C1C0051FC03681B699847002806DC08BDAFF33C
:100C2C000080E5E7AFF30080EBE7AFF3008008BD91
:100C3C0000000000000000000000000000000000A8
:100C4C0008B5FFF7CBFFFFF757FC014B186008BD49
:100C5C00B80500200248034A0349121A01F0C0BE2D
:100C6C00004002400440024020300A0807B500232F
:100C7C0000931A466FF07701FFF7E8FC03B05DF8BC
:100C8C0004FB000007B543880A2B08D0502B09D170
:100C9C00094B1B683BB103B05DF804EB1847FFF739
:100CAC00E5FF06E0002300931A466FF07701FFF78B
:100CBC00CDFC03B05DF804FB2401002038B5104CCA
:100CCC00104D2368AB42104B0CBF012200221A704E
:100CDC0002D0FFF7BFFF2560FFF706FC044601F0CA
:100CEC0093FE0A4B13B12046AFF300800021074856
:100CFC00FFF716FDBDE8384000210548FFF79CBC06
:100D0C00004002401E1C279A280100200000000011
:100D1C00910C0A0870470020704710B5044610214A
:100D2C0000F07FFD204610BD08B508B1FFF7F5FFB8
:100D3C0008BD002202604FF69C72828010B5B1F99A
:100D4C00044084808A8002680C6804600A6010BDCC
:100D5C0010B504460068FFF7F3FC204610BD38B50B
:100D6C00C468F4B12378022B03D104F10C00FFF713
:100D7C00EFFF656835B12846FFF703FF10212846C1
:100D8C0000F04FFDA56835B12846FFF7FAFE10219B
:100D9C00284600F046FD2046BDE83840142100F0FE
:100DAC0040BD38BD13B5044691E8050000234B60E7
:100DBC000B602060626001A801930093FFF78EF92D
:100DCC00204602B010BDF7B50C4606460F4654F847
:100DDC00043B02AD45F8083D214601A8FFF7B5FEDE
:100DEC0029463046FFF7DEFF01A8FFF777F92046CA
:100DFC00FFF774F93846082100F013FD304603B0B4
:100E0C00F0BD000038B500230446036010200D46E9
:100E1C00FFF73DF928B1012343608360024BC560A5
:100E2C0003602060204638BD8C2E0A08826810B5FD
:100E3C000AB900F0F8FCC368BDE81040184708B5C3
:100E4C00006800F11001FFF7F1FF08BD826810B5D2
:100E5C000AB900F0E8FCC368BDE81040184708B5B3
:100E6C00006800F11001FFF7F1FF08BD38B5002351
:100E7C0083608B6804460D462BB102229847EB68C1
:100E8C00E360AB68A360204638BD0000F0B589B0C4
:100E9C0004686846FFF74DFF4FF0020200238DF8FF
:100EAC000830D4E84F3F002B03D1C4E8412F002970
:100EBC00F7D102D08DF8083063E014F10C0503D0A3
:100ECC0069462846FFF735FFBFF35F8F0123637038
:100EDC00BFF35F8F04F10803002053E8006F43E871
:100EEC000002002AF9D1BFF35F8F002E49D0FFF723
:100EFC0093FB20B129463046FFF798FF3AE0314684
:100F0C0002A8FFF7B3FFE068B4F9105008B101F084
:100F1C00DDFD06901020ADF81C50FFF7B8F8054623
:100F2C00E8B1002787601820FFF7B1F8044688B1B4
:100F3C000146876002A8FFF733FE049BA268A360FA
:100F4C00059B0492E26806A9E36004F11000059287
:100F5C00FFF7EFFE0D4B2C60EB600D4BAB6006A862
:100F6C00FFF7F6FE02A8FFF70CFE002229460948FF
:100F7C00FFF75AFB3046FFF704FE1021304600F015
:100F8C0050FC6846FFF7E4FE09B0F0BD4B0E0A08B2
:100F9C00C1100A0809160A082DE9F04F8BB0064655
:100FAC000F46904699469DF850A0FFF7A9FB07AD58
:100FBC00834630BB4FF62E73059005A92846ADF835
:100FCC001830FFF7B6FE1420FFF761F8044658B14D
:100FDC000223037001234370C0F804B0C0F808B0BA
:100FEC0029460C30FFF7A5FE3046214640F8044B4D
:100FFC00FFF708FF2846FFF7ABFE05A8FFF7A8FE92
:10100C0052E000240C2314206C60AC600793FFF7B3
:10101C003EF8014618B1047044704460846004A822
:10102C000391FFF7EFFE224B08200893FFF72FF8F0
:10103C00044628B1039B04A940F8043BFFF785FD47
:10104C0000955FFA8AF34A46414638460994FFF701
:10105C005FFB20B9039B5B7803F0FF0283B1039B1A
:10106C0004A906A80593FFF770FD05A93046FFF704
:10107C0099FE06A8FFF732F804A8FFF72FF813E043
:10108C004FF69C7305A903A80592ADF81830FFF72D
:10109C00FDFE05A8FFF75CFE05A80999FFF793FE76
:1010AC0006A8FFF71BF8DAE730460BB0BDE8F08F67
:1010BC0031120A08022AF8B5044606D0032A17D0C2
:1010CC00012A22D10B6803601FE018200E68FEF77E
:1010DC00DEFF054650B13146FFF7C8FE3069B6F960
:1010EC00147008B101F0F2FC2861AF8225600CE0AD
:1010FC00046854B104F11000FFF72AFE2046FFF7F4
:10110C0040FD1821204600F08CFB0020F8BD38B5BE
:10111C00002383608B6804460D462BB1022298474E
:10112C00EB68E360AB68A360204638BD022A70B55B
:10113C00044606D0032A11D0012A18D10B6803608B
:10114C0015E014200E68FEF7A2FF054620B13146CB
:10115C00FFF7DDFF337C2B74256008E0046834B1A5
:10116C002046FFF70EFD1421204600F05AFB00200C
:10117C0070BD0000F0B50C46BFF35F8F87B0002345
:10118C0050E8006F40E80032002AF9D1BFF35F8FBE
:10119C00002E3FD01846FFF73FFA074620B12146F4
:1011AC003046FFF753FE2EE0314601A8FFF7AFFFA4
:1011BC00237810208DF81430FEF769FF0546D0B166
:1011CC0087601420FEF763FF044678B18760014600
:1011DC0001A8FFF7E5FC039BA268A360049B0392A4
:1011EC00E268E3609DF81430049223740A4B2C607F
:1011FC00EB600A4BAB6001A8FFF7C3FC0022294649
:10120C000748FFF711FA3046FFF7BBFC10213046B8
:10121C0000F007FB07B0F0BD6B0E0A0839110A0885
:10122C0009160A0830B5044685B00D4668461146C5
:10123C00FFF7C9FD7CB124B228460DB101F046FC84
:10124C00029002A96846ADF80C40FFF71FFE02A8F9
:10125C00FFF77EFD1DE04FF0010200988DF808406D
:10126C00D0E84F3FA34203D1C0E8412F0029F7D16A
:10127C0002D08DF808300CE010F10C014FF0010396
:10128C0018BF0373BFF35F8F043000F8033CFFF704
:10129C0071FF01A8FEF722FF05B030BD704710B5F5
:1012AC000446182100F0BDFA204610BDF8B50F46D3
:1012BC0000F10806051D002416F8011D0A22384607
:1012CC00FFF74DFBAE42044407D0002CF4D02E2186
:1012DC003846FFF701FB0444EEE72046F8BD00005A
:1012EC0010B50446044B112240F8043B002101F0D8
:1012FC0082FB204610BD00BFA82E0A080346074AF1
:10130C0010B543F8042B01F1100251F8044B914233
:10131C0043F8044BF9D10A781A7010BDA82E0A08AC
:10132C00024A41600260042202757047A82E0A0826
:10133C0010B59DF8084044EA032343EA024242EA0E
:10134C00016104234160037510BD000037B5044DE5
:10135C0005609DF818500095FFF7EAFF03B030BD0B
:10136C00A82E0A0841747047704708B50021007C0C
:10137C00FFF722F930EA200028BF4FF0FF3008BDFC
:10138C0008B50121007CFFF717F930EA200028BFCF
:10139C004FF0FF3008BD08B5007CFFF705F920EAD7
:1013AC00E07008BD08B5007CFFF7F6F820EAE070A5
:1013BC0008BD007CFFF710B910B50446142100F0ED
:1013CC0030FA204610BD38B50446007C0D46FFF7B8
:1013DC00EBF8002801DC607C28B12946207CFFF763
:1013EC00F3F820EAE07038BD10B5044600236360C2
:1013FC004FF47A73A360054B0846236001232174D4
:10140C0063741146FFF7C0F8204610BDBC2E0A08C5
:10141C0010B504461422002101F0EDFA054B2046CC
:10142C006360054BE36040F2011323818123238227
:10143C0010BD00BFB10100203001002030B50E4DB1
:10144C0087B001A8FFF7E4FF296811F0010410D15F
:10145C002846FEF720FE60B101AA21460748FFF797
:10146C00C3FF2846FEF71CFE054A0649034800F058
:10147C00D3F9024807B030BD2C010020B402002083
:10148C006800002075130A0810B5044614220021C8
:10149C0001F0B1FA054B20466360054BE36040F266
:1014AC00011323818123238210BD00BF640300201C
:1014BC00CC02002010B50E4C86B001A8FFF7E4FF5B
:1014CC002368DB0710D42046FEF7E5FD60B101AAC6
:1014DC0001210848FFF788FF2046FEF7E1FD064A88
:1014EC000649044800F098F9024806B010BD00BF48
:1014FC00C8020020500300206800002075130A0861
:10150C0070474174704708B5007CFFF735F820EA46
:10151C00E07008BD08B5007CFFF70EF820EAE0701B
:10152C0008BD08B5007CFFF717F830EA200028BF8B
:10153C004FF0FF3008BD08B5007CFFF705F830EA26
:10154C00200028BF4FF0FF3008BD007CFFF70CB81F
:10155C0010B50446142100F064F9204610BD70B596
:10156C00457C04460E4625B9007CFFF705F800289B
:10157C0005DD3146207CBDE87040FEF7D5BF28461E
:10158C0070BD000010B5044608461146002262608A
:10159C004FF47A72A260054A2074226001226274B0
:1015AC001A46FEF7B9FF204610BD00BFEC2E0A0804
:1015BC0038B50C4D296811F0010411D12846FEF7FD
:1015CC006AFD68B1084A2146084B0948FFF7DAFF63
:1015DC002846FEF765FD074A0749054800F01CF947
:1015EC00034838BD00050020040500207C040020C1
:1015FC0068040020680000200D150A0810B58368E7
:10160C0004460BB900F00FF9C3689847A3681BB1E7
:10161C0003222146204698472046BDE81040102161
:10162C0000F0FFB8002211464068FFF731B8F0B562
:10163C00164689B011220F460446002103A801F07A
:10164C00DAF9304601F05DFA0025009581B27B682D
:10165C0003AA3046FEF7C8FF20B129462046FFF703
:10166C005FFE03E003A92046FFF748FE204609B0C1
:10167C00F0BD002211464068FFF72AB8002211463F
:10168C004068FFF735B800224068FFF729B8002200
:10169C0081F001014068FFF713B800231A46194680
:1016AC004068FFF705B8002211464068FEF7E0BF1E
:1016BC00002202214068FEF7E3BF00231A4640686F
:1016CC00FEF7CEBF024B04225A60024A1A607047E2
:1016DC00880500201C2F0A0800231A464068FEF7D4
:1016EC00BFBF002202214068FEF7CABF002211468C
:1016FC004068FEF7BDBF002211464068FEF7C8BF28
:10170C0000231A4619464068FEF7CABF00231A4642
:10171C0019464068FEF7CCBF002281F001014068F9
:10172C00FEF7CEBF00224068FEF7DABF002211465A
:10173C004068FEF7DDBF002211464068FEF7C8BFC7
:10174C0070B516468EB0044608A8FFF7C9FD1122E5
:10175C00002103A801F04FF9304601F0D2F9002521
:10176C000A4B009581B25B6803AA3046FEF73CFF3A
:10177C0020B129462046FFF7D3FD03E003A92046FC
:10178C00FFF7BCFD20460EB070BD00BF88050020E1
:10179C00024B034A1A6000225A60704790050020E1
:1017AC00502F0A0870B50C4C0C4E0D4D00212046E4
:1017BC00FEF7EEFF20460B4C3246294600F02CF883
:1017CC0001212046FEF7E4FF324629462046BDE8BB
:1017DC00704000F021B800BF980500206800002080
:1017EC008D070A08A805002013B5084C00231A46DB
:1017FC00194600932046FFF7A9FD2046044A0549E7
:10180C0002B0BDE8104000F007B800BFBC050020D6
:10181C0068000020A9120A080B460146184601F080
:10182C00D1B8FEF736BC08B5FEF79AFF184B1A680C
:10183C00D1075CBF01221A60164B1A68D2075CBF35
:10184C0001221A60144B1A68D0075CBF01221A607F
:10185C00124B1A68D1075CBF01221A60104B1A6830
:10186C00D2075CBF01221A600E4B1A68D0075CBF0E
:10187C0001221A600C4B1A68D1075CBF01221A6056
:10188C000A4B1A68D2075CBF01221A60704700BF6E
:10189C00F0050020EC050020E8050020E405002000
:1018AC00E0050020DC050020D8050020D405002030
:1018BC00244B1A68D0075CBF01221A60224B1A68AD
:1018CC00D1075CBF01221A60204B1A68D2075CBF9B
:1018DC0001221A601E4B1A68D0075CBF01221A60E5
:1018EC001C4B1A68D1075CBF01221A601A4B1A688C
:1018FC00D2075CBF01221A60184B1A68D0075CBF74
:10190C0001221A60164B1A68D1075CBF01221A60BB
:10191C00144B1A68D2075CBF01221A60124B1A686A
:10192C00D0075CBF01221A60104B1A68D1075CBF4C
:10193C0001221A600E4B1A68D2075CBF01221A6092
:10194C00704700BF200600201C060020180600204F
:10195C0014060020100600200C06002008060020AB
:10196C000406002000060020FC050020F8050020DD
:10197C00F4050020244B1A68D0075CBF01221A60C2
:10198C00224B1A68D1075CBF01221A60204B1A68DF
:10199C00D2075CBF01221A601E4B1A68D0075CBFCD
:1019AC0001221A601C4B1A68D1075CBF01221A6015
:1019BC001A4B1A68D2075CBF01221A60184B1A68BE
:1019CC00D0075CBF01221A60164B1A68D1075CBFA6
:1019DC0001221A60144B1A68D2075CBF01221A60EC
:1019EC00124B1A68D0075CBF01221A60104B1A68A0
:1019FC00D1075CBF01221A600E4B1A68D2075CBF7C
:101A0C0001221A60704700BF500600204C060020CF
:101A1C004806002044060020400600203C0600201A
:101A2C003806002034060020300600202C0600204A
:101A3C002806002024060020184B1A68D1075CBF2A
:101A4C0001221A60164B1A68D2075CBF01221A6079
:101A5C00144B1A68D0075CBF01221A60124B1A682B
:101A6C00D1075CBF01221A60104B1A68D2075CBF09
:101A7C0001221A600E4B1A68D0075CBF01221A6053
:101A8C000C4B1A68D1075CBF01221A600A4B1A680A
:101A9C00D2075CBF01221A60704700BF700600209D
:101AAC006C060020680600206406002060060020FA
:101ABC005C060020580600205406002081F00041EE
:101ACC0002E000BF83F0004330B54FEA41044FEA17
:101ADC00430594EA050F08BF90EA020F1FBF54EAB2
:101AEC00000C55EA020C7FEA645C7FEA655C00F04E
:101AFC00E2804FEA5454D4EB5555B8BF6D420CDD1F
:101B0C002C4480EA020281EA030382EA000083EAA1
:101B1C00010180EA020281EA0303362D88BF30BD41
:101B2C0011F0004F4FEA01314FF4801C4CEA113197
:101B3C0002D0404261EB410113F0004F4FEA0333F6
:101B4C004CEA133302D0524263EB430394EA050F81
:101B5C0000F0A780A4F10104D5F1200E0DDB02FAF0
:101B6C000EFC22FA05F2801841F1000103FA0EF284
:101B7C00801843FA05F359410EE0A5F120050EF14A
:101B8C00200E012A03FA0EFC28BF4CF0020C43FA7B
:101B9C0005F3C01851EBE37101F0004507D54FF088
:101BAC00000EDCF1000C7EEB00006EEB0101B1F5D8
:101BBC00801F1BD3B1F5001F0CD349085FEA30001E
:101BCC004FEA3C0C04F101044FEA445212F5800F29
:101BDC0080F09A80BCF1004F08BF5FEA500C50F1C6
:101BEC00000041EB045141EA050130BD5FEA4C0CA9
:101BFC00404141EB010111F4801FA4F10104E9D132
:101C0C0091F0000F04BF01460020B1FA81F308BF28
:101C1C002033A3F10B03B3F120020CDA0C3208DDF4
:101C2C0002F1140CC2F10C0201FA0CF021FA02F1CF
:101C3C000CE002F11402D8BFC2F1200C01FA02F13F
:101C4C0020FA0CFCDCBF41EA0C019040E41AA2BF64
:101C5C0001EB0451294330BD6FEA04041F3C1CDA2C
:101C6C000C340EDC04F11404C4F1200220FA04F04C
:101C7C0001FA02F340EA030021FA04F345EA0301F6
:101C8C0030BDC4F10C04C4F1200220FA02F001FAB8
:101C9C0004F340EA0300294630BD21FA04F029463A
:101CAC0030BD94F0000F83F4801306BF81F48011D3
:101CBC000134013D4EE77FEA645C18BF7FEA655C46
:101CCC0029D094EA050F08BF90EA020F05D054EA18
:101CDC00000C04BF1946104630BD91EA030F1EBF1D
:101CEC000021002030BD5FEA545C05D14000494121
:101CFC0028BF41F0004130BD14F580043CBF01F514
:101D0C00801130BD01F0004545F0FE4141F47001F9
:101D1C004FF0000030BD7FEA645C1ABF19461046D4
:101D2C007FEA655C1CBF0B46024650EA013406BFD5
:101D3C0052EA033591EA030F41F4002130BD00BF94
:101D4C0090F0000F04BF0021704730B54FF4806451
:101D5C0004F132044FF000054FF0000150E700BFD2
:101D6C0090F0000F04BF0021704730B54FF4806431
:101D7C0004F1320410F0004548BF40424FF000011E
:101D8C003EE700BF42004FEAE2014FEA31014FEA61
:101D9C0002701FBF12F07F4393F07F4F81F06051B0
:101DAC00704792F0000F14BF93F07F4F704730B51F
:101DBC004FF4607401F0004521F0004120E700BFB2
:101DCC0050EA010208BF704730B54FF000050AE039
:101DDC0050EA010208BF704730B511F0004502D53A
:101DEC00404261EB41014FF4806404F132045FEA3C
:101DFC00915C3FF4DCAE4FF003025FEADC0C18BFE1
:101E0C0003325FEADC0C18BF033202EBDC02C2F1D6
:101E1C00200300FA03FC20FA02F001FA03FE40EA68
:101E2C000E0021FA02F11444C1E600BF70B54FF068
:101E3C00FF0C4CF4E06C1CEA11541DBF1CEA13554A
:101E4C0094EA0C0F95EA0C0F00F0DEF82C4481EAB2
:101E5C00030621EA4C5123EA4C5350EA013518BFD2
:101E6C0052EA033541F4801143F4801338D0A0FBBF
:101E7C0002CE4FF00005E1FB02E506F00042E0FB6C
:101E8C0003E54FF00006E1FB03569CF0000F18BF72
:101E9C004EF0010EA4F1FF04B6F5007F64F540741A
:101EAC0004D25FEA4E0E6D4146EB060642EAC621AD
:101EBC0041EA55514FEAC52040EA5E504FEACE2E1A
:101ECC00B4F1FD0C88BFBCF5E06F1ED8BEF1004F1D
:101EDC0008BF5FEA500E50F1000041EB045170BD99
:101EEC0006F0004646EA010140EA020081EA0301DD
:101EFC00B4EB5C04C2BFD4EB0C0541EA045170BDD9
:101F0C0041F480114FF0000E013C00F3AB8014F152
:101F1C00360FDEBF002001F0004170BDC4F100049B
:101F2C00203C35DA0C341BDC04F11404C4F120051C
:101F3C0000FA05F320FA04F001FA05F240EA020077
:101F4C0001F0004221F0004110EBD37021FA04F6AD
:101F5C0042EB06015EEA430E08BF20EAD37070BD67
:101F6C00C4F10C04C4F1200500FA04F320FA05F0C6
:101F7C0001FA04F240EA020001F0004110EBD370C8
:101F8C0041F100015EEA430E08BF20EAD37070BD38
:101F9C00C4F1200500FA05F24EEA020E20FA04F311
:101FAC0001FA05F243EA020321FA04F001F00041C0
:101FBC0021FA04F220EA020000EBD3705EEA430E31
:101FCC0008BF20EAD37070BD94F0000F0FD101F060
:101FDC000046400041EB010111F4801F08BF013C99
:101FEC00F7D041EA060195F0000F18BF704703F0D7
:101FFC000046520043EB030313F4801F08BF013D5E
:10200C00F7D043EA0603704794EA0C0F0CEA135519
:10201C0018BF95EA0C0F0CD050EA410618BF52EAD3
:10202C004306D1D181EA030101F000414FF00000D9
:10203C0070BD50EA410606BF1046194652EA4306E7
:10204C0019D094EA0C0F02D150EA013613D195EA5B
:10205C000C0F05D152EA03361CBF104619460AD1A3
:10206C0081EA030101F0004141F0FE4141F47001AD
:10207C004FF0000070BD41F0FE4141F4780170BD9D
:10208C0070B54FF0FF0C4CF4E06C1CEA11541DBF02
:10209C001CEA135594EA0C0F95EA0C0F00F0A7F804
:1020AC00A4EB050481EA030E52EA03354FEA013131
:1020BC0000F088804FEA03334FF0805545EA131344
:1020CC0043EA12634FEA022245EA111545EA10650C
:1020DC004FEA00260EF000419D4208BF964244F1A3
:1020EC00FD0404F5407402D25B084FEA3202B61AC2
:1020FC0065EB03055B084FEA32024FF480104FF496
:10210C00002CB6EB020E75EB030E22BFB61A754609
:10211C0040EA0C005B084FEA3202B6EB020E75EB9C
:10212C00030E22BFB61A754640EA5C005B084FEA04
:10213C003202B6EB020E75EB030E22BFB61A7546D1
:10214C0040EA9C005B084FEA3202B6EB020E75EBDC
:10215C00030E22BFB61A754640EADC0055EA060E9D
:10216C0018D04FEA051545EA16754FEA06164FEAE0
:10217C00C30343EA52734FEAC2025FEA1C1CC0D18C
:10218C0011F4801F0BD141EA00014FF000004FF019
:10219C00004CB6E711F4801F04BF01430020B4F1DA
:1021AC00FD0C88BFBCF5E06F3FF6AFAEB5EB030C92
:1021BC0004BFB6EB020C5FEA500C50F1000041EB8F
:1021CC00045170BD0EF0004E4EEA113114EB5C045C
:1021DC00C2BFD4EB0C0541EA045170BD41F480112F
:1021EC004FF0000E013C90E645EA060E8DE60CEA37
:1021FC00135594EA0C0F08BF95EA0C0F3FF43BAF54
:10220C0094EA0C0F0AD150EA01347FF434AF95EA0A
:10221C000C0F7FF425AF104619462CE795EA0C0FEE
:10222C0006D152EA03353FF4FDAE1046194622E7BB
:10223C0050EA410618BF52EA43067FF4C5AE50EA95
:10224C0041047FF40DAF52EA43057FF4EBAE12E785
:10225C004FF0FF3C06E000BF4FF0010C02E000BF66
:10226C004FF0010C4DF804CD4FEA410C7FEA6C5C49
:10227C004FEA430C18BF7FEA6C5C1BD001B050EAEC
:10228C00410C0CBF52EA430C91EA030F02BF90EAD7
:10229C00020F0020704710F1000F91EA030F58BF96
:1022AC00994208BF90422CBFD8176FEAE37040F0F8
:1022BC00010070474FEA410C7FEA6C5C02D150EA96
:1022CC00013C07D14FEA430C7FEA6C5CD6D152EA51
:1022DC00033CD3D05DF8040B704700BF8446104616
:1022EC0062468C461946634600E000BF01B5FFF715
:1022FC00B7FF002848BF10F1000F01BD4DF808EDE5
:10230C00FFF7F4FF0CBF012000205DF808FB00BFB5
:10231C004DF808EDFFF7EAFF34BF012000205DF80F
:10232C0008FB00BF4DF808EDFFF7E0FF94BF01205C
:10233C0000205DF808FB00BF4DF808EDFFF7CEFF5D
:10234C0094BF012000205DF808FB00BF4DF808ED9C
:10235C00FFF7C4FF34BF012000205DF808FB00BF6D
:10236C004FEA410C7FEA6C5C02D150EA013C0AD185
:10237C004FEA430C7FEA6C5C02D152EA033C02D177
:10238C004FF0000070474FF0010070474FEA4102D8
:10239C0012F5001215D211D56FF47873B3EB6252AB
:1023AC0012D94FEAC12343F0004343EA505311F0D2
:1023BC00004F23FA02F018BF404270474FF0000064
:1023CC00704750EA013005D111F0004008BF6FF0A2
:1023DC00004070474FF00000704700BF4A0011D218
:1023EC0012F5001211D20DD56FF47873B3EB625263
:1023FC000ED44FEAC12343F0004343EA505323FA6F
:10240C0002F070474FF00000704750EA013002D1E3
:10241C004FF0FF3070474FF00000704780F00040E5
:10242C0002E000BF81F0004142001FBF5FEA4103A0
:10243C0092EA030F7FEA226C7FEA236C6AD04FEAA0
:10244C001262D2EB1363C1BFD218414048404140E5
:10245C00B8BF5B42192B88BF704710F0004F40F497
:10246C00000020F07F4018BF404211F0004F41F4B3
:10247C00000121F07F4118BF494292EA030F3FD07F
:10248C00A2F1010241FA03FC10EB0C00C3F1200392
:10249C0001FA03F100F0004302D5494260EB400021
:1024AC00B0F5000F13D3B0F1807F06D340084FEA8C
:1024BC00310102F10102FE2A51D2B1F1004F40EB81
:1024CC00C25008BF20F0010040EA030070474900E9
:1024DC0040EB000010F4000FA2F10102EDD1B0FAB4
:1024EC0080FCACF1080CB2EB0C0200FA0CF0AABFA9
:1024FC0000EBC25052421843BCBFD0401843704747
:10250C0092F0000F81F4000106BF80F4000001324C
:10251C00013BB5E74FEA41037FEA226C18BF7FEA23
:10252C00236C21D092EA030F04D092F0000F08BF65
:10253C000846704790EA010F1CBF0020704712F04C
:10254C007F4F04D1400028BF40F00040704712F18B
:10255C0000723CBF00F50000704700F0004343F0F0
:10256C00FE4040F4000070477FEA226216BF084626
:10257C007FEA23630146420206BF5FEA412390EAE9
:10258C00010F40F4800070474FF0000304E000BFDF
:10259C0010F0004348BF40425FEA000C08BF704790
:1025AC0043F0964301464FF000001CE050EA010254
:1025BC0008BF70474FF000030AE000BF50EA010269
:1025CC0008BF704711F0004302D5404261EB410156
:1025DC005FEA010C02BF84460146002043F0B6437B
:1025EC0008BFA3F18053A3F50003BCFA8CF2083AA0
:1025FC00A3EBC25310DB01FA02FC634400FA02FCA9
:10260C00C2F12002BCF1004F20FA02F243EB0200AF
:10261C0008BF20F00100704702F1200201FA02FC11
:10262C00C2F1200250EA4C0021FA02F243EB020004
:10263C0008BF20EADC7070474FF0FF0C1CEAD05248
:10264C001EBF1CEAD15392EA0C0F93EA0C0F6FD009
:10265C001A4480EA010C400218BF5FEA41211ED0E7
:10266C004FF0006343EA501043EA5111A0FB0131D3
:10267C000CF00040B1F5000F3EBF490041EAD371A8
:10268C005B0040EA010062F17F02FD2A1DD8B3F124
:10269C00004F40EBC25008BF20F00100704790F093
:1026AC00000F0CF0004C08BF49024CEA502040EAE5
:1026BC0051207F3AC2BFD2F1FF0340EAC2507047AB
:1026CC0040F400004FF00003013A5DDC12F1190FE9
:1026DC00DCBF00F000407047C2F10002410021FA5B
:1026EC0002F1C2F1200200FA02FC5FEA310040F173
:1026FC00000053EA4C0308BF20EADC70704792F0EC
:10270C00000F00F0004C02BF400010F4000F013A23
:10271C00F9D040EA0C0093F0000F01F0004C02BF1E
:10272C00490011F4000F013BF9D041EA0C018FE78D
:10273C000CEAD15392EA0C0F18BF93EA0C0F0AD093
:10274C0030F0004C18BF31F0004CD8D180EA0100B9
:10275C0000F00040704790F0000F17BF90F0004F52
:10276C00084691F0000F91F0004F14D092EA0C0F34
:10277C0001D142020FD193EA0C0F03D14B0218BFC7
:10278C00084608D180EA010000F0004040F0FE400D
:10279C0040F40000704740F0FE4040F440007047A9
:1027AC004FF0FF0C1CEAD0521EBF1CEAD15392EA28
:1027BC000C0F93EA0C0F69D0A2EB030280EA010C18
:1027CC0049024FEA402037D04FF0805343EA1111B1
:1027DC0043EA10130CF000408B4238BF5B0042F10F
:1027EC007D024FF4000C8B4224BF5B1A40EA0C00B4
:1027FC00B3EB510F24BFA3EB510340EA5C00B3EBE6
:10280C00910F24BFA3EB910340EA9C00B3EBD10FD3
:10281C0024BFA3EBD10340EADC001B0118BF5FEA25
:10282C001C1CE0D1FD2A3FF650AF8B4240EBC2504E
:10283C0008BF20F0010070470CF0004C4CEA50200F
:10284C007F32C2BFD2F1FF0340EAC250704740F45E
:10285C0000004FF00003013A37E792F0000F00F050
:10286C00004C02BF400010F4000F013AF9D040EACE
:10287C000C0093F0000F01F0004C02BF490011F462
:10288C00000F013BF9D041EA0C0195E70CEAD1535A
:10289C0092EA0C0F08D142027FF47DAF93EA0C0F41
:1028AC007FF470AF084676E793EA0C0F04D14B0225
:1028BC003FF44CAF08466EE730F0004C18BF31F0D7
:1028CC00004CCAD130F000427FF45CAF31F00043D1
:1028DC007FF43CAF5FE700BF4FF0FF3C06E000BF6A
:1028EC004FF0010C02E000BF4FF0010C4DF804CD8D
:1028FC004FEA40024FEA41037FEA226C18BF7FEA9D
:10290C00236C11D001B052EA530C18BF90EA010F9E
:10291C0058BFB2EB030088BFC81738BF6FEAE1702D
:10292C0018BF40F0010070477FEA226C02D15FEAC9
:10293C00402C05D17FEA236CE4D15FEA412CE1D035
:10294C005DF8040B704700BF844608466146FFE7FC
:10295C000FB5FFF7C9FF002848BF10F1000F0FBDDE
:10296C004DF808EDFFF7F4FF0CBF012000205DF8D7
:10297C0008FB00BF4DF808EDFFF7EAFF34BF01205C
:10298C0000205DF808FB00BF4DF808EDFFF7E0FFF5
:10299C0094BF012000205DF808FB00BF4DF808ED46
:1029AC00FFF7D2FF94BF012000205DF808FB00BFA9
:1029BC004DF808EDFFF7C8FF34BF012000205DF88B
:1029CC0008FB00BF10B5054C13462CB10A46014656
:1029DC000220AFF3008010BD204610BD00000000A7
:1029EC0010B5431E0A44914204D011F8014B03F870
:1029FC00014FF8E710BD03460244934202D003F89E
:102A0C00011BFAE77047000038B5124B05461C68ED
:102A1C00A36BD3B91820FDF78BFE43F20E33A063E2
:102A2C0003804AF6CD33438041F2342383804EF247
:102A3C006D63C3804DF6EC630381052343810B2347
:102A4C00838101220023C0E90423A36B00221D61B2
:102A5C005A6138BD64000020194B10B51C68A36B7B
:102A6C00D3B91820FDF764FE43F20E33A063038044
:102A7C004AF6CD33438041F2342383804EF26D63AA
:102A8C00C3804DF6EC630381052343810B238381C3
:102A9C0001220023C0E90423A16B0A4C0B6948698D
:102AAC005C43094A02FB0040A3FB022301320344AE
:102ABC0043F10003C1E9042323F0004010BD00BF23
:102ACC00640000202DF451582D7F954C024B01468B
:102ADC00186800F003B800BF6400002070B506460B
:102AEC0008460C4600F00DF8451C29463046FDF70B
:102AFC003FFE064618B12A462146FFF771FF3046C5
:102B0C0070BD034613F8012B002AFBD1181A0138AB
:102B1C00704700001D000A085D000A0889000A08B9
:102B2C008D000A08000000007477696C696F5F7390
:102B3C006D730053656E64696E674D657373616781
:102B4C0065006361722076616C006368696C642057
:102B5C0076616C0074656D70657261747572650078
:102B6C0074656D7056616C00546865206368696C9F
:102B7C006420617665726167652069733A20200074
:102B8C006368696C6420696E2063617200746865A7
:102B9C00207573622061727261792069733A20200A
:102BAC000053656E64696E67206D6573736167654C
:102BBC002062656361757365206361722074757240
:102BCC006E6564206F666600546865206669727372
:102BDC007420616E64206C61737420726561646929
:102BEC006E677320696E207468652074656D702043
:102BFC0061727261793A2020005468652074656DA9
:102C0C00706572617475726520697320726973697D
:102C1C006E6720746F6F2066617374005468652052
:102C2C0074656D7020617665726167652069733AB1
:102C3C0020200053656E64696E67206D6573736147
:102C4C00676520626563617573652074656D706579
:102C5C0072617475726520697320746F6F20686F70
:102C6C00740053656E64696E67206D65737361677C
:102C7C006520626563617573652074656D7020698C
:102C8C007320637269746963616C007477696C6931
:102C9C006F5F736D735F637269746963616C00530A
:102CAC00656E64696E6720437269746963616C2038
:102CBC004D65737361676500596F75722063686940
:102CCC006C6420697320696E20746865206361727E
:102CDC0000596F7572206368696C64206973206990
:102CEC006E207468652063617220616E6420697463
:102CFC0020697320746F6F20686F74212043616C9E
:102D0C006C20393131206966206E6563657373619F
:102D1C0072792E20506C656173652073656E64202A
:102D2C00726573706F6E73206D6573736167652068
:102D3C006F6620616E797468696E6720616E6420BD
:102D4C00676F20676574207468656D000000000073
:102D5C00000000008D070A088F070A086E616E00DC
:102D6C006F7666002E00696E6600626175640053B2
:102D7C00657269616C0055534253657269616C31BF
:102D8C00007479706500706172616D00636D640030
:102D9C00696400686E64007374726D0066696C74AB
:102DAC00006C766C0061646448616E646C657200E2
:102DBC0072656D6F766548616E646C657200656EE8
:102DCC00756D48616E646C657273004A534F4E5357
:102DDC00747265616D4C6F6748616E646C657200EE
:102DEC0061707000253031307520005D2000256445
:102DFC00002C200028293A2000205B00636F6465BA
:102E0C00203D200025690064657461696C73203D68
:102E1C0020000D0A006C6E00666E00636F64650026
:102E2C0064657461696C006E6F6E650074726163C9
:102E3C006500696E666F007761726E006572726F05
:102E4C00720070616E696300616C6C005A00252B16
:102E5C003033643A253032750025592D256D2D25DA
:102E6C00645425483A254D3A2553257A00617363FD
:102E7C0074696D6500000000000000000000000097
:102E8C00210D0A08270D0A086B0D0A08350D0A08D2
:102E9C00230D0A080000000000000000B9120A0807
:102EAC00A9120A08AB120A0800000000000000007A
:102EBC0075130A08C5130A08D3130A0891080A08DF
:102ECC00B1130A0877130A088D130A08BF130A08EE
:102EDC00A3130A0871130A08000000000000000088
:102EEC000D150A085D150A086B150A0891080A08E1
:102EFC0021150A0843150A082F150A0857150A0840
:102F0C000F150A0813150A08000000000000000045
:102F1C00C7160A08BD160A08B3160A0831160A089D
:102F2C004B0B0A08A7160A089B160A0893160A08E0
:102F3C0089160A087F160A083B160A0800000000CA
:102F4C0000000000E5160A08EF160A08F9160A0830
:102F5C0003170A080D170A0819170A0825170A0873
:102F6C0031170A0839170A0843170A084D170A08B7
:102F7C000000000000000000000000000000000045
:102F8C000000000000000000000000000000000035
:102F9C000000000000000000000000000000000025
:102FAC000000000000000000000000000000000015
:102FBC000000000000000000000000000000000005
:102FCC0000000000000000000000000000000000F5
:102FDC00430000007D040A08C5070A08650B0A08AF
:102FEC00750B0A08CD0B0A08D1160A089D170A089A
:102FFC00B1170A08F5170A0839180A08BD180A0883
:10300C0081190A08451A0A08000000000000000097
:04301C0000000000B0
:0430200000000000AC
:10302400792E0A08000000007C2F0A089C2F0A0849
:10303400BC2F0A080000000000000000000000008F
:1030440000000000DC2F0A0800000000000000005F
:10305400000000000000000000000000000000006C
:10306400000000000000000000000000000000005C
:10307400000000000000000000000000000000004C
:08308400000000000400002020
:10308C00FFFFFFFF00000102030405060708090A01
:10309C000B0C0D0E0F101112131415161718191AFC
:0830AC001B1C1D1E1F20280043
:0430B4007856341204
:04000005080A001CC9
:00000001FF
