:02000002D0002C
:1040000000400D007C6A0D00000006000D00050157
:084010000401DE0500000000C0
:0440180050650D00E2
:10401C0009480A49884208B505D0094A824202D0AB
:10402C00121A02F02FFA0748074A0021121A02F05E
:10403C0034FA014808BD00BF10E30320C4690D0029
:10404C00A0E30320A0E30320F0E7032070B500F009
:10405C00DFFD074C074BE41AA40800251E46A542B9
:10406C0004D056F8253098470135F8E770BD00BFED
:10407C00BC690D0084690D0000F015B808B500F09E
:10408C0045F8BDE8084000F085BD00F0ADBA00F081
:10409C00B3BA00F0B1BA0078B0FA80F040097047BA
:1040AC0001230370704708B501F076F94FF41651EF
:1040BC00BDE8084001F064B91FB5114B02681B78CC
:1040CC008DF800300F493C2302A800F00FFF039C31
:1040DC007CB16368013B63605BB9236820469B68D5
:1040EC009847A368013BA3601BB923682046DB6893
:1040FC00984701F051F9044900F0D9FB04B010BD08
:10410C00BCE3032064650D006F650D0010B5634BB7
:10411C00DFED637A2DED028B03F11402B3EC017A1F
:10412C00934277EE877AF9D1B1EE048A87EE887ADA
:10413C005C4B5D4CC3ED007A84ED007A01F02CF9F8
:10414C005A4900F0A1FB01F027F9022194ED000A75
:10415C0000F0B0FC94ED007AF0EE087AB4EEE77A59
:10416C00F1EE10FA40F1928001F016F9504900F08E
:10417C009EFB504B93ED007AF7EE007AB4EE677A23
:10418C00F1EE10FA0ED1D3ED017AF5EE407AF1EEA4
:10419C0010FA07D14848FFF78FFF01F0FDF84749A7
:1041AC0000F085FB464C94ED007AD4ED047A77EE62
:1041BC00C77AB2EE047AF4EEC77AF1EE10FA17DB96
:1041CC003D48FFF779FF01F0E7F83E4900F05CFB52
:1041DC0001F0E2F8D4ED007A94ED040A022130EEFD
:1041EC00670A00F04DFC01F0D7F8374900F05FFB8F
:1041FC00334BDFED2B7A03F11402B3EC017A9A42C4
:10420C0077EE877AF9D187EE887A304B304CC3ED54
:10421C00007ADFED307A84ED007AB4EEE77AF1EED5
:10422C0010FA9FED2D8A0CDBB4EEC87AF1EE10FA81
:10423C0007D52148FFF740FF01F0AEF8274900F001
:10424C0036FBD4ED007AF4EEC87AF1EE10FA9FED5D
:10425C00248A0CDBF4EEC87AF1EE10FA07D5164876
:10426C00FFF72AFF01F098F81E4900F020FBD4ED6F
:10427C00007AF4EEC87AF1EE10FA07DB0E48FFF77D
:10428C001BFF01F089F8174900F011FBBDEC028B04
:10429C004FF4FA60BDE8104000F02EBC10E3032090
:1042AC0000000000B4E30320CCE303207E650D0086
:1042BC00AC650D00C4E30320A4E30320B9650D0035
:1042CC0024E30320F8650D001E660D00B8E30320FF
:1042DC00C0E303200000A0420000B44236660D008B
:1042EC000000C84265660D0010B5084B084C012251
:1042FC001A7000F025F80749204600F04CFA2046C9
:10430C00054A0649BDE8104001F0ACBABCE30320F5
:10431C00A4E303208E660D00A0E3032015470D00D7
:10432C0008B5024B1B689B68019308BD680203002B
:10433C0008B5024B1B68DB68019308BD68020300DB
:10434C0008B5024B1B681B68019308BD2C020300C7
:10435C0008B5024B1B685B68019308BD180203008B
:10436C0008B5024B1B685B69019308BD180203007A
:10437C0008B5024B1B689B68019308BD48020300FB
:10438C0008B5024B1B681B69019308BD480203006A
:10439C0008B5024B1B685B69019308BD480203001A
:1043AC0008B5024B1B685B6C019308BD4802030007
:1043BC0008B5024B1B689B6C019308BD48020300B7
:1043CC0008B5024B1B685B69019308BD64020300CE
:1043DC0008B5024B1B681B68019308BD3C02030027
:1043EC0008B5024B1B68DB68019308BD3C02030057
:1043FC0008B5024B1B681B69019308BD3C02030006
:10440C0008B5024B1B685B69019308BD3C020300B5
:10441C0008B5024B1B689B69019308BD3C02030065
:10442C0008B5024B1B68DB69019308BD3C02030015
:10443C0008B5024B1B689B6A019308BD3C02030044
:10444C0008B5024B1B681B68019308BD4C020300A6
:10445C0008B5024B1B685B68019308BD4C02030056
:10446C0008B5024B1B681B69019308BD4C02030085
:10447C0008B5024B1B685B69019308BD4C02030035
:10448C0008B5024B1B689B69019308BD4C020300E5
:10449C0008B5024B1B68DB69019308BD4C02030095
:1044AC0008B5024B1B681B6A019308BD4C02030044
:1044BC0008B5024B1B685B68019308BD2002030022
:1044CC0008B5024B1B685B69019308BD2002030011
:1044DC0008B5024B1B68DB6C019308BD200203007E
:1044EC0008B5024B1B685B6D019308BD20020300ED
:1044FC0008B5034B1B68D3F88830019308BD000046
:10450C002002030008B5034B1B68D3F894300193C9
:10451C0008BD00002002030008B5024B1B685B6855
:10452C00019308BD4002030008B5024B1B689B6851
:10453C00019308BD4002030008B5024B1B68DB6801
:10454C00019308BD4002030008B5024B1B681B69B0
:10455C00019308BD4002030008B5024B1B685B6960
:10456C00019308BD4002030008B5024B1B689B6910
:10457C00019308BD4002030008B5024B1B68DB69C0
:10458C00019308BD4002030008B5024B1B681B6A6F
:10459C00019308BD4002030008B5024B1B681B6B5E
:1045AC00019308BD4002030008B5024B1B685B6B0E
:1045BC00019308BD4002030008B5024B1B685B6900
:1045CC00019308BD4402030008B5024B1B681B6A2B
:1045DC00019308BD4402030008B5024B1B68DB6B5A
:1045EC00019308BD4402030008B5024B1B681B680D
:1045FC00019308BD1C02030008B5024B1B685B68E5
:10460C00019308BD1C02030008B5024B1B689B6894
:10461C00019308BD1C02030008B5024B1B68DB6A42
:10462C00019308BD1C02030008B5024B1B681B6BF1
:10463C00019308BD1C020300002211464068FFF7DD
:10464C00A3BF002211464068FFF7AEBF00224068AE
:10465C00FFF7A2BF002281F001014068FFF78CBF79
:10466C0000231A4619464068FFF77EBF00231A46FE
:10467C0019464068FFF770BF002211464068FFF7EB
:10468C0063BF002211464068FFF74EBF0022022193
:10469C004068FFF751BF00231A464068FFF73CBF44
:1046AC00024B03225A60024A1A607047D0E303207F
:1046BC00B0660D0010B50446006818B1FFF79CFFFA
:1046CC000023236010BD10B50446FFF7F3FF20460E
:1046DC0010BD000010B5094C00204FF6FF73206090
:1046EC00A080A07120816381FFF7E2FE2046044A7E
:1046FC000449BDE8104001F0B5B800BFD8E3032071
:10470C00A0E30320D3460D0010B504460068FFF764
:10471C0073FF204610BD10B50446006808B1FFF7C2
:10472C006BFF00232360A360636010BD38B50446A3
:10473C000D4600680131FFF767FF10B184E82100D6
:10474C00012038BD10B50368044613B143688B4291
:10475C0007D22046FFF7EAFF20B1A3680BB9226805
:10476C001370012010BD70B50E4611460446154657
:10477C00FFF7E8FF18B92046FFF7CDFF09E02A46FE
:10478C003146A560206801F07DFE2268A3680021F7
:10479C00D154204670BD38B50023044603604360F5
:1047AC00836003730D4639B1084601F0C2FE2946F9
:1047BC0002462046FFF7D7FF204638BD10B5044609
:1047CC00006808B1FFF7F4FD204610BD10B5036872
:1047DC0004469B689847A368013BA3602BB92368E8
:1047EC002046DB68BDE81040184710BD0B6803601D
:1047FC0013B15A6801325A60704710B5044600680C
:10480C0028B14368013B43600BB9FFF7DFFF20463B
:10481C0010BD000010B5064C002320462360FFF7A6
:10482C00BFFD2046034A0449BDE8104001F01AB808
:10483C00E4E30320A0E30320C9470D00F8B50646C6
:10484C000D468F180024BD420CD0336815F8011B9F
:10485C009B6830469847002801DB0444F3E7002CA2
:10486C0008BF04462046F8BD70B505460C46084600
:10487C0049B101F05EFE2B68024621462846DB68F2
:10488C00BDE87040184770BD08B5FFF7EDFF08BDD7
:10489C0003689B68184738B50D210546FFF7F8FFEC
:1048AC000A2104462846FFF7F3FF204438BD38B5EB
:1048BC000546FFF7D9FF04462846FFF7ECFF2044D6
:1048CC0038BD30B58BB00B4600218DF82410012A71
:1048DC0098BF0A220DF12304B3FBF2F505FB12334A
:1048EC0003F0FF03092B94BF30333733DBB221467F
:1048FC0004F801392B46002DEED1FFF7B5FF0BB0B4
:10490C0030BD00002DE9F04757EC106B82460D4688
:10491C0010EE102A3B4610EE100A394601F046FD07
:10492C0008B14E4912E027F000494FF0FF324C4BD2
:10493C003046494601F03AFD68B94FF0FF32484B1A
:10494C003046494601F014FD28B946495046FFF758
:10495C008BFFBDE8F0874FF06042434B3046394641
:10496C0001F01AFD08B14149F0E74FF06042404BAD
:10497C003046394601F0F2FC0028F4D10022002325
:10498C003046394601F0EAFC40B12D215046FFF784
:10499C007FFF07F1004304461F4600E004463549FB
:1049AC004FF0000800205FFA88F39D4206D90022E0
:1049BC00314B01F08BFB08F10108F4E732463B4622
:1049CC0001F0A8F80F46064601F02EFD0A2201461A
:1049DC0080465046FFF775FF0444E5B3404601F0AE
:1049EC00D5F902460B463046394601F091F8064699
:1049FC000F4650462149FFF737FF044400221E4B57
:104A0C003046394601F038FA06460F4601F0E4FC10
:104A1C00B0F1000907DA2D215046FFF739FFC9F133
:104A2C000001804602E049464FF000080A22504639
:104A3C00FFF747FF40440444484601F0B7F90246EB
:104A4C000B463046394601F063F8013D15F0FF0581
:104A5C0006460F46D2D12046BDE8F087DC660D0035
:104A6C00FFFFEF7FE6660D00FFFFEF41E0660D00F4
:104A7C00FFFFEFC10000E03F00002440E4660D00A2
:104A8C0038B5044610EE100ACDB201F0A1F941EC94
:104A9C00100B29462046BDE83840FFF733BF38B528
:104AAC00C9B20546FFF72EFF04462846FFF7F3FE72
:104ABC00204438BD38B5044610EE100A0D4601F0FE
:104ACC0087F941EC100B29462046BDE83840FFF72A
:104ADC00E6BF0000014B024A1A607047E8E303206E
:104AEC005D670D00024B1A68024B1A60704700BFDD
:104AFC0038E30320ECE303200021FFF7E1BC10B501
:104B0C008368044613B1032201469847204610BD22
:104B1C0010B50446FFF7F3FF204610BD13B50B4646
:104B2C00044603C88DE8030093E8030084E80300FF
:104B3C009DE8030083E8030002B010BD0348044A5B
:104B4C0004490023836000F08DBE00BFF0E3032016
:104B5C00A0E303201D4B0D0008B50C4B33B100F046
:104B6C001BFC03681B699847002809DC084B63B1E0
:104B7C0000F0DCFC03681B699847002803DC08BDC7
:104B8C00AFF30080F2E7AFF3008008BD0000000037
:104B9C000000000008B5FFF7DFFFFFF7E1FB014B5A
:104BAC00186008BD4CE703200248034A0349121A57
:104BBC0001F068BC00F4032004F40320C0690D006C
:104BCC0007B5002300931A466FF07701FFF79AFCA4
:104BDC0003B05DF804FB000007B543880A2B08D02E
:104BEC00502B09D1094B1B683BB103B05DF804EBAA
:104BFC001847FFF7E5FF06E0002300931A466FF015
:104C0C007701FFF77FFC03B05DF804FB00E40320A1
:104C1C0038B5104C104D2368AB42104B0CBF012221
:104C2C0000221A7002D0FFF7BFFF2560FFF790FB40
:104C3C00044601F03BFC0A4B13B12046AFF3008055
:104C4C0000210748FFF7C8FC00210648BDE83840A2
:104C5C00FFF74EBC00F403201E1C279A04E403202B
:104C6C0000000000E54B0D0070470020704710B5A8
:104C7C001021044600F0FBFD204610BD08B508B11C
:104C8C00FFF7F5FF08BD0022026010B54FF69C72CD
:104C9C008280B1F9044084808A8002680C680460C8
:104CAC000A6010BD10B504460068FFF7A5FC20464D
:104CBC0010BD38B5C468F4B12378022B03D104F1CC
:104CCC000C00FFF7EFFF656835B12846FFF717FFBB
:104CDC001021284600F0CBFDA56835B12846FFF71A
:104CEC000EFF1021284600F0C2FD20461421BDE81D
:104CFC00384000F0BCBD38BD13B5044691E8050042
:104D0C0000234B600B602060626001A8019300934C
:104D1C00FFF773FD204602B010BDF7B50C4602AD8F
:104D2C0054F8043B45F8083D06460F4601A82146B9
:104D3C00FFF75CFD29463046FFF7DEFF01A8FFF7C1
:104D4C005CFD2046FFF759FD3846082100F08FFD29
:104D5C00304603B0F0BD000038B5002304460360B4
:104D6C0010200D46FFF791F928B1012343608360B1
:104D7C00024B0360C5602060204638BDFC670D0007
:104D8C00826810B50AB900F074FDC368BDE8104024
:104D9C00184708B5006800F11001FFF7F1FF08BDD6
:104DAC00826810B50AB900F064FDC368BDE8104014
:104DBC00184708B5006800F11001FFF7F1FF08BDB6
:104DCC0038B5002383608B6804460D462BB1022254
:104DDC009847EB68E360AB68A360204638BD0000E1
:104DEC00F0B589B004686846FFF74DFF00238DF8D5
:104DFC0008304FF00202D4E84F3F002B03D1C4E837
:104E0C00412F0029F7D102D08DF8083063E014F15E
:104E1C000C0503D069462846FFF735FFBFF35F8FBB
:104E2C0001236370002004F10803BFF35F8F53E884
:104E3C00006F43E80002002AF9D1BFF35F8F002E08
:104E4C0049D0FFF745FB20B129463046FFF798FFC4
:104E5C003AE0314602A8FFF7B3FFE068B4F910500E
:104E6C0008B101F04BFB06901020ADF81C50FFF779
:104E7C000CF90546E8B1002787601820FFF705F903
:104E8C00044688B10146876002A8FFF747FE049BE1
:104E9C00A268A360059B049206A9E268E36004F192
:104EAC0010000592FFF7EFFE0D4BEB600D4B2C60E5
:104EBC00AB6006A8FFF7F6FE02A8FFF720FE002263
:104ECC0029460948FFF70CFB3046FFF718FE102166
:104EDC00304600F0CCFC6846FFF7E4FE09B0F0BDAC
:104EEC009F4D0D0015500D0085550D002DE9F04F0F
:104EFC008BB006460F46904699469DF850A0FFF79A
:104F0C005BFB07AD834630BB4FF62E73059005A9AE
:104F1C002846ADF81830FFF7B6FE1420FFF7B5F8A9
:104F2C00044658B10223037001234370C0F804B047
:104F3C00C0F808B029460C30FFF7A5FE30462146D4
:104F4C0040F8044BFFF708FF2846FFF7ABFE05A817
:104F5C00FFF7A8FE52E000240C2314206C60AC6018
:104F6C000793FFF792F8014618B10470447044603F
:104F7C00846004A80391FFF7EFFE224B08930820EE
:104F8C00FFF783F8044628B1039B40F8043B04A9BF
:104F9C00FFF72CFC00955FFA8AF34A4641463846E7
:104FAC000994FFF711FB20B9039B5B7803F0FF0218
:104FBC0083B1039B059304A906A8FFF717FC05A969
:104FCC003046FFF799FE06A8FFF717FC04A8FFF779
:104FDC0014FC13E04FF69C7305A903A80592ADF8D9
:104FEC001830FFF7FDFE05A8FFF75CFE05A8099930
:104FFC00FFF793FE06A8FFF700FCDAE730460BB08C
:10500C00BDE8F08F85510D00022AF8B5044606D094
:10501C00032A17D0012A22D10B6803601FE0182045
:10502C000E68FFF732F8054650B13146FFF7C8FE5F
:10503C003069B6F9147008B101F060FA2861AF82DA
:10504C0025600CE0046854B104F11000FFF72AFE4F
:10505C002046FFF754FD1821204600F008FC0020E4
:10506C00F8BD38B5002383608B6804460D462BB120
:10507C0002229847EB68E360AB68A360204638BD1A
:10508C00022A70B5044606D0032A11D0012A18D181
:10509C000B68036015E014200E68FEF7F6FF05465A
:1050AC0020B13146FFF7DDFF337C2B74256008E01F
:1050BC00046834B12046FFF722FD1421204600F08D
:1050CC00D6FB002070BD0000F0B5002387B00C4665
:1050DC00BFF35F8F50E8006F40E80032002AF9D12F
:1050EC00BFF35F8F002E3FD01846FFF7F1F907464C
:1050FC0020B121463046FFF753FE2EE0314601A881
:10510C00FFF7AFFF23788DF814301020FEF7BDFFAA
:10511C000546D0B187601420FEF7B7FF044678B17E
:10512C008760014601A8FFF7F9FC039BA268A36006
:10513C00049B0392E268E3609DF81430049223749C
:10514C000A4BEB600A4B2C60AB6001A8FFF7D7FC55
:10515C00002229460748FFF7C3F93046FFF7CFFC7A
:10516C001021304600F083FB07B0F0BDBF4D0D00A1
:10517C008D500D0085550D0030B585B004460D469B
:10518C0068461146FFF7C9FD7CB124B228460DB123
:10519C0001F0B4F9029002A96846ADF80C40FFF793
:1051AC001FFE02A8FFF77EFD1DE000988DF8084059
:1051BC004FF00102D0E84F3FA34203D1C0E8412F8A
:1051CC000029F7D102D08DF808300CE010F10C0159
:1051DC004FF0010318BF0373BFF35F8F043000F867
:1051EC00033CFFF771FF01A8FFF707FB05B030BDCB
:1051FC00704710B51821044600F039FB204610BD4D
:10520C00F0B5037D062B8DB00E4600F104074FF070
:10521C00000402D000F1080518E00CAD394605F881
:10522C00304D2F232A460A20FFF7CAF8284601F0F2
:10523C0080F933680246DB682946304698470FE010
:10524C0024B12E213046FFF723FB044415F8011D31
:10525C000A223046FFF735FBBD420444F0D120460C
:10526C000DB0F0BD10B5054B0446112240F8043BBF
:10527C00002101F012F9204610BD00BF18680D0086
:10528C000346074A10B543F8042B01F1100251F8FC
:10529C00044B43F8044B9142F9D10A781A7010BDB3
:1052AC0018680D0010B59DF8084044EA032343EA42
:1052BC00024242EA016104234160037510BD37B517
:1052CC000D788B784A78C97800912946FFF7EAFF68
:1052DC0003B030BD41747047704708B50021007CA5
:1052EC00FFF7CEF830EA200028BF4FF0FF3008BDA2
:1052FC0008B50121007CFFF7C3F830EA200028BF75
:10530C004FF0FF3008BD08B5007CFFF7B1F820EA7C
:10531C00E07008BD08B5007CFFF7A2F820EAE07049
:10532C0008BD007CFFF7BCB810B51421044600F092
:10533C009EFA204610BD38B50446007C0D46FFF79A
:10534C0097F8002801DC607C28B12946207CFFF707
:10535C009FF820EAE07038BD10B504460023636066
:10536C004FF47A73A360054B236001230846217424
:10537C0063741146FFF764F8204610BD2C680D00CD
:10538C000022007CFFF764B810B5142204460021FB
:10539C0001F083F8204610BD30B50E4D87B001A842
:1053AC00FFF7F2FF296811F0010410D12846FEF72F
:1053BC0072FE60B101AA21460748FFF7CDFF2846CF
:1053CC00FEF76EFE054A0649034800F04BFA024808
:1053DC0007B030BD08E403200CE40320A0E3032055
:1053EC00E5520D00002211464068FFF7ADB80022CF
:1053FC0011464068FFF7C8B8002211464068FFF715
:10540C00D3B800224068FFF7C7B8002281F0010131
:10541C004068FFF7B1B800231A4619464068FFF7F9
:10542C00A3B800231A4619464068FFF795B8002226
:10543C0011464068FFF778B8002202214068FFF758
:10544C007BB800231A464068FFF766B838B5084C9D
:10545C0028252A460021204601F01FF84FF0FF3383
:10546C006360044B258004225A60034A1A6038BDDD
:10547C0028E4032020E403205C680D00704741748D
:10548C00704708B5007CFEF7D3FF20EAE07008BD3A
:10549C0008B5007CFEF7ACFF20EAE07008BD08B54B
:1054AC00007CFEF7B5FF30EA200028BF4FF0FF303C
:1054BC0008BD08B5007CFEF7A3FF30EA200028BF2A
:1054CC004FF0FF3008BD007CFEF7AABF10B51421C9
:1054DC00044600F0CCF9204610BD70B5457C04465E
:1054EC000E4625B9007CFEF7A3FF002805DD3146EA
:1054FC00207CBDE87040FEF773BF284670BD0000ED
:10550C0010B5044608461146002262604FF47A72C8
:10551C00A260054A22600122207462741A46FEF7CA
:10552C0057FF204610BD00BF90680D0038B50C4DDC
:10553C00296811F0010411D12846FEF7ACFD68B1C1
:10554C00084A094B09482146FFF7DAFF2846FEF7BF
:10555C00A7FD074A0749054800F084F9034838BD00
:10556C00E8E40320ECE4032064E4032050E403208B
:10557C00A0E3032089540D0010B5836804460BB9D1
:10558C0000F077F9C3689847A3681BB10322214642
:10559C002046984720461021BDE8104000F067B91E
:1055AC00002211464068FEF7EFBF0022114640680A
:1055BC00FEF7FABF00224068FEF7EEBF002281F032
:1055CC0001014068FEF7D8BF00231A46012140684C
:1055DC00FEF7CABF00231A4619464068FEF7BCBF47
:1055EC00002211464068FEF7AFBF0022114640680A
:1055FC00FEF79ABF002202214068FEF79DBF0023F0
:10560C001A464068FEF788BF38B5054688B104686D
:10561C004CB1A3681BB103222146204698471021A8
:10562C00204600F024F928461421BDE8384000F04B
:10563C001EB938BD10B103685B681847704710B5C8
:10564C0003680446BBB15868FEF792FE78B923682C
:10565C005A7C12B95868FEF793FE23685868FEF717
:10566C0097FE20680023236028B1FFF7CDFF206848
:10567C0008B1FFF7C9FF204610BD38B50446D0F875
:10568C00C40108B1FEF705FDD4F8C00108B1FEF75E
:10569C008FFED4F8BC5135B12846FFF7D0FF04215A
:1056AC00284600F0E4F8206808B1FFF7C3FF204655
:1056BC0038BD000010B5044B044640F8083BFFF71A
:1056CC00DCFF204610BD00BFC0680D0038B50E4C85
:1056DC000E4B23600025022304F5E4706360A56083
:1056EC00C4F8C451C4F8C851FEF75AFE084BC4F8AC
:1056FC00CC5184F8D05123602046064A0649BDE8B7
:10570C00384000F0AFB800BF70E50320F4680D001E
:10571C00C0680D00A0E30320C1560D0000231A46FB
:10572C004068FEF7F9BE002202214068FEF704BF74
:10573C00002211464068FEF7F7BE00221146406871
:10574C00FEF702BF00231A4619464068FEF704BF55
:10575C0000231A4619464068FEF706BF002281F066
:10576C0001014068FEF708BF00224068FEF714BF35
:10577C00002211464068FEF717BF00221146406810
:10578C00FEF702BF2DE9F043002495B016460D46F6
:10579C000746FFF767FD214620220CA8009400F075
:1057AC007CFE40230C9321466B460CAA3046FEF738
:1057BC00BFFD0446002844D1024601216868FEF76B
:1057CC00C3FE0221804622466868FEF7BDFE009E9D
:1057DC0081462146002E34D0002932D17368022B29
:1057EC0002D00A2B09D02AE0B8F1000F27D071693A
:1057FC0038460431FFF763FD20E0B9F1000F1ED0ED
:10580C007469112201A800F048FE06238DF81430AB
:10581C0001AD04F108031834186859682A4603C20C
:10582C000833A3421546F7D101A906A807ADFFF727
:10583C0027FD0FCD3C1D0FC42B6823700121F66989
:10584C00C8E70098FEF76CFD384615B0BDE8F0834C
:10585C00024B034A1A6000225A60704744E7032047
:10586C00F4680D000B460146184600F0FDBDFEF72E
:10587C000EBC08B5FEF7D0FE184B1A68D1075CBFFA
:10588C0001221A60164B1A68D2075CBF01221A60FB
:10589C00144B1A68D0075CBF01221A60124B1A68AD
:1058AC00D1075CBF01221A60104B1A68D2075CBF8B
:1058BC0001221A600E4B1A68D0075CBF01221A60D5
:1058CC000C4B1A68D1075CBF01221A600A4B1A688C
:1058DC00D2075CBF01221A60704700BF6CE703203F
:1058EC0068E7032064E7032060E703205CE70320FC
:1058FC0058E7032054E7032050E70320244B1A6891
:10590C00D0075CBF01221A60224B1A68D1075CBF1A
:10591C0001221A60204B1A68D2075CBF01221A6060
:10592C001E4B1A68D0075CBF01221A601C4B1A6808
:10593C00D1075CBF01221A601A4B1A68D2075CBFF0
:10594C0001221A60184B1A68D0075CBF01221A603A
:10595C00164B1A68D1075CBF01221A60144B1A68E7
:10596C00D2075CBF01221A60124B1A68D0075CBFC9
:10597C0001221A60104B1A68D1075CBF01221A6011
:10598C000E4B1A68D2075CBF01221A60704700BF29
:10599C009CE7032098E7032094E7032090E703207B
:1059AC008CE7032088E7032084E7032080E70320AB
:1059BC007CE7032078E7032074E7032070E70320DB
:1059CC00244B1A68D0075CBF01221A60224B1A685C
:1059DC00D1075CBF01221A60204B1A68D2075CBF4A
:1059EC0001221A601E4B1A68D0075CBF01221A6094
:1059FC001C4B1A68D1075CBF01221A601A4B1A683B
:105A0C00D2075CBF01221A60184B1A68D0075CBF22
:105A1C0001221A60164B1A68D1075CBF01221A606A
:105A2C00144B1A68D2075CBF01221A60124B1A6819
:105A3C00D0075CBF01221A60104B1A68D1075CBFFB
:105A4C0001221A600E4B1A68D2075CBF01221A6041
:105A5C00704700BFCCE70320C8E70320C4E703204E
:105A6C00C0E70320BCE70320B8E70320B4E703201A
:105A7C00B0E70320ACE70320A8E70320A4E703204A
:105A8C00A0E70320184B1A68D1075CBF01221A60EB
:105A9C00164B1A68D2075CBF01221A60144B1A68A5
:105AAC00D0075CBF01221A60124B1A68D1075CBF89
:105ABC0001221A60104B1A68D2075CBF01221A60CF
:105ACC000E4B1A68D0075CBF01221A600C4B1A6887
:105ADC00D1075CBF01221A600A4B1A68D2075CBF5F
:105AEC0001221A60704700BFECE70320E8E70320AF
:105AFC00E4E70320E0E70320DCE70320D8E70320FA
:105B0C00D4E70320D0E7032081F0004102E000BF7E
:105B1C0083F0004330B54FEA41044FEA430594EA61
:105B2C00050F08BF90EA020F1FBF54EA000C55EA9C
:105B3C00020C7FEA645C7FEA655C00F0E2804FEA6D
:105B4C005454D4EB5555B8BF6D420CDD2C4480EA4F
:105B5C00020281EA030382EA000083EA010180EA7F
:105B6C00020281EA0303362D88BF30BD11F0004FCD
:105B7C004FEA01314FF4801C4CEA113102D0404203
:105B8C0061EB410113F0004F4FEA03334CEA13333E
:105B9C0002D0524263EB430394EA050F00F0A78056
:105BAC00A4F10104D5F1200E0DDB02FA0EFC22FA51
:105BBC0005F2801841F1000103FA0EF2801843FA45
:105BCC0005F359410EE0A5F120050EF1200E012A36
:105BDC0003FA0EFC28BF4CF0020C43FA05F3C01874
:105BEC0051EBE37101F0004507D54FF0000EDCF1ED
:105BFC00000C7EEB00006EEB0101B1F5801F1BD396
:105C0C00B1F5001F0CD349085FEA30004FEA3C0C99
:105C1C0004F101044FEA445212F5800F80F09A808F
:105C2C00BCF1004F08BF5FEA500C50F1000041EB93
:105C3C00045141EA050130BD5FEA4C0C404141EB97
:105C4C00010111F4801FA4F10104E9D191F0000FBE
:105C5C0004BF01460020B1FA81F308BF2033A3F141
:105C6C000B03B3F120020CDA0C3208DD02F1140C38
:105C7C00C2F10C0201FA0CF021FA02F10CE002F173
:105C8C001402D8BFC2F1200C01FA02F120FA0CFC6C
:105C9C00DCBF41EA0C019040E41AA2BF01EB0451B5
:105CAC00294330BD6FEA04041F3C1CDA0C340EDCB3
:105CBC0004F11404C4F1200220FA04F001FA02F3F6
:105CCC0040EA030021FA04F345EA030130BDC4F1B4
:105CDC000C04C4F1200220FA02F001FA04F340EAA9
:105CEC000300294630BD21FA04F0294630BD94F05A
:105CFC00000F83F4801306BF81F480110134013D41
:105D0C004EE77FEA645C18BF7FEA655C29D094EAB1
:105D1C00050F08BF90EA020F05D054EA000C04BF2F
:105D2C001946104630BD91EA030F1EBF002100201A
:105D3C0030BD5FEA545C05D14000494128BF41F0B9
:105D4C00004130BD14F580043CBF01F5801130BD1D
:105D5C0001F0004545F0FE4141F470014FF00000A8
:105D6C0030BD7FEA645C1ABF194610467FEA655C59
:105D7C001CBF0B46024650EA013406BF52EA0335FB
:105D8C0091EA030F41F4002130BD00BF90F0000FE9
:105D9C0004BF0021704730B54FF4806404F1320425
:105DAC004FF000054FF0000150E700BF90F0000FDE
:105DBC0004BF0021704730B54FF4806404F1320405
:105DCC0010F0004548BF40424FF000013EE700BFD5
:105DDC0042004FEAE2014FEA31014FEA02701FBF65
:105DEC0012F07F4393F07F4F81F06051704792F037
:105DFC00000F14BF93F07F4F704730B54FF46074B1
:105E0C0001F0004521F0004120E700BF50EA0102FB
:105E1C0008BF704730B54FF000050AE050EA0102A8
:105E2C0008BF704730B511F0004502D5404261EB18
:105E3C0041014FF4806404F132045FEA915C3FF459
:105E4C00DCAE4FF003025FEADC0C18BF03325FEAF2
:105E5C00DC0C18BF033202EBDC02C2F1200300FAA7
:105E6C0003FC20FA02F001FA03FE40EA0E0021FACC
:105E7C0002F11444C1E600BF70B54FF0FF0C4CF4B6
:105E8C00E06C1CEA11541DBF1CEA135594EA0C0F6C
:105E9C0095EA0C0F00F0DEF82C4481EA030621EAA7
:105EAC004C5123EA4C5350EA013518BF52EA0335E2
:105EBC0041F4801143F4801338D0A0FB02CE4FF094
:105ECC000005E1FB02E506F00042E0FB03E54FF0C4
:105EDC000006E1FB03569CF0000F18BF4EF0010EBC
:105EEC00A4F1FF04B6F5007F64F5407404D25FEAB8
:105EFC004E0E6D4146EB060642EAC62141EA55516B
:105F0C004FEAC52040EA5E504FEACE2EB4F1FD0CAC
:105F1C0088BFBCF5E06F1ED8BEF1004F08BF5FEA2A
:105F2C00500E50F1000041EB045170BD06F00046DC
:105F3C0046EA010140EA020081EA0301B4EB5C0489
:105F4C00C2BFD4EB0C0541EA045170BD41F4801181
:105F5C004FF0000E013C00F3AB8014F1360FDEBFA6
:105F6C00002001F0004170BDC4F10004203C35DA82
:105F7C000C341BDC04F11404C4F1200500FA05F305
:105F8C0020FA04F001FA05F240EA020001F00042A6
:105F9C0021F0004110EBD37021FA04F642EB06011C
:105FAC005EEA430E08BF20EAD37070BDC4F10C0446
:105FBC00C4F1200500FA04F320FA05F001FA04F20A
:105FCC0040EA020001F0004110EBD37041F10001F6
:105FDC005EEA430E08BF20EAD37070BDC4F1200501
:105FEC0000FA05F24EEA020E20FA04F301FA05F269
:105FFC0043EA020321FA04F001F0004121FA04F211
:10600C0020EA020000EBD3705EEA430E08BF20EAE0
:10601C00D37070BD94F0000F0FD101F0004640001A
:10602C0041EB010111F4801F08BF013CF7D041EA9C
:10603C00060195F0000F18BF704703F000465200A0
:10604C0043EB030313F4801F08BF013DF7D043EA71
:10605C000603704794EA0C0F0CEA135518BF95EA27
:10606C000C0F0CD050EA410618BF52EA4306D1D1AE
:10607C0081EA030101F000414FF0000070BD50EACD
:10608C00410606BF1046194652EA430619D094EA57
:10609C000C0F02D150EA013613D195EA0C0F05D141
:1060AC0052EA03361CBF104619460AD181EA030195
:1060BC0001F0004141F0FE4141F470014FF000004D
:1060CC0070BD41F0FE4141F4780170BD70B54FF0E8
:1060DC00FF0C4CF4E06C1CEA11541DBF1CEA135568
:1060EC0094EA0C0F95EA0C0F00F0A7F8A4EB05044A
:1060FC0081EA030E52EA03354FEA013100F0888041
:10610C004FEA03334FF0805545EA131343EA126309
:10611C004FEA022245EA111545EA10654FEA0026BE
:10612C000EF000419D4208BF964244F1FD0404F577
:10613C00407402D25B084FEA3202B61A65EB0305D3
:10614C005B084FEA32024FF480104FF4002CB6EB90
:10615C00020E75EB030E22BFB61A754640EA0C0010
:10616C005B084FEA3202B6EB020E75EB030E22BF50
:10617C00B61A754640EA5C005B084FEA3202B6EB91
:10618C00020E75EB030E22BFB61A754640EA9C0050
:10619C005B084FEA3202B6EB020E75EB030E22BF20
:1061AC00B61A754640EADC0055EA060E18D04FEADE
:1061BC00051545EA16754FEA06164FEAC30343EA7E
:1061CC0052734FEAC2025FEA1C1CC0D111F4801F4B
:1061DC000BD141EA00014FF000004FF0004CB6E744
:1061EC0011F4801F04BF01430020B4F1FD0C88BFE3
:1061FC00BCF5E06F3FF6AFAEB5EB030C04BFB6EBEE
:10620C00020C5FEA500C50F1000041EB045170BDE0
:10621C000EF0004E4EEA113114EB5C04C2BFD4EB0D
:10622C000C0541EA045170BD41F480114FF0000E91
:10623C00013C90E645EA060E8DE60CEA135594EA0D
:10624C000C0F08BF95EA0C0F3FF43BAF94EA0C0F10
:10625C000AD150EA01347FF434AF95EA0C0F7FF485
:10626C0025AF104619462CE795EA0C0F06D152EAD9
:10627C0003353FF4FDAE1046194622E750EA4106BD
:10628C0018BF52EA43067FF4C5AE50EA41047FF4CE
:10629C000DAF52EA43057FF4EBAE12E74FF0FF3C33
:1062AC0006E000BF4FF0010C02E000BF4FF0010C04
:1062BC004DF804CD4FEA410C7FEA6C5C4FEA430C7D
:1062CC0018BF7FEA6C5C1BD001B050EA410C0CBFCC
:1062DC0052EA430C91EA030F02BF90EA020F00202E
:1062EC00704710F1000F91EA030F58BF994208BF95
:1062FC0090422CBFD8176FEAE37040F00100704752
:10630C004FEA410C7FEA6C5C02D150EA013C07D1A8
:10631C004FEA430C7FEA6C5CD6D152EA033CD3D0F3
:10632C005DF8040B704700BF8446104662468C46ED
:10633C001946634600E000BF01B5FFF7B7FF002820
:10634C0048BF10F1000F01BD4DF808EDFFF7F4FF49
:10635C000CBF012000205DF808FB00BF4DF808EDD4
:10636C00FFF7EAFF34BF012000205DF808FB00BFF7
:10637C004DF808EDFFF7E0FF94BF012000205DF819
:10638C0008FB00BF4DF808EDFFF7CEFF94BF0120CE
:10639C0000205DF808FB00BF4DF808EDFFF7C4FFC7
:1063AC0034BF012000205DF808FB00BF4FEA410C10
:1063BC007FEA6C5C02D150EA013C0AD14FEA430CF3
:1063CC007FEA6C5C02D152EA033C02D14FF0000030
:1063DC0070474FF0010070474FEA410212F500126E
:1063EC0015D211D56FF47873B3EB625212D94FEA10
:1063FC00C12343F0004343EA505311F0004F23FAFA
:10640C0002F018BF404270474FF00000704750EA4E
:10641C00013005D111F0004008BF6FF0004070470B
:10642C004FF00000704700BF4A0011D212F5001265
:10643C0011D20DD56FF47873B3EB62520ED44FEAD0
:10644C00C12343F0004343EA505323FA02F0704750
:10645C004FF00000704750EA013002D14FF0FF308E
:10646C0070474FF00000704710B5054C13462CB127
:10647C000A4601460220AFF3008010BD204610BD35
:10648C000000000010B5431E0A44914204D011F8DC
:10649C00014B03F8014FF8E710BD02440346934249
:1064AC0002D003F8011BFAE77047000038B5124B15
:1064BC001C68A36B0546D3B91820FEF795F843F278
:1064CC000E33A06303804AF6CD33438041F234236C
:1064DC0083804EF26D63C3804DF6EC63038105231C
:1064EC0043810B23838101220023C0E90423A36B86
:1064FC0000221D615A6138BD9CE30320024B01460A
:10650C00186800F003B800BF9CE3032070B5064682
:10651C0008460C4600F00DF8451C29463046FEF79F
:10652C0083F8064618B12A462146FFF7ABFF3046E2
:10653C0070BD034613F8012B002AFBD1181A013841
:10654C00704700001D400D0059400D0085400D00A6
:10655C0089400D00000000007477696C696F5F73EF
:10656C006D730053656E64696E674D657373616717
:10657C006500546865206368696C642069732069E0
:10658C006E2074686520636172206966207468658A
:10659C002061766572616765203C20333A202000CB
:1065AC006368696C6420696E206361720053656E68
:1065BC0064696E67206D65737361676520626563DE
:1065CC006175736520636172207475726E656420E9
:1065DC006F666620616E64206368696C6420697301
:1065EC0020696E20746865206361720054686520B0
:1065FC0074656D7065726174757265206973207253
:10660C006973696E6720746F6F20666173743A20CA
:10661C00200020696E20746865206C6173742036CC
:10662C0030207365636F6E64730053656E64696EBE
:10663C0067206D657373616765206265636175734F
:10664C00652074656D70657261747572652069730F
:10665C0020746F6F20686F740053656E64696E6789
:10666C00206D657373616765206265636175736521
:10667C002074656D7020697320637269746963613D
:10668C006C00596F7572206368696C6420697320A3
:10669C00696E207468652063617200000000000060
:1066AC0000000000A3460D0099460D008F460D001A
:1066BC0085460D0079460D006D460D0061460D00B6
:1066CC0059460D004F460D0045460D0091570D00E3
:1066DC006E616E006F7666002E00696E66006261F8
:1066EC0075640053657269616C0053657269616C05
:1066FC0031007479706500706172616D00636D6456
:10670C0000696400686E64007374726D0066696C75
:10671C0074006C766C0061646448616E646C6572C4
:10672C000072656D6F766548616E646C65720065AC
:10673C006E756D48616E646C657273004A534F4E92
:10674C0053747265616D4C6F6748616E646C6572F1
:10675C000061707000253031307520005D200025FF
:10676C0064002C200028293A2000205B00636F6411
:10677C0065203D200025690064657461696C732097
:10678C003D20000D0A006C6E00666E00636F646540
:10679C000064657461696C006E6F6E650074726183
:1067AC00636500696E666F007761726E0065727268
:1067BC006F720070616E696300616C6C005A002529
:1067CC002B3033643A253032750025592D256D2D2B
:1067DC0025645425483A254D3A2553257A00617392
:1067EC006374696D6500000000000000000000008B
:1067FC00754C0D007B4C0D00BF4C0D00894C0D00F1
:10680C00774C0D0000000000000000000D520D0040
:10681C00FD510D00FF510D000000000000000000B4
:10682C00E5520D0035530D0043530D0049480D0042
:10683C0021530D00E7520D00FD520D002F530D009A
:10684C0013530D00E1520D00000000000000000089
:10685C004F540D0045540D003B540D00F1530D00E9
:10686C002F540D0023540D0017540D000F540D0020
:10687C0005540D00FB530D0091570D000000000056
:10688C000000000089540D00D9540D00E7540D0090
:10689C0049480D009D540D00BF540D00AB540D0024
:1068AC00D3540D008B540D008F540D0000000000CC
:1068BC00000000000B560D0001560D00F7550D00A1
:1068CC00ED550D00E1550D00D5550D00C9550D00C8
:1068DC00C1550D00B7550D00AD550D0091570D006C
:1068EC00000000000000000029570D0033570D0078
:1068FC003D570D0047570D0051570D005D570D00CA
:10690C0069570D0075570D007D570D0087570D0009
:10691C0091570D0000000000000000000000000076
:10692C00000000000000000000000000000000005B
:10693C00000000000000000000000000000000004B
:10694C00000000000000000000000000000000003B
:10695C00000000000000000000000000000000002B
:10696C00000000000000000000000000000000001B
:10697C000000000043000000F5420D00AD460D0084
:10698C00E1460D0021480D00E14A0D00F14A0D00D1
:10699C00494B0D0059540D00D9560D005D580D0092
:1069AC0085580D0009590D00CD590D00915A0D0057
:0469BC0000000000D7
:0469C00000000000D3
:1069C4000000803F0000803F0000803F0000803FC7
:1069D4000000803F0000484200005C42000070421A
:1069E4000000824200008C42EA670D0000000000B3
:1069F40020690D0040690D0060690D000000000071
:106A040000000000000000000000000080690D008C
:106A14000000000000000000000000000000000072
:106A24000000000000000000000000000000000062
:106A34000000000000000000000000000000000052
:106A44000000000000000000000000003CE3032000
:106A5400FFFFFFFF00000102030405060708090AFF
:106A64000B0C0D0E0F101112131415161718191AFA
:086A74001B1C1D1E1F20280041
:046A7C007856341202
:04000003D000401CCD
:00000001FF
