:02000002D0002C
:1040000000400D00246A0D00000006000D000501AF
:084010000401DE0500000000C0
:044018000C650D0026
:10401C0009480A49884208B505D0094A824202D0AB
:10402C00121A02F00DFA0748074A0021121A02F080
:10403C0012FA014808BD00BF10E3032064690D00AB
:10404C00A8E30320A8E30320F0E7032070B500F0F9
:10405C00BDFD074C074BE41AA40800251E46A542DB
:10406C0004D056F8253098470135F8E770BD00BFED
:10407C005C690D0024690D0000F015B808B500F05E
:10408C0045F8BDE8084000F063BD00F09BBA00F0B5
:10409C00A1BA00F09FBA0078B0FA80F040097047DE
:1040AC0001230370704708B501F054F94FF4165111
:1040BC00BDE8084001F042B91FB5114B02681B78EE
:1040CC008DF800300F493C2302A800F0EDFE039C54
:1040DC007CB16368013B63605BB9236820469B68D5
:1040EC009847A368013BA3601BB923682046DB6893
:1040FC00984701F02FF9044900F0C7FB04B010BD3C
:10410C00C4E3032020650D002B650D0010B55B4B3F
:10411C00DFED5B7A2DED028B03F11402B3EC017A27
:10412C00934277EE877AF9D1B1EE048A87EE887ADA
:10413C00544B554CC3ED007A84ED007A01F00AF92A
:10414C00524900F08FFB01F005F9022194ED000AB1
:10415C0000F08FFC94ED007AF0EE087AB4EEE77A7A
:10416C00F1EE10FA40F1828001F0F4F8484900F0C9
:10417C008CFB484B93ED007AF7EE007AB4EE677A3D
:10418C00F1EE10FA0ED1D3ED017AF5EE407AF1EEA4
:10419C0010FA07D14048FFF78FFF01F0DBF83F49D9
:1041AC0000F073FB3E4B93ED007AD3ED047A77EE7F
:1041BC00C77AB2EE047AF4EEC77AF1EE10FA07DBA6
:1041CC003548FFF779FF01F0C5F8364900F05DFB83
:1041DC00334BDFED2B7A03F11402B3EC017A9A42E4
:1041EC0077EE877AF9D187EE887A2F4B2F4CC3ED77
:1041FC00007ADFED2F7A84ED007AB4EEE77AF1EEF7
:10420C0010FA9FED2C8A0CDBB4EEC87AF1EE10FAA2
:10421C0007D52148FFF750FF01F09CF8264900F024
:10422C0034FBD4ED007AF4EEC87AF1EE10FA9FED7F
:10423C00238A0CDBF4EEC87AF1EE10FA07D5164897
:10424C00FFF73AFF01F086F81D4900F01EFBD4ED94
:10425C00007AF4EEC87AF1EE10FA07DB0E48FFF79D
:10426C002BFF01F077F8164900F00FFBBDEC028B29
:10427C004FF4FA60BDE8104000F01CBC18E30320BA
:10428C0000000000BCE30320CCE303203A650D00E2
:10429C0067650D0010E30320ACE3032074650D008B
:1042AC002CE30320B3650D00C0E30320C8E3032017
:1042BC000000A0420000B442D6650D000000C842C8
:1042CC0005660D0010B5084B084C01221A7000F061
:1042DC0025F80749204600F04CFA2046054A0649C5
:1042EC00BDE8104001F09CBAC4E30320ACE303200A
:1042FC002E660D00A8E30320F1460D0008B5024B15
:10430C001B689B68019308BD6802030008B5024B4B
:10431C001B68DB68019308BD6802030008B5024BFB
:10432C001B681B68019308BD2C02030008B5024BE7
:10433C001B685B68019308BD1802030008B5024BAB
:10434C001B685B69019308BD1802030008B5024B9A
:10435C001B689B68019308BD4802030008B5024B1B
:10436C001B681B69019308BD4802030008B5024B8A
:10437C001B685B69019308BD4802030008B5024B3A
:10438C001B685B6C019308BD4802030008B5024B27
:10439C001B689B6C019308BD4802030008B5024BD7
:1043AC001B685B69019308BD6402030008B5024BEE
:1043BC001B681B68019308BD3C02030008B5024B47
:1043CC001B68DB68019308BD3C02030008B5024B77
:1043DC001B681B69019308BD3C02030008B5024B26
:1043EC001B685B69019308BD3C02030008B5024BD6
:1043FC001B689B69019308BD3C02030008B5024B86
:10440C001B68DB69019308BD3C02030008B5024B35
:10441C001B689B6A019308BD3C02030008B5024B64
:10442C001B681B68019308BD4C02030008B5024BC6
:10443C001B685B68019308BD4C02030008B5024B76
:10444C001B681B69019308BD4C02030008B5024BA5
:10445C001B685B69019308BD4C02030008B5024B55
:10446C001B689B69019308BD4C02030008B5024B05
:10447C001B68DB69019308BD4C02030008B5024BB5
:10448C001B681B6A019308BD4C02030008B5024B64
:10449C001B685B68019308BD2002030008B5024B42
:1044AC001B685B69019308BD2002030008B5024B31
:1044BC001B68DB6C019308BD2002030008B5024B9E
:1044CC001B685B6D019308BD2002030008B5034B0C
:1044DC001B68D3F88830019308BD0000200203004C
:1044EC0008B5034B1B68D3F89430019308BD00004A
:1044FC002002030008B5024B1B685B68019308BDE2
:10450C004002030008B5024B1B689B68019308BD71
:10451C004002030008B5024B1B68DB68019308BD21
:10452C004002030008B5024B1B681B69019308BDD0
:10453C004002030008B5024B1B685B69019308BD80
:10454C004002030008B5024B1B689B69019308BD30
:10455C004002030008B5024B1B68DB69019308BDE0
:10456C004002030008B5024B1B681B6A019308BD8F
:10457C004002030008B5024B1B681B6B019308BD7E
:10458C004002030008B5024B1B685B6B019308BD2E
:10459C004002030008B5024B1B685B69019308BD20
:1045AC004402030008B5024B1B681B6A019308BD4B
:1045BC004402030008B5024B1B68DB6B019308BD7A
:1045CC004402030008B5024B1B681B68019308BD2D
:1045DC001C02030008B5024B1B685B68019308BD05
:1045EC001C02030008B5024B1B689B68019308BDB5
:1045FC001C02030008B5024B1B68DB6A019308BD63
:10460C001C02030008B5024B1B681B6B019308BD11
:10461C001C020300002211464068FFF7A3BF0022D2
:10462C0011464068FFF7AEBF00224068FFF7A2BFFB
:10463C00002281F001014068FFF78CBF00231A466D
:10464C0019464068FFF77EBF00231A46194640689A
:10465C00FFF770BF002211464068FFF763BF0022CE
:10466C0011464068FFF74EBF002202214068FFF759
:10467C0051BF00231A464068FFF73CBF024B032290
:10468C005A60024A1A607047D0E3032050660D004E
:10469C0010B50446006818B1FFF79CFF0023236097
:1046AC0010BD10B50446FFF7F3FF204610BD000007
:1046BC0010B5094C00204FF6FF732060A080A0714C
:1046CC0020816381FFF7E2FE2046044A0449BDE8DD
:1046DC00104001F0A5B800BFD8E30320A8E30320E5
:1046EC00AF460D0010B504460068FFF773FF204677
:1046FC0010BD10B50446006808B1FFF76BFF00232E
:10470C002360A360636010BD38B504460D46006895
:10471C000131FFF767FF10B184E82100012038BD9B
:10472C0010B50368044613B143688B4207D2204688
:10473C00FFF7EAFF20B1A3680BB9226813700120C0
:10474C0010BD70B50E46114604461546FFF7E8FF3E
:10475C0018B92046FFF7CDFF09E02A463146A5607F
:10476C00206801F06DFE2268A3680021D154204618
:10477C0070BD38B500230446036043608360037347
:10478C000D4639B1084601F0B2FE294602462046D4
:10479C00FFF7D7FF204638BD10B50446006808B1B6
:1047AC00FFF7F4FD204610BD10B5036804469B6866
:1047BC009847A368013BA3602BB923682046DB68AC
:1047CC00BDE81040184710BD0B68036013B15A6860
:1047DC0001325A60704710B50446006828B143682E
:1047EC00013B43600BB9FFF7DFFF204610BD000013
:1047FC0010B5064C002320462360FFF7BFFD204672
:10480C00034A0449BDE8104001F00AB8E4E3032070
:10481C00A8E30320A5470D00F8B506460D468F18F2
:10482C000024BD420CD0336815F8011B9B68304640
:10483C009847002801DB0444F3E7002C08BF04462A
:10484C002046F8BD70B505460C46084649B101F046
:10485C004EFE2B68024621462846DB68BDE87040B8
:10486C00184770BD08B5FFF7EDFF08BD03689B68DE
:10487C00184738B50D210546FFF7F8FF0A21044605
:10488C002846FFF7F3FF204438BD38B50546FFF73F
:10489C00D9FF04462846FFF7ECFF204438BD30B55D
:1048AC008BB00B4600218DF82410012A98BF0A22E8
:1048BC000DF12304B3FBF2F505FB123303F0FF03F8
:1048CC00092B94BF30333733DBB2214604F801395E
:1048DC002B46002DEED1FFF7B5FF0BB030BD00001D
:1048EC002DE9F04757EC106B82460D4610EE102A5E
:1048FC003B4610EE100A394601F036FD08B14E4920
:10490C0012E027F000494FF0FF324C4B304649463D
:10491C0001F02AFD68B94FF0FF32484B304649464A
:10492C0001F004FD28B946495046FFF78BFFBDE85E
:10493C00F0874FF06042434B3046394601F00AFD98
:10494C0008B14149F0E74FF06042404B30463946E0
:10495C0001F0E2FC0028F4D1002200233046394655
:10496C0001F0DAFC40B12D215046FFF77FFF07F133
:10497C00004304461F4600E0044635494FF000084A
:10498C0000205FFA88F39D4206D90022314B01F0DA
:10499C007BFB08F10108F4E732463B4601F098F83E
:1049AC000F46064601F01EFD0A220146804650467F
:1049BC00FFF775FF0444E5B3404601F0C5F9024624
:1049CC000B463046394601F081F806460F465046F4
:1049DC002149FFF737FF044400221E4B304639466D
:1049EC0001F028FA06460F4601F0D4FCB0F100099C
:1049FC0007DA2D215046FFF739FFC9F10001804637
:104A0C0002E049464FF000080A225046FFF747FFE4
:104A1C0040440444484601F0A7F902460B46304690
:104A2C00394601F053F8013D15F0FF0506460F46D7
:104A3C00D2D12046BDE8F0877C660D00FFFFEF7FEA
:104A4C0086660D00FFFFEF4180660D00FFFFEFC192
:104A5C000000E03F0000244084660D0038B5C9B268
:104A6C000546FFF73DFF04462846FFF702FF2044AA
:104A7C0038BD38B5044610EE100A0D4601F086F923
:104A8C0041EC100B29462046BDE83840FFF7E6BF45
:104A9C00014B024A1A607047E8E30320FD660D00E3
:104AAC00024B1A68024B1A60704700BF40E30320A8
:104ABC00ECE303200021FFF7F1BC10B5836804463A
:104ACC0013B1032201469847204610BD10B5044689
:104ADC00FFF7F3FF204610BD13B50B46044603C881
:104AEC008DE8030093E8030084E803009DE80300CD
:104AFC0083E8030002B010BD0348044A04490023B4
:104B0C00836000F08DBE00BFF0E30320A8E3032018
:104B1C00D94A0D0008B50C4B33B100F01BFC0368EF
:104B2C001B699847002809DC084B63B100F0DCFCDA
:104B3C0003681B699847002803DC08BDAFF30080AD
:104B4C00F2E7AFF3008008BD000000000000000099
:104B5C0008B5FFF7DFFFFFF7F1FB014B186008BD4D
:104B6C004CE703200248034A0349121A01F068BCBF
:104B7C0000F4032004F4032060690D0007B5002342
:104B8C0000931A466FF07701FFF7AAFC03B05DF8AB
:104B9C0004FB000007B543880A2B08D0502B09D121
:104BAC00094B1B683BB103B05DF804EB1847FFF7EA
:104BBC00E5FF06E0002300931A466FF07701FFF73C
:104BCC008FFC03B05DF804FB00E4032038B5104CF7
:104BDC00104D2368AB42104B0CBF012200221A70FF
:104BEC0002D0FFF7BFFF2560FFF7A0FB044601F0E2
:104BFC003BFC0A4B13B12046AFF300800021074861
:104C0C00FFF7D8FC00210648BDE83840FFF75EBC32
:104C1C0000F403201E1C279A04E40320000000006B
:104C2C00A14B0D0070470020704710B510210446B1
:104C3C0000F0FBFD204610BD08B508B1FFF7F5FFED
:104C4C0008BD0022026010B54FF69C728280B1F94B
:104C5C00044084808A8002680C6804600A6010BD7D
:104C6C0010B504460068FFF7B5FC204610BD38B5FA
:104C7C00C468F4B12378022B03D104F10C00FFF7C4
:104C8C00EFFF656835B12846FFF717FF102128465E
:104C9C0000F0CBFDA56835B12846FFF70EFF1021BB
:104CAC00284600F0C2FD20461421BDE8384000F033
:104CBC00BCBD38BD13B5044691E8050000234B601C
:104CCC000B602060626001A801930093FFF783FDE5
:104CDC00204602B010BDF7B50C4602AD54F8043BAB
:104CEC0045F8083D06460F4601A82146FFF76CFD26
:104CFC0029463046FFF7DEFF01A8FFF76CFD204682
:104D0C00FFF769FD3846082100F08FFD304603B0EF
:104D1C00F0BD000038B500230446036010200D469A
:104D2C00FFF7B3F928B1012343608360024B0360A2
:104D3C00C5602060204638BD9C670D00826810B5A8
:104D4C000AB900F074FDC368BDE81040184708B5F7
:104D5C00006800F11001FFF7F1FF08BD826810B583
:104D6C000AB900F064FDC368BDE81040184708B5E7
:104D7C00006800F11001FFF7F1FF08BD38B5002302
:104D8C0083608B6804460D462BB102229847EB6872
:104D9C00E360AB68A360204638BD0000F0B589B075
:104DAC0004686846FFF74DFF00238DF808304FF07C
:104DBC000202D4E84F3F002B03D1C4E8412F002955
:104DCC00F7D102D08DF8083063E014F10C0503D054
:104DDC0069462846FFF735FFBFF35F8F01236370E9
:104DEC00002004F10803BFF35F8F53E8006F43E822
:104DFC000002002AF9D1BFF35F8F002E49D0FFF7D4
:104E0C0055FB20B129463046FFF798FF3AE0314672
:104E1C0002A8FFF7B3FFE068B4F9105008B101F035
:104E2C004BFB06901020ADF81C50FFF72EF90546F1
:104E3C00E8B1002787601820FFF727F9044688B1EE
:104E4C000146876002A8FFF747FE049BA268A36097
:104E5C00059B049206A9E268E36004F11000059238
:104E6C00FFF7EFFE0D4BEB600D4B2C60AB6006A813
:104E7C00FFF7F6FE02A8FFF720FE0022294609489C
:104E8C00FFF71CFB3046FFF718FE1021304600F0F0
:104E9C00CCFC6846FFF7E4FE09B0F0BD5B4D0D009D
:104EAC00D14F0D0041550D002DE9F04F8BB006464A
:104EBC000F46904699469DF850A0FFF76BFB07AD47
:104ECC00834630BB4FF62E73059005A92846ADF8E6
:104EDC001830FFF7B6FE1420FFF7D7F8044658B188
:104EEC000223037001234370C0F804B0C0F808B06B
:104EFC0029460C30FFF7A5FE3046214640F8044BFE
:104F0C00FFF708FF2846FFF7ABFE05A8FFF7A8FE42
:104F1C0052E000240C2314206C60AC600793FFF764
:104F2C00B4F8014618B1047044704460846004A85D
:104F3C000391FFF7EFFE224B08930820FFF7A5F82B
:104F4C00044628B1039B40F8043B04A9FFF73CFC42
:104F5C0000955FFA8AF34A46414638460994FFF7B2
:104F6C0021FB20B9039B5B7803F0FF0283B1039B09
:104F7C00059304A906A8FFF727FC05A93046FFF7FF
:104F8C0099FE06A8FFF727FC04A8FFF724FC13E002
:104F9C004FF69C7305A903A80592ADF81830FFF7DE
:104FAC00FDFE05A8FFF75CFE05A80999FFF793FE27
:104FBC0006A8FFF710FCDAE730460BB0BDE8F08F1F
:104FCC0041510D00022AF8B5044606D0032A17D029
:104FDC00012A22D10B6803601FE018200E68FFF72E
:104FEC0054F8054650B13146FFF7C8FE3069B6F9A2
:104FFC00147008B101F060FA2861AF8225600CE0F2
:10500C00046854B104F11000FFF72AFE2046FFF7A4
:10501C0054FD1821204600F008FC0020F8BD38B5DE
:10502C00002383608B6804460D462BB102229847FF
:10503C00EB68E360AB68A360204638BD022A70B50C
:10504C00044606D0032A11D0012A18D10B6803603C
:10505C0015E014200E68FFF718F8054620B131460C
:10506C00FFF7DDFF337C2B74256008E0046834B156
:10507C002046FFF722FD1421204600F0D6FB00202D
:10508C0070BD0000F0B5002387B00C46BFF35F8FF6
:10509C0050E8006F40E80032002AF9D1BFF35F8F6F
:1050AC00002E3FD01846FFF701FA074620B12146E3
:1050BC003046FFF753FE2EE0314601A8FFF7AFFF55
:1050CC0023788DF814301020FEF7DFFF0546D0B1A1
:1050DC0087601420FEF7D9FF044678B1876001463B
:1050EC0001A8FFF7F9FC039BA268A360049B039241
:1050FC00E268E3609DF81430049223740A4BEB6071
:10510C000A4B2C60AB6001A8FFF7D7FC00222946A4
:10511C000748FFF7D3F93046FFF7CFFC1021304694
:10512C0000F083FB07B0F0BD7B4D0D0049500D0026
:10513C0041550D0030B585B004460D466846114604
:10514C00FFF7C9FD7CB124B228460DB101F0B4F9CA
:10515C00029002A96846ADF80C40FFF71FFE02A8AA
:10516C00FFF77EFD1DE000988DF808404FF001021E
:10517C00D0E84F3FA34203D1C0E8412F0029F7D11B
:10518C0002D08DF808300CE010F10C014FF0010347
:10519C0018BF0373BFF35F8F043000F8033CFFF7B5
:1051AC0071FF01A8FFF717FB05B030BD704710B5B4
:1051BC001821044600F039FB204610BDF0B5037DE4
:1051CC00062B8DB00E4600F104074FF0000402D000
:1051DC0000F1080518E00CAD394605F8304D2F23C9
:1051EC002A460A20FFF7DAF8284601F080F93368DE
:1051FC000246DB682946304698470FE024B12E2141
:10520C003046FFF733FB044415F8011D0A223046E3
:10521C00FFF745FBBD420444F0D120460DB0F0BD74
:10522C0010B5054B0446112240F8043B002101F057
:10523C0012F9204610BD00BFB8670D000346074A9F
:10524C0010B543F8042B01F1100251F8044B43F84C
:10525C00044B9142F9D10A781A7010BDB8670D0051
:10526C0010B59DF8084044EA032343EA024242EA9F
:10527C00016104234160037510BD37B50D788B783F
:10528C004A78C97800912946FFF7EAFF03B030BD90
:10529C0041747047704708B50021007CFFF7DEF8B9
:1052AC0030EA200028BF4FF0FF3008BD08B50121BF
:1052BC00007CFFF7D3F830EA200028BF4FF0FF3016
:1052CC0008BD08B5007CFFF7C1F820EAE07008BD06
:1052DC0008B5007CFFF7B2F820EAE07008BD007C4E
:1052EC00FFF7CCB810B51421044600F09EFA204606
:1052FC0010BD38B50446007C0D46FFF7A7F8002812
:10530C0001DC607C28B12946207CFFF7AFF820EA4D
:10531C00E07038BD10B50446002363604FF47A7317
:10532C00A360054B23600123084621746374114666
:10533C00FFF774F8204610BDCC670D000022007CEE
:10534C00FFF774B810B514220446002101F083F85D
:10535C00204610BD30B50E4D87B001A8FFF7F2FF07
:10536C00296811F0010410D12846FEF794FE60B1B3
:10537C0001AA21460748FFF7CDFF2846FEF790FE0D
:10538C00054A0649034800F04BFA024807B030BD05
:10539C0008E403200CE40320A8E30320A1520D0031
:1053AC00002211464068FFF7BDB800221146406844
:1053BC00FFF7D8B8002211464068FFF7E3B8002287
:1053CC004068FFF7D7B8002281F001014068FFF771
:1053DC00C1B800231A4619464068FFF7B3B800233A
:1053EC001A4619464068FFF7A5B8002211464068D6
:1053FC00FFF788B8002202214068FFF78BB8002322
:10540C001A464068FFF776B838B5084C28252A4666
:10541C000021204601F01FF84FF0FF336360044B6E
:10542C00258004225A60034A1A6038BD28E4032000
:10543C0020E40320FC670D0070474174704708B5E9
:10544C00007CFEF7E3FF20EAE07008BD08B5007CA5
:10545C00FEF7BCFF20EAE07008BD08B5007CFEF743
:10546C00C5FF30EA200028BF4FF0FF3008BD08B55B
:10547C00007CFEF7B3FF30EA200028BF4FF0FF306E
:10548C0008BD007CFEF7BABF10B51421044600F02D
:10549C00CCF9204610BD70B5457C04460E4625B9A6
:1054AC00007CFEF7B3FF002805DD3146207CBDE80B
:1054BC007040FEF783BF284670BD000010B504464F
:1054CC0008461146002262604FF47A72A260054AC7
:1054DC0022600122207462741A46FEF767FF204690
:1054EC0010BD00BF30680D0038B50C4D296811F0A7
:1054FC00010411D12846FEF7CEFD68B1084A094BCC
:10550C0009482146FFF7DAFF2846FEF7C9FD074A8E
:10551C000749054800F084F9034838BDE8E4032046
:10552C00ECE4032064E4032050E40320A8E303200C
:10553C0045540D0010B5836804460BB900F077F99B
:10554C00C3689847A3681BB103222146204698479D
:10555C0020461021BDE8104000F067B9002211462A
:10556C004068FEF7FFBF002211464068FFF70AB8FB
:10557C0000224068FEF7FEBF002281F00101406866
:10558C00FEF7E8BF00231A4601214068FEF7DABF98
:10559C0000231A4619464068FEF7CCBF002211467C
:1055AC004068FEF7BFBF002211464068FEF7AABF55
:1055BC00002202214068FEF7ADBF00231A46406866
:1055CC00FEF798BF38B5054688B104684CB1A3689E
:1055DC001BB103222146204698471021204600F09B
:1055EC0024F928461421BDE8384000F01EB938BD16
:1055FC0010B103685B681847704710B50368044620
:10560C00BBB15868FEF7A2FE78B923685A7C12B970
:10561C005868FEF7A3FE23685868FEF7A7FE2068BB
:10562C000023236028B1FFF7CDFF206808B1FFF7F6
:10563C00C9FF204610BD38B50446D0F8C40108B1E6
:10564C00FEF727FDD4F8C00108B1FEF79FFED4F891
:10565C00BC5135B12846FFF7D0FF0421284600F095
:10566C00E4F8206808B1FFF7C3FF204638BD0000FE
:10567C0010B5044B044640F8083BFFF7DCFF20460E
:10568C0010BD00BF60680D0038B50E4C0E4B23608A
:10569C000025022304F5E4706360A560C4F8C451CE
:1056AC00C4F8C851FEF76AFE084BC4F8CC5184F814
:1056BC00D05123602046064A0649BDE8384000F028
:1056CC00AFB800BF70E5032094680D0060680D0052
:1056DC00A8E303207D560D0000231A464068FEF710
:1056EC0009BF002202214068FEF714BF00221146B8
:1056FC004068FEF707BF002211464068FEF712BF54
:10570C0000231A4619464068FEF714BF00231A46B8
:10571C0019464068FEF716BF002281F0010140686F
:10572C00FEF718BF00224068FEF724BF0022114686
:10573C004068FEF727BF002211464068FEF712BFF3
:10574C002DE9F043002495B016460D460746FFF7A9
:10575C0067FD214620220CA8009400F07CFE40231B
:10576C000C9321466B460CAA3046FEF7CFFD04463F
:10577C00002844D1024601216868FEF7D3FE0221BD
:10578C00804622466868FEF7CDFE009E8146214683
:10579C00002E34D0002932D17368022B02D00A2B90
:1057AC0009D02AE0B8F1000F27D0716938460431CE
:1057BC00FFF763FD20E0B9F1000F1ED074691122D0
:1057CC0001A800F048FE06238DF8143001AD04F159
:1057DC0008031834186859682A4603C20833A342D0
:1057EC001546F7D101A906A807ADFFF727FD0FCD88
:1057FC003C1D0FC42B6823700121F669C8E7009883
:10580C00FEF77CFD384615B0BDE8F083024B034A29
:10581C001A6000225A60704744E7032094680D0018
:10582C000B460146184600F0FDBDFEF730BC08B52E
:10583C00FEF7E0FE184B1A68D1075CBF01221A6014
:10584C00164B1A68D2075CBF01221A60144B1A68F7
:10585C00D0075CBF01221A60124B1A68D1075CBFDB
:10586C0001221A60104B1A68D2075CBF01221A6021
:10587C000E4B1A68D0075CBF01221A600C4B1A68D9
:10588C00D1075CBF01221A600A4B1A68D2075CBFB1
:10589C0001221A60704700BF6CE7032068E7032001
:1058AC0064E7032060E703205CE7032058E703204C
:1058BC0054E7032050E70320244B1A68D0075CBF41
:1058CC0001221A60224B1A68D1075CBF01221A60B0
:1058DC00204B1A68D2075CBF01221A601E4B1A6853
:1058EC00D0075CBF01221A601C4B1A68D1075CBF41
:1058FC0001221A601A4B1A68D2075CBF01221A6087
:10590C00184B1A68D0075CBF01221A60164B1A6834
:10591C00D1075CBF01221A60144B1A68D2075CBF16
:10592C0001221A60124B1A68D0075CBF01221A6060
:10593C00104B1A68D1075CBF01221A600E4B1A6813
:10594C00D2075CBF01221A60704700BF9CE703209E
:10595C0098E7032094E7032090E703208CE70320CB
:10596C0088E7032084E7032080E703207CE70320FB
:10597C0078E7032074E7032070E70320244B1A68B0
:10598C00D0075CBF01221A60224B1A68D1075CBF9A
:10599C0001221A60204B1A68D2075CBF01221A60E0
:1059AC001E4B1A68D0075CBF01221A601C4B1A6888
:1059BC00D1075CBF01221A601A4B1A68D2075CBF70
:1059CC0001221A60184B1A68D0075CBF01221A60BA
:1059DC00164B1A68D1075CBF01221A60144B1A6867
:1059EC00D2075CBF01221A60124B1A68D0075CBF49
:1059FC0001221A60104B1A68D1075CBF01221A6091
:105A0C000E4B1A68D2075CBF01221A60704700BFA8
:105A1C00CCE70320C8E70320C4E70320C0E703203A
:105A2C00BCE70320B8E70320B4E70320B0E703206A
:105A3C00ACE70320A8E70320A4E70320A0E703209A
:105A4C00184B1A68D1075CBF01221A60164B1A68F2
:105A5C00D2075CBF01221A60144B1A68D0075CBFD6
:105A6C0001221A60124B1A68D1075CBF01221A601E
:105A7C00104B1A68D2075CBF01221A600E4B1A68D1
:105A8C00D0075CBF01221A600C4B1A68D1075CBFAF
:105A9C0001221A600A4B1A68D2075CBF01221A60F5
:105AAC00704700BFECE70320E8E70320E4E703209E
:105ABC00E0E70320DCE70320D8E70320D4E703204A
:105ACC00D0E7032081F0004102E000BF83F00043E7
:105ADC0030B54FEA41044FEA430594EA050F08BF7D
:105AEC0090EA020F1FBF54EA000C55EA020C7FEA41
:105AFC00645C7FEA655C00F0E2804FEA5454D4EBBE
:105B0C005555B8BF6D420CDD2C4480EA020281EA87
:105B1C00030382EA000083EA010180EA020281EABF
:105B2C000303362D88BF30BD11F0004F4FEA013111
:105B3C004FF4801C4CEA113102D0404261EB410120
:105B4C0013F0004F4FEA03334CEA133302D05242A6
:105B5C0063EB430394EA050F00F0A780A4F1010462
:105B6C00D5F1200E0DDB02FA0EFC22FA05F280189C
:105B7C0041F1000103FA0EF2801843FA05F3594182
:105B8C000EE0A5F120050EF1200E012A03FA0EFC01
:105B9C0028BF4CF0020C43FA05F3C01851EBE3712B
:105BAC0001F0004507D54FF0000EDCF1000C7EEB48
:105BBC0000006EEB0101B1F5801F1BD3B1F5001F86
:105BCC000CD349085FEA30004FEA3C0C04F10104A5
:105BDC004FEA445212F5800F80F09A80BCF1004FCE
:105BEC0008BF5FEA500C50F1000041EB045141EA50
:105BFC00050130BD5FEA4C0C404141EB010111F451
:105C0C00801FA4F10104E9D191F0000F04BF0146FB
:105C1C000020B1FA81F308BF2033A3F10B03B3F1D9
:105C2C0020020CDA0C3208DD02F1140CC2F10C0269
:105C3C0001FA0CF021FA02F10CE002F11402D8BFC7
:105C4C00C2F1200C01FA02F120FA0CFCDCBF41EA93
:105C5C000C019040E41AA2BF01EB0451294330BD62
:105C6C006FEA04041F3C1CDA0C340EDC04F114043F
:105C7C00C4F1200220FA04F001FA02F340EA030016
:105C8C0021FA04F345EA030130BDC4F10C04C4F15C
:105C9C00200220FA02F001FA04F340EA030029463C
:105CAC0030BD21FA04F0294630BD94F0000F83F486
:105CBC00801306BF81F480110134013D4EE77FEA69
:105CCC00645C18BF7FEA655C29D094EA050F08BFB5
:105CDC0090EA020F05D054EA000C04BF1946104696
:105CEC0030BD91EA030F1EBF0021002030BD5FEADA
:105CFC00545C05D14000494128BF41F0004130BD02
:105D0C0014F580043CBF01F5801130BD01F0004555
:105D1C0045F0FE4141F470014FF0000030BD7FEAC8
:105D2C00645C1ABF194610467FEA655C1CBF0B46C3
:105D3C00024650EA013406BF52EA033591EA030FDA
:105D4C0041F4002130BD00BF90F0000F04BF0021D2
:105D5C00704730B54FF4806404F132044FF0000505
:105D6C004FF0000150E700BF90F0000F04BF00217E
:105D7C00704730B54FF4806404F1320410F00045E4
:105D8C0048BF40424FF000013EE700BF42004FEADF
:105D9C00E2014FEA31014FEA02701FBF12F07F435C
:105DAC0093F07F4F81F06051704792F0000F14BF59
:105DBC0093F07F4F704730B54FF4607401F000459D
:105DCC0021F0004120E700BF50EA010208BF7047F4
:105DDC0030B54FF000050AE050EA010208BF7047E9
:105DEC0030B511F0004502D5404261EB41014FF452
:105DFC00806404F132045FEA915C3FF4DCAE4FF056
:105E0C0003025FEADC0C18BF03325FEADC0C18BF3C
:105E1C00033202EBDC02C2F1200300FA03FC20FA8D
:105E2C0002F001FA03FE40EA0E0021FA02F11444DA
:105E3C00C1E600BF70B54FF0FF0C4CF4E06C1CEAEF
:105E4C0011541DBF1CEA135594EA0C0F95EA0C0F64
:105E5C0000F0DEF82C4481EA030621EA4C5123EAD7
:105E6C004C5350EA013518BF52EA033541F4801106
:105E7C0043F4801338D0A0FB02CE4FF00005E1FBB9
:105E8C0002E506F00042E0FB03E54FF00006E1FB03
:105E9C0003569CF0000F18BF4EF0010EA4F1FF0446
:105EAC00B6F5007F64F5407404D25FEA4E0E6D4186
:105EBC0046EB060642EAC62141EA55514FEAC52097
:105ECC0040EA5E504FEACE2EB4F1FD0C88BFBCF513
:105EDC00E06F1ED8BEF1004F08BF5FEA500E50F1C4
:105EEC00000041EB045170BD06F0004646EA01018A
:105EFC0040EA020081EA0301B4EB5C04C2BFD4EBBC
:105F0C000C0541EA045170BD41F480114FF0000EB4
:105F1C00013C00F3AB8014F1360FDEBF002001F022
:105F2C00004170BDC4F10004203C35DA0C341BDC9C
:105F3C0004F11404C4F1200500FA05F320FA04F06E
:105F4C0001FA05F240EA020001F0004221F00041A2
:105F5C0010EBD37021FA04F642EB06015EEA430E15
:105F6C0008BF20EAD37070BDC4F10C04C4F1200545
:105F7C0000FA04F320FA05F001FA04F240EA0200F8
:105F8C0001F0004110EBD37041F100015EEA430EC9
:105F9C0008BF20EAD37070BDC4F1200500FA05F2E9
:105FAC004EEA020E20FA04F301FA05F243EA020368
:105FBC0021FA04F001F0004121FA04F220EA020077
:105FCC0000EBD3705EEA430E08BF20EAD37070BDBD
:105FDC0094F0000F0FD101F00046400041EB01019D
:105FEC0011F4801F08BF013CF7D041EA060195F07F
:105FFC00000F18BF704703F00046520043EB030339
:10600C0013F4801F08BF013DF7D043EA0603704725
:10601C0094EA0C0F0CEA135518BF95EA0C0F0CD030
:10602C0050EA410618BF52EA4306D1D181EA030176
:10603C0001F000414FF0000070BD50EA410606BF70
:10604C001046194652EA430619D094EA0C0F02D1B5
:10605C0050EA013613D195EA0C0F05D152EA0336FA
:10606C001CBF104619460AD181EA030101F0004118
:10607C0041F0FE4141F470014FF0000070BD41F061
:10608C00FE4141F4780170BD70B54FF0FF0C4CF43B
:10609C00E06C1CEA11541DBF1CEA135594EA0C0F5A
:1060AC0095EA0C0F00F0A7F8A4EB050481EA030EA7
:1060BC0052EA03354FEA013100F088804FEA03338E
:1060CC004FF0805545EA131343EA12634FEA02225C
:1060DC0045EA111545EA10654FEA00260EF000411D
:1060EC009D4208BF964244F1FD0404F5407402D26F
:1060FC005B084FEA3202B61A65EB03055B084FEA00
:10610C0032024FF480104FF4002CB6EB020E75EBFC
:10611C00030E22BFB61A754640EA0C005B084FEA24
:10612C003202B6EB020E75EB030E22BFB61A7546A1
:10613C0040EA5C005B084FEA3202B6EB020E75EBEC
:10614C00030E22BFB61A754640EA9C005B084FEA64
:10615C003202B6EB020E75EB030E22BFB61A754671
:10616C0040EADC0055EA060E18D04FEA051545EA60
:10617C0016754FEA06164FEAC30343EA52734FEA09
:10618C00C2025FEA1C1CC0D111F4801F0BD141EA82
:10619C0000014FF000004FF0004CB6E711F4801FE7
:1061AC0004BF01430020B4F1FD0C88BFBCF5E06FC7
:1061BC003FF6AFAEB5EB030C04BFB6EB020C5FEAD7
:1061CC00500C50F1000041EB045170BD0EF0004E2C
:1061DC004EEA113114EB5C04C2BFD4EB0C0541EA5E
:1061EC00045170BD41F480114FF0000E013C90E65B
:1061FC0045EA060E8DE60CEA135594EA0C0F08BF1F
:10620C0095EA0C0F3FF43BAF94EA0C0F0AD150EA1D
:10621C0001347FF434AF95EA0C0F7FF425AF1046B0
:10622C0019462CE795EA0C0F06D152EA03353FF4D8
:10623C00FDAE1046194622E750EA410618BF52EA55
:10624C0043067FF4C5AE50EA41047FF40DAF52EA29
:10625C0043057FF4EBAE12E74FF0FF3C06E000BFC6
:10626C004FF0010C02E000BF4FF0010C4DF804CDD3
:10627C004FEA410C7FEA6C5C4FEA430C18BF7FEA93
:10628C006C5C1BD001B050EA410C0CBF52EA430CC1
:10629C0091EA030F02BF90EA020F0020704710F141
:1062AC00000F91EA030F58BF994208BF90422CBFD0
:1062BC00D8176FEAE37040F0010070474FEA410CC9
:1062CC007FEA6C5C02D150EA013C07D14FEA430CE7
:1062DC007FEA6C5CD6D152EA033CD3D05DF8040B58
:1062EC00704700BF8446104662468C46194663468A
:1062FC0000E000BF01B5FFF7B7FF002848BF10F161
:10630C00000F01BD4DF808EDFFF7F4FF0CBF0120A5
:10631C0000205DF808FB00BF4DF808EDFFF7EAFF21
:10632C0034BF012000205DF808FB00BF4DF808EDDC
:10633C00FFF7E0FF94BF012000205DF808FB00BFD1
:10634C004DF808EDFFF7CEFF94BF012000205DF85B
:10635C0008FB00BF4DF808EDFFF7C4FF34BF012068
:10636C0000205DF808FB00BF4FEA410C7FEA6C5C33
:10637C0002D150EA013C0AD14FEA430C7FEA6C5C33
:10638C0002D152EA033C02D14FF0000070474FF0AB
:10639C00010070474FEA410212F5001215D211D5D7
:1063AC006FF47873B3EB625212D94FEAC12343F006
:1063BC00004343EA505311F0004F23FA02F018BF88
:1063CC00404270474FF00000704750EA013005D151
:1063DC0011F0004008BF6FF0004070474FF0000014
:1063EC00704700BF4A0011D212F5001211D20DD520
:1063FC006FF47873B3EB62520ED44FEAC12343F0BF
:10640C00004343EA505323FA02F070474FF0000068
:10641C00704750EA013002D14FF0FF3070474FF017
:10642C000000704710B5054C13462CB10A460146C6
:10643C000220AFF3008010BD204610BD000000000C
:10644C0010B5431E0A44914204D011F8014B03F8D5
:10645C00014FF8E710BD02440346934202D003F803
:10646C00011BFAE77047000038B5124B1C68A36B90
:10647C000546D3B91820FEF7A5F843F20E33A063F6
:10648C0003804AF6CD33438041F2342383804EF2AD
:10649C006D63C3804DF6EC630381052343810B23AD
:1064AC00838101220023C0E90423A36B00221D6118
:1064BC005A6138BDA4E30320024B0146186800F072
:1064CC0003B800BFA4E3032070B5064608460C468B
:1064DC0000F00DF8451C29463046FEF793F80646A9
:1064EC0018B12A462146FFF7ABFF304670BD034674
:1064FC0013F8012B002AFBD1181A01387047000041
:10650C001D400D0059400D0085400D0089400D00C7
:10651C00000000007477696C696F5F736D730053D2
:10652C00656E64696E674D65737361676500546869
:10653C0065206368696C6420697320696E207468D7
:10654C0065206361722069662074686520617665D8
:10655C0072616765203C20333A20006368696C6483
:10656C0020696E206361720053656E64696E6720EA
:10657C006D65737361676520626563617573652012
:10658C00636172207475726E6564206F666620613B
:10659C006E64206368696C6420697320696E207472
:1065AC00686520636172005468652074656D706560
:1065BC0072617475726520697320726973696E6794
:1065CC0020746F6F20666173740053656E64696E1E
:1065DC0067206D65737361676520626563617573B0
:1065EC00652074656D706572617475726520697370
:1065FC0020746F6F20686F740053656E64696E67EA
:10660C00206D657373616765206265636175736581
:10661C002074656D7020697320637269746963619D
:10662C006C00596F7572206368696C642069732003
:10663C00696E2074686520636172000000000000C0
:10664C00000000007F460D0075460D006B460D00E6
:10665C0061460D0055460D0049460D003D460D00A6
:10666C0035460D002B460D0021460D004D570D00F3
:10667C006E616E006F7666002E00696E6600626158
:10668C0075640053657269616C0053657269616C65
:10669C0031007479706500706172616D00636D64B6
:1066AC0000696400686E64007374726D0066696CD6
:1066BC0074006C766C0061646448616E646C657225
:1066CC000072656D6F766548616E646C657200650D
:1066DC006E756D48616E646C657273004A534F4EF3
:1066EC0053747265616D4C6F6748616E646C657252
:1066FC000061707000253031307520005D20002560
:10670C0064002C200028293A2000205B00636F6471
:10671C0065203D200025690064657461696C7320F7
:10672C003D20000D0A006C6E00666E00636F6465A0
:10673C000064657461696C006E6F6E6500747261E3
:10674C00636500696E666F007761726E00657272C8
:10675C006F720070616E696300616C6C005A002589
:10676C002B3033643A253032750025592D256D2D8B
:10677C0025645425483A254D3A2553257A006173F2
:10678C006374696D650000000000000000000000EB
:10679C00314C0D00374C0D007B4C0D00454C0D0061
:1067AC00334C0D000000000000000000C9510D002A
:1067BC00B9510D00BB510D0000000000000000009D
:1067CC00A1520D00F1520D00FF520D0025480D0095
:1067DC00DD520D00A3520D00B9520D00EB520D000D
:1067EC00CF520D009D520D00000000000000000073
:1067FC000B540D0001540D00F7530D00AD530D005B
:10680C00EB530D00DF530D00D3530D00CB530D0094
:10681C00C1530D00B7530D004D570D000000000083
:10682C000000000045540D0095540D00A3540D00BC
:10683C0025480D0059540D007B540D0067540D0074
:10684C008F540D0047540D004B540D0000000000F8
:10685C0000000000C7550D00BD550D00B3550D00CF
:10686C00A9550D009D550D0091550D0085550D0038
:10687C007D550D0073550D0069550D004D570D00DC
:10688C000000000000000000E5560D00EF560D0062
:10689C00F9560D0003570D000D570D0019570D003B
:1068AC0025570D0031570D0039570D0043570D007A
:1068BC004D570D000000000000000000000000001B
:1068CC0000000000000000000000000000000000BC
:1068DC0000000000000000000000000000000000AC
:1068EC00000000000000000000000000000000009C
:1068FC00000000000000000000000000000000008C
:10690C00000000000000000000000000000000007B
:10691C000000000043000000D1420D0089460D002C
:10692C00BD460D00FD470D009D4A0D00AD4A0D0002
:10693C00054B0D0015540D0095560D0019580D0002
:10694C0041580D00C5580D0089590D004D5A0D00C8
:04695C000000000037
:046960000000000033
:106964000000803F000000000000803F0000803FE6
:106974000000803F0000803F0000803F00009642FE
:1069840000009642000096420000964200009642A3
:106994008A670D0000000000C0680D00E0680D006B
:1069A40000690D000000000000000000000000006D
:1069B4000000000020690D0000000000000000003D
:1069C40000000000000000000000000000000000C3
:1069D40000000000000000000000000000000000B3
:1069E40000000000000000000000000000000000A3
:0869F4000000000044E3032051
:1069FC00FFFFFFFF00000102030405060708090A58
:106A0C000B0C0D0E0F101112131415161718191A52
:086A1C001B1C1D1E1F20280099
:046A2400785634125A
:04000003D000401CCD
:00000001FF
