:02000004080AE8
:1000000000000A0884260A08000006000600050110
:0800100004027E05000000005F
:04001800D8220A08D8
:1000200009480A4908B5884205D0094A824202D0E7
:10003000121A02F0F1F80748074A0021121A02F0DA
:10004000F6F8064808BD00BF00000020F4250A08A5
:100050006800002068000020100600201006002024
:1000600070B500F0EDFC074B074C1E46E41AA408DF
:100070000025A54204D056F8253098470135F8E709
:1000800070BD00BFB8250A08F0250A0800F014B8B2
:1000900008B500F045F8BDE8084000F093BC00F05A
:1000A000F7BA00F0FDBA0078B0FA80F04009704766
:1000B000012303707047000008B54421054800F093
:1000C0008CF801F081F8BDE808404FF4E13101F00F
:1000D00061B800BF6C0000201FB50F4B02681B7891
:1000E0000E498DF8003002A83C2300F017FE039C57
:1000F0007CB16368013B63605BB9236820469B6801
:100100009847A368013BA3601BB923682046DB68BE
:10011000984704B010BD00BF88000020EC220A08F8
:1001200008B5074800F0F0F80B2001F089FA0548FF
:10013000FFF7D2FFBDE80840012000F0E1BB00BF9F
:100140006C0000207800002010B50A4B0A4C0122F8
:100150001A7000F0E7F80949204600F034FB204609
:10016000074A084901F0DEFABDE81040064800F0F1
:1001700011B800BF8800002078000020F7220A088C
:100180006800002039070A086C0000200368C9B223
:100190009B681847704738B505460C4601F0A2FA2F
:1001A000297801F059F901F09DFA210AFFF7EEFFD5
:1001B00001F098FAE1B2FFF7E9FF01F093FABDE828
:1001C000384001F051B908B543F2A201FFF7E3FF4F
:1001D000BDE808400A2000F093BB38B50D46044640
:1001E00001F080FA01F026F920462570FFF7EBFFB9
:1001F000012038BD0A44FF2091420ED011F8013B86
:100200005840082310F0800F4FEA400018BF80F0DC
:100210003100013BC0B2F5D1EEE7704700000000AD
:1002200073B504464FF41051FFF7B5FF4FF4FA7061
:1002300000F066FB01F056FA0622217801F009F978
:1002400001F050FA03681B69984706284AD1002537
:1002500001F048FA03685B6998470DF8050001351D
:10026000062DF5D1022269462046FFF7C3FF9DF80F
:100270000250854236D102220DF103012046FFF7DC
:10028000B9FF9DF8055085422CD1BDF800009DF8BE
:10029000036040BA80B201F0D9FC15A3D3E9002372
:1002A00001F04AFD14A3D3E9002301F06FFE002200
:1002B000134B01F08DFB01F051FF9DF80450A0603D
:1002C00045EA062001F0C2FC00220E4B01F034FD8D
:1002D00009A3D3E9002301F059FE01F03FFF60605C
:1002E000012000E0002002B070BD00BFAFF300802D
:1002F0000000000000E0654000000000E0FFEF406B
:10030000008046400000594010B50446FFF788FFC2
:1003100008B1A06810BD014810BD00BF0000C07F3B
:1003200000F000B808B5024B1B681B68019308BDBC
:10033000B001060808B5024B1B685B68019308BD55
:10034000B001060808B5024B1B681B6B019308BD82
:10035000B001060808B5024B1B68DB69019308BDB4
:10036000B401060808B5024B1B681B6A019308BD5F
:10037000B401060808B5024B1B685B68019308BD11
:100380009C01060808B5024B1B685B69019308BD18
:100390009C01060808B5024B1B681B6B019308BD46
:1003A000D001060808B5024B1B689B69019308BD84
:1003B000C401060808B5024B1B685B6A019308BDBF
:1003C000C401060808B5024B1B689B6A019308BD6F
:1003D000C401060808B5024B1B68DB6A019308BD1F
:1003E000C401060808B5024B1B681B6B019308BDCE
:1003F000C401060808B5024B1B685B6B019308BD7E
:10040000C401060808B5024B1B689B6B019308BD2D
:10041000C401060808B5024B1B681B6C019308BD9C
:10042000C401060808B5024B1B68DB6C019308BDCC
:10043000AC01060808B5024B1B685B6D019308BD53
:10044000AC01060808B5024B1B689B6D019308BD03
:10045000AC01060808B5024B1B68DB6D019308BDB3
:10046000AC01060808B5024B1B681B6E019308BD62
:10047000AC01060808B5024B1B685B6E019308BD12
:10048000AC01060808B5024B1B689B6E019308BDC2
:10049000AC01060808B5024B1B68DB6E019308BD72
:1004A000AC01060808B5024B1B681B6F019308BD21
:1004B000AC01060808B5024B1B685B6F019308BDD1
:1004C000AC01060808B5034B1B68D3F880300193D4
:1004D00008BD0000AC01060808B5024B1B681B688C
:1004E000019308BDD801060808B5024B1B685B687C
:1004F000019308BDD801060808B5024B1B681B69AB
:10050000019308BDD801060808B5024B1B685B695A
:10051000019308BDD801060808B5024B1B689B690A
:10052000019308BDD801060808B5024B1B68DB69BA
:10053000019308BDD801060808B5024B1B681B6A69
:10054000019308BDD801060808B5024B1B689B6CD7
:10055000019308BDC001060808B5024B1B685B6823
:10056000019308BDA401060808B5024B1B685B692E
:10057000019308BDA401060808B5024B1B68DB6C9B
:10058000019308BDA401060808B5024B1B685B6D0A
:10059000019308BDA401060808B5034B1B68D3F8F6
:1005A0009030019308BD0000A401060808B5034B74
:1005B0001B68D3F89C30019308BD0000A401060815
:1005C00008B5024B1B685B68019308BDC8010608AB
:1005D00008B5024B1B689B68019308BDC80106085B
:1005E00008B5024B1B68DB68019308BDC80106080B
:1005F00008B5024B1B681B69019308BDC8010608BA
:1006000008B5024B1B685B69019308BDC801060869
:1006100008B5024B1B689B69019308BDC801060819
:1006200008B5024B1B68DB69019308BDC8010608C9
:1006300008B5024B1B681B6A019308BDC801060878
:1006400008B5024B1B681B6B019308BDC801060867
:1006500008B5024B1B685B6B019308BDC801060817
:1006600008B5024B1B685B69019308BDCC01060805
:1006700008B5024B1B681B6A019308BDCC01060834
:1006800008B5024B1B68DB6B019308BDCC01060863
:1006900008B5024B1B681B68019308BDA001060842
:1006A00008B5024B1B685B68019308BDA0010608F2
:1006B00008B5024B1B689B68019308BDA0010608A2
:1006C00008B5024B1B68DB6A019308BDA001060850
:1006D00008B5024B1B681B6B019308BDA0010608FF
:1006E000704710B50446102101F021F8204610BDD6
:1006F00070B504460E46074B0025036040F80C5FBA
:10070000FFF748FE30462671FFF724FEA56020461D
:1007100070BD00BF1C230A080079FFF723BE00004C
:100720004FF6FF72034B0020187058809A80FFF735
:1007300013BF00BF8A00002010B504460068FFF711
:10074000AFFF204610BD10B50446006808B1FFF7A2
:10075000A7FF00232360A360636010BD38B5044683
:100760000D4600680131FFF7A3FF10B184E82100B6
:10077000012038BD10B50368044613B143688B42AD
:1007800007D22046FFF7EAFF20B1A3680BB9226821
:100790001370012010BD70B50E4611460446154673
:1007A000FFF7E8FF18B92046FFF7CDFF09E02A461A
:1007B0003146A560206801F02FFD2268A368002162
:1007C000D154204670BD38B5002304460360436011
:1007D000836003730D4639B1084601F074FD294664
:1007E00002462046FFF7D7FF204638BDF8B506463B
:1007F0000D468F180024BD420CD0336815F8011B3C
:100800009B6830469847002801DB0444F3E7002C3E
:1008100008BF04462046F8BD70B505460C4608469C
:1008200049B101F050FD2B68024621462846BDE83B
:100830007040DB68184770BD03689B681847012A41
:1008400098BF0A2230B50B468BB000218DF82410DA
:100850000DF12304B3FBF2F505FB1233DBB2092BD8
:1008600094BF30333733DBB2214604F801392B46CD
:10087000002DEFD1FFF7D0FF0BB030BD10B422B97F
:100880000368C9B29B6810BC1847D2B210BCFFF70E
:10089000D6BFFFF7F3BF00231A4619464068FFF79B
:1008A000AFBE38B5046805467CB16368013B636040
:1008B0005BB9236820469B689847A368013BA36007
:1008C0001BB923682046DB689847284638BD0B686B
:1008D000036013B15A6801325A607047014A024BF3
:1008E0001A6070479A230A0890000020024B1A6889
:1008F000024B1A60704700BF0000002094000020E7
:100900000021FFF731BE10B58368044613B10322FE
:1009100001469847204610BD10B50446FFF7F3FF87
:10092000204610BD13B50B46044603C88DE80300EE
:1009300093E8030084E803009DE8030083E80300D4
:1009400002B010BD034800238360034A034900F04E
:10095000E9BE00BF980000206800002019090A08BD
:1009600008B5144B33B100F02FFC03681B6998479E
:10097000002816DC104B33B100F0E4FC03681B695F
:100980009847002810DC0D4B0BB1AFF300800C4BE7
:100990007BB100F055FC03681B699847002806DC12
:1009A00008BDAFF30080E5E7AFF30080EBE7AFF3FE
:1009B000008008BD000000000000000000000000F2
:1009C0000000000008B5FFF7CBFFFFF7DBFC014B91
:1009D000186008BD3C0500200248034A0349121A6A
:1009E00001F01ABC0040024004400240F0250A0811
:1009F00007B5002300931A466FF07701FFF7D6FD85
:100A000003B05DF804FB000007B543880A2B08D04B
:100A1000502B09D1094B1B683BB103B05DF804EBC7
:100A20001847FFF7E5FF06E0002300931A466FF032
:100A30007701FFF7BBFD03B05DF804FBA8000020C1
:100A400038B5104C104D2368AB42104B0CBF01223F
:100A500000221A7002D0FFF7BFFF2560FFF78AFC63
:100A6000044601F0EDFB0A4B13B12046AFF30080C2
:100A700000210748FFF704FEBDE838400021054883
:100A8000FFF78ABD004002401E1C279AAC000020E0
:100A900000000000090A0A0870470020704710B5DE
:100AA0000446102100F043FE204610BD08B508B1F1
:100AB000FFF7F5FF08BD002202604FF69C728280AE
:100AC00010B5B1F9044084808A8002680C68046023
:100AD0000A6010BD10B504460068FFF7E1FD20462E
:100AE00010BD38B5C468F4B12378022B03D104F1EA
:100AF0000C00FFF7EFFF656835B12846FFF703FFED
:100B00001021284600F013FEA56835B12846FFF7EE
:100B1000FAFE1021284600F00AFE2046BDE83840C3
:100B2000142100F004BE38BD13B5044691E8050059
:100B300000234B600B602060626001A8019300936A
:100B4000FFF7AFFE204602B010BDF7B50C460646D3
:100B50000F4654F8043B02AD45F8083D214601A874
:100B6000FFF7B5FE29463046FFF7DEFF01A8FFF785
:100B700098FE2046FFF795FE3846082100F0D7FD85
:100B8000304603B0F0BD000038B5002304460360D2
:100B900010200D46FFF783FA28B1012343608360DC
:100BA000024BC56003602060204638BD3C240A0823
:100BB000826810B50AB900F0BCFDC368BDE81040FA
:100BC000184708B5006800F11001FFF7F1FF08BDF4
:100BD000826810B50AB900F0ACFDC368BDE81040EA
:100BE000184708B5006800F11001FFF7F1FF08BDD4
:100BF00038B5002383608B6804460D462BB1022272
:100C00009847EB68E360AB68A360204638BD0000FE
:100C1000F0B589B004686846FFF74DFF4FF0020257
:100C200000238DF80830D4E84F3F002B03D1C4E8EF
:100C3000412F0029F7D102D08DF8083063E014F17C
:100C40000C0503D069462846FFF735FFBFF35F8FD9
:100C500001236370BFF35F8F04F10803002053E8A2
:100C6000006F43E80002002AF9D1BFF35F8F002E26
:100C700049D0FFF781FC20B129463046FFF798FFA5
:100C80003AE0314602A8FFF7B3FFE068B4F910502C
:100C900008B101F0FDFA06901020ADF81C50FFF7E6
:100CA000FEF90546E8B1002787601820FFF7F7F93D
:100CB000044688B10146876002A8FFF733FE049B13
:100CC000A268A360059B0492E26806A9E36004F1B0
:100CD00010000592FFF7EFFE0D4B2C60EB600D4B03
:100CE000AB6006A8FFF7F6FE02A8FFF70CFE002295
:100CF00029460948FFF748FC3046FFF704FE10215B
:100D0000304600F014FD6846FFF7E4FE09B0F0BD80
:100D1000C30B0A08390E0A0891130A082DE9F04F8F
:100D20008BB006460F46904699469DF850A0FFF7B7
:100D300097FC07AD834630BB4FF62E73059005A98F
:100D40002846ADF81830FFF7B6FE1420FFF7A7F9D4
:100D5000044658B10223037001234370C0F804B065
:100D6000C0F808B029460C30FFF7A5FE30462146F2
:100D700040F8044BFFF708FF2846FFF7ABFE05A835
:100D8000FFF7A8FE52E000240C2314206C60AC6036
:100D90000793FFF784F9014618B10470447044606A
:100DA000846004A80391FFF7EFFE224B082008930C
:100DB000FFF775F9044628B1039B04A940F8043BEA
:100DC000FFF785FD00955FFA8AF34A4641463846AB
:100DD0000994FFF74DFC20B9039B5B7803F0FF02F9
:100DE00083B1039B04A906A80593FFF770FD05A92D
:100DF0003046FFF799FE06A8FFF753FD04A8FFF75A
:100E000050FD13E04FF69C7305A903A80592ADF8B9
:100E10001830FFF7FDFE05A8FFF75CFE05A809994D
:100E2000FFF793FE06A8FFF73CFDDAE730460BB06C
:100E3000BDE8F08FA90F0A08022AF8B5044606D0CB
:100E4000032A17D0012A22D10B6803601FE0182063
:100E50000E68FFF724F9054650B13146FFF7C8FE8A
:100E60003069B6F9147008B101F012FA2861AF8246
:100E700025600CE0046854B104F11000FFF72AFE6D
:100E80002046FFF740FD1821204600F050FC0020CE
:100E9000F8BD38B5002383608B6804460D462BB13E
:100EA00002229847EB68E360AB68A360204638BD38
:100EB000022A70B5044606D0032A11D0012A18D19F
:100EC0000B68036015E014200E68FFF7E8F805468C
:100ED00020B13146FFF7DDFF337C2B74256008E03D
:100EE000046834B12046FFF70EFD1421204600F0BF
:100EF0001EFC002070BD0000F0B50C46BFF35F8FF4
:100F000087B0002350E8006F40E80032002AF9D192
:100F1000BFF35F8F002E3FD01846FFF72DFB07462B
:100F200020B121463046FFF753FE2EE0314601A89E
:100F3000FFF7AFFF237810208DF81430FFF7AFF8DC
:100F40000546D0B187601420FFF7A9F8044678B1B0
:100F50008760014601A8FFF7E5FC039BA268A36038
:100F6000049B0392E268E3609DF8143004922374BA
:100F70000A4B2C60EB600A4BAB6001A8FFF7C3FC87
:100F8000002229460748FFF7FFFA3046FFF7BBFC6F
:100F90001021304600F0CBFB07B0F0BDE30B0A0890
:100FA000B10E0A0891130A0830B5044685B00D4603
:100FB00068461146FFF7C9FD7CB124B228460DB141
:100FC00001F066F9029002A96846ADF80C40FFF7FF
:100FD0001FFE02A8FFF77EFD1DE04FF00102009802
:100FE0008DF80840D0E84F3FA34203D1C0E8412F1D
:100FF0000029F7D102D08DF808300CE010F10C0177
:101000004FF0010318BF0373BFF35F8F043000F884
:10101000033CFFF771FF01A8FFF743FC05B030BDAB
:10102000704710B50446182100F081FB204610BD22
:10103000F8B50F4600F10806051D002416F8011D3D
:101040000A223846FFF725FCAE42044407D0002CA4
:10105000F4D02E213846FFF7EFFB0444EEE720469C
:10106000F8BD000010B50446044B112240F8043BC3
:10107000002101F0DCF8204610BD00BF58240A080A
:101080000346074A10B543F8042B01F1100251F84A
:10109000044B914243F8044BF9D10A781A7010BD01
:1010A00058240A08024A416002600422027570470F
:1010B00058240A0810B59DF8084044EA032343EA7F
:1010C000024242EA016104234160037510BD000041
:1010D00037B5044D05609DF818500095FFF7EAFFFD
:1010E00003B030BD58240A0841747047704708B5F2
:1010F0000021007CFFF710FA30EA200028BF4FF0F3
:10110000FF3008BD08B50121007CFFF705FA30EA81
:10111000200028BF4FF0FF3008BD08B5007CFFF766
:10112000F3F920EAE07008BD08B5007CFFF7E4F9A8
:1011300020EAE07008BD007CFFF7FEB910B5044658
:10114000142100F0F4FA204610BD38B50446007CA6
:101150000D46FFF7D9F9002801DC607C28B129464B
:10116000207CFFF7E1F920EAE07038BD10B50446B5
:10117000002363604FF47A73A360054B0846236035
:101180000123217463741146FFF7A6F9204610BDB0
:101190006C240A080022007CFFF7A6B910B50446AB
:1011A0001422002101F043F8054B20466360054BF3
:1011B000E36040F2011323818123238210BD00BF2D
:1011C00035010020B400002030B50E4D87B001A8D5
:1011D000FFF7E4FF296811F0010410D12846FEF75B
:1011E00062FF60B101AA21460748FFF7BFFF28460A
:1011F000FEF75EFF054A0649034800F093FA0248ED
:1012000007B030BDB0000020380200206800002088
:10121000ED100A0810B504461422002101F007F869
:10122000054B20466360054BE36040F201132381C8
:101230008123238210BD00BFE8020020500200205D
:1012400010B50E4C86B001A8FFF7E4FF2368DB075A
:1012500010D42046FEF727FF60B101AA01210848FB
:10126000FFF784FF2046FEF723FF064A064904489D
:1012700000F058FA024806B010BD00BF4C02002032
:10128000D402002068000020ED100A087047417465
:10129000704708B5007CFFF7BDF820EAE07008BD94
:1012A00008B5007CFFF78EF820EAE07008BD08B5AD
:1012B000007CFFF797F830EA200028BF4FF0FF309E
:1012C00008BD08B5007CFFF785F830EA200028BF8C
:1012D0004FF0FF3008BD007CFFF78CB810B5044616
:1012E000142100F024FA204610BD70B5457C044658
:1012F0000E4625B9007CFFF78DF8002805DD314644
:10130000207CBDE87040FFF755B8284670BD00004E
:1013100010B5044608461146002262604FF47A7206
:10132000A260054A20742260012262741A46FFF707
:1013300039F8204610BD00BF9C240A08007CFFF746
:1013400061B8000038B50C4D296811F0010411D1C5
:101350002846FEF7A8FE68B1084A2146084B09480E
:10136000FFF7D6FF2846FEF7A3FE074A07490548C0
:1013700000F0D8F9034838BD840400208804002018
:1013800000040020EC030020680000208D120A08F1
:1013900010B5836804460BB900F0CBF9C3689847D1
:1013A000A3681BB103222146204698472046BDE88A
:1013B0001040102100F0BBB97047F8B5064615463D
:1013C0000C468F18BC4206D0336814F8011B9B688A
:1013D00030469847F6E72846F8BD0022007CFFF724
:1013E00041B80021007CFFF745B80021007CFFF7E1
:1013F00049B80021007CFFF74DB80021007CFFF7C1
:1014000051B810B50446142100F091F9204610BDE2
:1014100010B5044608464FF47A73A360044B0021CC
:10142000207461602360FFF74DF8204610BD00BFB7
:10143000CC240A0800231A461946007CFEF7F2BFA6
:1014400013B50024007C0094FEF7F4FFC0B202B094
:1014500010BD0123FFF7F4BF0022007CFEF7F2BFAE
:101460000022007CFEF7F6BF0121FFF7F9BF002143
:10147000007CFFF71FB8002211464068FFF7B8B89C
:10148000F0B5164689B011220F460446002103A884
:1014900000F0CDFE304600F016FF0025009581B229
:1014A0007B6803AA3046FFF74FF820B12946204653
:1014B000FFF7F8FD03E003A92046FFF7E1FD204612
:1014C00009B0F0BD002211464068FFF7B1B8002214
:1014D00011464068FFF7BCB800224068FFF7B0B87B
:1014E000002281F001014068FFF79AB800231A46F4
:1014F00019464068FFF78CB8002211464068FFF794
:1015000067B8002202214068FFF76AB800231A4634
:101510004068FFF755B80000024B04225A60024AA7
:101520001A6070470C050020F4240A0800231A46AC
:101530004068FFF745B8002202214068FFF750B825
:10154000002211464068FFF743B800221146406868
:10155000FFF74EB800231A4619464068FFF750B807
:1015600000231A4619464068FFF752B8002281F05E
:1015700001014068FFF754B800224068FFF760B8E7
:10158000002211464068FFF763B800221146406808
:10159000FFF74EB870B516468EB0044608A8FFF7A0
:1015A00061FD1122002103A800F041FE304600F049
:1015B0008AFE00250A4B009581B25B6803AA30467B
:1015C000FEF7C2FF20B129462046FFF76BFD03E07E
:1015D00003A92046FFF754FD20460EB070BD00BFA2
:1015E0000C050020024B034A1A6000225A60704723
:1015F0001405002028250A0810B504460F48FFF7F7
:101600008BF828B1A4F10D03022B01D8002010BDE6
:1016100000F068F8FFF72BFF08B1012CF6D9FFF7AF
:1016200091FEFFF78BFE18B1A4F11203012BEDD947
:10163000172C8CBF0020012010BD00BF1C0500200E
:1016400010B5044609289CBF0A34A4B22046FFF70F
:10165000D3FF50B103212046FEF76CFE032804D1CE
:101660002046BDE81040FEF76DBE002010BD000012
:1016700070B50C4C0C4E0D4D00212046FFF738F88C
:1016800020460B4C3246294600F04CF801212046FA
:10169000FFF72EF8324629462046BDE8704000F09C
:1016A00041B800BF1C05002068000020E1060A08C0
:1016B0002C05002013B5084C00231A461946009348
:1016C0002046FFF705FD2046044A054902B0BDE863
:1016D000104000F027B800BF40050020680000203F
:1016E00021100A0838B50B4D296811F001040FD1FB
:1016F0002846FEF7D8FC58B121460748FFF788FE78
:101700002846FEF7D5FC054A0549034800F00AF8CB
:10171000014838BD580500205C0500206800002005
:10172000B9130A080B460146184600F067BDFEF7DC
:10173000B8BC08B5FEF7C4FF184B1A68D1075CBFE8
:1017400001221A60164B1A68D2075CBF01221A6088
:10175000144B1A68D0075CBF01221A60124B1A683A
:10176000D1075CBF01221A60104B1A68D2075CBF18
:1017700001221A600E4B1A68D0075CBF01221A6062
:101780000C4B1A68D1075CBF01221A600A4B1A6819
:10179000D2075CBF01221A60704700BF8C05002091
:1017A0008805002084050020800500207C0500209D
:1017B000780500207405002070050020244B1A686D
:1017C000D0075CBF01221A60224B1A68D1075CBFA8
:1017D00001221A60204B1A68D2075CBF01221A60EE
:1017E0001E4B1A68D0075CBF01221A601C4B1A6896
:1017F000D1075CBF01221A601A4B1A68D2075CBF7E
:1018000001221A60184B1A68D0075CBF01221A60C7
:10181000164B1A68D1075CBF01221A60144B1A6874
:10182000D2075CBF01221A60124B1A68D0075CBF56
:1018300001221A60104B1A68D1075CBF01221A609E
:101840000E4B1A68D2075CBF01221A60704700BFB6
:10185000BC050020B8050020B4050020B00500201C
:10186000AC050020A8050020A4050020A00500204C
:101870009C0500209805002094050020900500207C
:10188000244B1A68D0075CBF01221A60224B1A68E9
:10189000D1075CBF01221A60204B1A68D2075CBFD7
:1018A00001221A601E4B1A68D0075CBF01221A6021
:1018B0001C4B1A68D1075CBF01221A601A4B1A68C8
:1018C000D2075CBF01221A60184B1A68D0075CBFB0
:1018D00001221A60164B1A68D1075CBF01221A60F8
:1018E000144B1A68D2075CBF01221A60124B1A68A7
:1018F000D0075CBF01221A60104B1A68D1075CBF89
:1019000001221A600E4B1A68D2075CBF01221A60CE
:10191000704700BFEC050020E8050020E40500202A
:10192000E0050020DC050020D8050020D4050020BB
:10193000D0050020CC050020C8050020C4050020EB
:10194000C0050020184B1A68D1075CBF01221A603D
:10195000164B1A68D2075CBF01221A60144B1A6832
:10196000D0075CBF01221A60124B1A68D1075CBF16
:1019700001221A60104B1A68D2075CBF01221A605C
:101980000E4B1A68D0075CBF01221A600C4B1A6814
:10199000D1075CBF01221A600A4B1A68D2075CBFEC
:1019A00001221A60704700BF0C06002008060020C4
:1019B0000406002000060020FC050020F805002099
:1019C000F4050020F005002081F0004102E000BF96
:1019D00083F0004330B54FEA41044FEA430594EAEF
:1019E000050F08BF90EA020F1FBF54EA000C55EA2A
:1019F000020C7FEA645C7FEA655C00F0E2804FEAFB
:101A00005454D4EB5555B8BF6D420CDD2C4480EADC
:101A1000020281EA030382EA000083EA010180EA0C
:101A2000020281EA0303362D88BF30BD11F0004F5A
:101A30004FEA01314FF4801C4CEA113102D0404290
:101A400061EB410113F0004F4FEA03334CEA1333CB
:101A500002D0524263EB430394EA050F00F0A780E3
:101A6000A4F10104D5F1200E0DDB02FA0EFC22FADE
:101A700005F2801841F1000103FA0EF2801843FAD2
:101A800005F359410EE0A5F120050EF1200E012AC3
:101A900003FA0EFC28BF4CF0020C43FA05F3C01801
:101AA00051EBE37101F0004507D54FF0000EDCF17A
:101AB000000C7EEB00006EEB0101B1F5801F1BD323
:101AC000B1F5001F0CD349085FEA30004FEA3C0C27
:101AD00004F101044FEA445212F5800F80F09A801D
:101AE000BCF1004F08BF5FEA500C50F1000041EB21
:101AF000045141EA050130BD5FEA4C0C404141EB25
:101B0000010111F4801FA4F10104E9D191F0000F4B
:101B100004BF01460020B1FA81F308BF2033A3F1CE
:101B20000B03B3F120020CDA0C3208DD02F1140CC5
:101B3000C2F10C0201FA0CF021FA02F10CE002F100
:101B40001402D8BFC2F1200C01FA02F120FA0CFCF9
:101B5000DCBF41EA0C019040E41AA2BF01EB045142
:101B6000294330BD6FEA04041F3C1CDA0C340EDC40
:101B700004F11404C4F1200220FA04F001FA02F383
:101B800040EA030021FA04F345EA030130BDC4F141
:101B90000C04C4F1200220FA02F001FA04F340EA36
:101BA0000300294630BD21FA04F0294630BD94F0E7
:101BB000000F83F4801306BF81F480110134013DCE
:101BC0004EE77FEA645C18BF7FEA655C29D094EA3F
:101BD000050F08BF90EA020F05D054EA000C04BFBD
:101BE0001946104630BD91EA030F1EBF00210020A8
:101BF00030BD5FEA545C05D14000494128BF41F047
:101C0000004130BD14F580043CBF01F5801130BDAA
:101C100001F0004545F0FE4141F470014FF0000035
:101C200030BD7FEA645C1ABF194610467FEA655CE6
:101C30001CBF0B46024650EA013406BF52EA033588
:101C400091EA030F41F4002130BD00BF90F0000F76
:101C500004BF0021704730B54FF4806404F13204B2
:101C60004FF000054FF0000150E700BF90F0000F6B
:101C700004BF0021704730B54FF4806404F1320492
:101C800010F0004548BF40424FF000013EE700BF62
:101C900042004FEAE2014FEA31014FEA02701FBFF2
:101CA00012F07F4393F07F4F81F06051704792F0C4
:101CB000000F14BF93F07F4F704730B54FF460743E
:101CC00001F0004521F0004120E700BF50EA010289
:101CD00008BF704730B54FF000050AE050EA010236
:101CE00008BF704730B511F0004502D5404261EBA6
:101CF00041014FF4806404F132045FEA915C3FF4E7
:101D0000DCAE4FF003025FEADC0C18BF03325FEA7F
:101D1000DC0C18BF033202EBDC02C2F1200300FA34
:101D200003FC20FA02F001FA03FE40EA0E0021FA59
:101D300002F11444C1E600BF70B54FF0FF0C4CF443
:101D4000E06C1CEA11541DBF1CEA135594EA0C0FF9
:101D500095EA0C0F00F0DEF82C4481EA030621EA34
:101D60004C5123EA4C5350EA013518BF52EA03356F
:101D700041F4801143F4801338D0A0FB02CE4FF021
:101D80000005E1FB02E506F00042E0FB03E54FF051
:101D90000006E1FB03569CF0000F18BF4EF0010E49
:101DA000A4F1FF04B6F5007F64F5407404D25FEA45
:101DB0004E0E6D4146EB060642EAC62141EA5551F8
:101DC0004FEAC52040EA5E504FEACE2EB4F1FD0C3A
:101DD00088BFBCF5E06F1ED8BEF1004F08BF5FEAB8
:101DE000500E50F1000041EB045170BD06F000466A
:101DF00046EA010140EA020081EA0301B4EB5C0417
:101E0000C2BFD4EB0C0541EA045170BD41F480110E
:101E10004FF0000E013C00F3AB8014F1360FDEBF33
:101E2000002001F0004170BDC4F10004203C35DA0F
:101E30000C341BDC04F11404C4F1200500FA05F392
:101E400020FA04F001FA05F240EA020001F0004233
:101E500021F0004110EBD37021FA04F642EB0601A9
:101E60005EEA430E08BF20EAD37070BDC4F10C04D3
:101E7000C4F1200500FA04F320FA05F001FA04F297
:101E800040EA020001F0004110EBD37041F1000183
:101E90005EEA430E08BF20EAD37070BDC4F120058E
:101EA00000FA05F24EEA020E20FA04F301FA05F2F6
:101EB00043EA020321FA04F001F0004121FA04F29E
:101EC00020EA020000EBD3705EEA430E08BF20EA6E
:101ED000D37070BD94F0000F0FD101F000464000A8
:101EE00041EB010111F4801F08BF013CF7D041EA2A
:101EF000060195F0000F18BF704703F0004652002E
:101F000043EB030313F4801F08BF013DF7D043EAFE
:101F10000603704794EA0C0F0CEA135518BF95EAB4
:101F20000C0F0CD050EA410618BF52EA4306D1D13B
:101F300081EA030101F000414FF0000070BD50EA5A
:101F4000410606BF1046194652EA430619D094EAE4
:101F50000C0F02D150EA013613D195EA0C0F05D1CE
:101F600052EA03361CBF104619460AD181EA030122
:101F700001F0004141F0FE4141F470014FF00000DA
:101F800070BD41F0FE4141F4780170BD70B54FF075
:101F9000FF0C4CF4E06C1CEA11541DBF1CEA1355F5
:101FA00094EA0C0F95EA0C0F00F0A7F8A4EB0504D7
:101FB00081EA030E52EA03354FEA013100F08880CE
:101FC0004FEA03334FF0805545EA131343EA126397
:101FD0004FEA022245EA111545EA10654FEA00264C
:101FE0000EF000419D4208BF964244F1FD0404F505
:101FF000407402D25B084FEA3202B61A65EB030561
:102000005B084FEA32024FF480104FF4002CB6EB1D
:10201000020E75EB030E22BFB61A754640EA0C009D
:102020005B084FEA3202B6EB020E75EB030E22BFDD
:10203000B61A754640EA5C005B084FEA3202B6EB1E
:10204000020E75EB030E22BFB61A754640EA9C00DD
:102050005B084FEA3202B6EB020E75EB030E22BFAD
:10206000B61A754640EADC0055EA060E18D04FEA6B
:10207000051545EA16754FEA06164FEAC30343EA0B
:1020800052734FEAC2025FEA1C1CC0D111F4801FD8
:102090000BD141EA00014FF000004FF0004CB6E7D1
:1020A00011F4801F04BF01430020B4F1FD0C88BF70
:1020B000BCF5E06F3FF6AFAEB5EB030C04BFB6EB7B
:1020C000020C5FEA500C50F1000041EB045170BD6E
:1020D0000EF0004E4EEA113114EB5C04C2BFD4EB9B
:1020E0000C0541EA045170BD41F480114FF0000E1F
:1020F000013C90E645EA060E8DE60CEA135594EA9B
:102100000C0F08BF95EA0C0F3FF43BAF94EA0C0F9D
:102110000AD150EA01347FF434AF95EA0C0F7FF412
:1021200025AF104619462CE795EA0C0F06D152EA66
:1021300003353FF4FDAE1046194622E750EA41064A
:1021400018BF52EA43067FF4C5AE50EA41047FF45B
:102150000DAF52EA43057FF4EBAE12E74FEA4102BE
:10216000B2F1E04324BFB3F5001CDCF1FE5C0DD9F5
:1021700001F0004C4FEAC0024CEA5070B2F1004F3F
:1021800040EB830008BF20F00100704711F0804F42
:1021900021D113F13872BCBF01F00040704741F407
:1021A00080114FEA5252C2F11802C2F1200C10FA0B
:1021B0000CF320FA02F018BF40F001004FEAC123EF
:1021C0004FEAD32303FA0CFC40EA0C0023FA02F393
:1021D0004FEA4303CCE77FEA625307D150EA013369
:1021E0001EBF4FF0FE4040F44000704701F0004039
:1021F00040F0FE4040F40000704700BF10B5054CB1
:1022000013462CB10A4601460220AFF3008010BDF0
:10221000204610BD0000000010B5431E0A44914244
:1022200004D011F8014B03F8014FF8E710BD034645
:102230000244934202D003F8011BFAE77047000002
:1022400038B5124B05461C68A36BD3B91820FEF7AE
:102250001FFA43F20E33A06303804AF6CD33438066
:1022600041F2342383804EF26D63C3804DF6EC63FC
:102270000381052343810B23838101220023C0E9CD
:102280000423A36B00221D615A6138BD6400002045
:10229000024B0146186800F003B800BF640000203C
:1022A00070B5064608460C4600F00DF8451C294658
:1022B0003046FEF70DFA064618B12A462146FFF7CA
:1022C000ABFF304670BD034613F8012B002AFBD14B
:1022D000181A01387047000021000A0861000A0836
:1022E0008D000A0891000A08000000007477696CEC
:1022F000696F5F736D7300596F7572206368696CE5
:102300006420697320696E2074686520636172219E
:10231000000000000000000000000000E1060A08C4
:10232000E3060A08626175640053657269616C00B6
:1023300055534253657269616C3100747970650060
:10234000706172616D00636D6400696400686E6441
:10235000007374726D0066696C74006C766C006159
:10236000646448616E646C65720072656D6F766559
:1023700048616E646C657200656E756D48616E646F
:102380006C657273004A534F4E53747265616D4CA5
:102390006F6748616E646C65720061707000253013
:1023A00031307520005D20002564002C2000282994
:1023B0003A2000205B00636F6465203D20002569A2
:1023C0000064657461696C73203D20000D0A00662D
:1023D000006C6E00666E00636F6465006465746116
:1023E000696C006E6F6E6500747261636500696E82
:1023F000666F007761726E006572726F7200706155
:102400006E696300616C6C005A00252B3033643AAE
:10241000253032750025592D256D2D25645425480C
:102420003A254D3A2553257A0061736374696D65C9
:10243000000000000000000000000000990A0A08E7
:102440009F0A0A08E30A0A08AD0A0A089B0A0A0852
:10245000000000000000000031100A0821100A08E6
:1024600023100A080000000000000000ED100A0818
:102470003D110A084B110A08ED070A0829110A083C
:10248000EF100A0805110A0837110A081B110A087B
:10249000E9100A0800000000000000008D120A0880
:1024A000DD120A08EB120A08ED070A08A1120A0851
:1024B000C3120A08AF120A08D7120A088F120A08B4
:1024C00093120A080000000000000000B9130A0877
:1024D00003140A08DB130A08BB130A08E3130A08EB
:1024E000EB130A08F3130A08FB130A0800000000A4
:1024F000000000000D150A0803150A08F9140A085F
:1025000077140A0897080A08ED140A08E1140A0863
:10251000D9140A08CF140A08C5140A0881140A0835
:1025200000000000000000002D150A0837150A08F9
:1025300041150A084B150A0855150A0861150A08BD
:102540006D150A0879150A0881150A088B150A08FD
:1025500095150A08000000000000000000000000BF
:10256000000000000000000000000000000000006B
:10257000000000000000000000000000000000005B
:10258000000000000000000000000000000000004B
:10259000000000000000000000000000000000003B
:1025A000000000000000000000000000000000002B
:1025B000000000004300000049010A0821030A0846
:1025C00021070A08DD080A08ED080A0845090A0873
:1025D00019150A08E5150A0871160A08B5160A0839
:1025E00039170A08BD170A0881180A0845190A0888
:0425F00000000000E7
:1025F40029240A080000000054250A0874250A0842
:1026040094250A08000000000000000000000000FB
:1026140000000000B4250A080000000000000000CB
:1026240000000000000000000000000000000000A6
:102634000000000000000000000000000000000096
:102644000000000000000000000000000000000086
:0826540000000000040000205A
:10265C00FFFFFFFF00000102030405060708090A3B
:10266C000B0C0D0E0F101112131415161718191A36
:08267C001B1C1D1E1F2028007D
:04268400785634123E
:04000005080A0020C5
:00000001FF
