:02000002D0002C
:1040000000400D00A06C0D00000006000D00050131
:0840100004017E050000000020
:044018006C680D00C3
:1040200009480A49884208B505D0094A824202D0A7
:10403000121A02F0BBFB0748074A0021121A02F0CD
:10404000C0FB014808BD00BF14E30320106C0D0045
:104050007CE303207CE30320F0E7032070B500F04D
:1040600059FE074C074BE41AA40800251E46A5423A
:1040700004D056F8253098470135F8E770BD00BFE9
:10408000086C0D00C86B0D0000F016B808B500F004
:1040900055F8BDE8084000F00BBE00F05DBB00F035
:1040A00063BB00F061BB0078B0FA80F04009704754
:1040B000012303707047000008B501F0DDF94FF4EB
:1040C000165101F0CDF94421064800F0BCF801F08A
:1040D000D3F94FF4E13101F0C3F96420BDE80840A1
:1040E00000F098BD80E303201FB5114B02681B78D8
:1040F0008DF800300F493C2302A800F067FF039CB5
:104100007CB16368013B63605BB9236820469B68B0
:104110009847A368013BA3601BB923682046DB686E
:10412000984701F0A9F9044900F054FC04B010BD0F
:104130009CE3032080680D008B680D0010B52DED09
:10414000028B1A4882B000F013F98DED010A01F0DC
:1041500093F99DED010A044610EE100A01F07CFF70
:1041600041EC100B0221204600F03EFD112001F031
:1041700063FC08EE100A01F07FF9F8EEC87A0446F5
:1041800017EE900A01F068FF41EC100B0221204667
:1041900000F02AFD0648FFF7A7FF642002B0BDEC3F
:1041A000028BBDE8104000F035BD00BF80E3032066
:1041B0008CE3032010B50A4B0A4C01221A7000F060
:1041C000F7F80949204600F0A0FB2046074A0849B5
:1041D00001F08CFC0748BDE8104000F011B800BFAA
:1041E0009CE303208CE303209A680D007CE303200A
:1041F0007D480D0080E303200368C9B29B6818471F
:10420000704738B505460C4601F050FC297801F09E
:104210008BFA01F04BFC210AFFF7EEFF01F046FCA0
:10422000E1B2FFF7E9FF01F041FCBDE8384001F0E1
:1042300083BA08B543F2A201FFF7E3FF0A20BDE805
:10424000084000F0E7BC38B504460D4601F02EFCEE
:1042500001F058FA20462570FFF7EBFF012038BD2A
:104260000A44FF2091420ED011F8013B5840082328
:1042700010F0800F4FEA400018BF80F03100013B82
:10428000C0B2F5D1EEE7704773B54FF41051044654
:10429000FFF7B7FF4FF4FA7000F0BCFC01F006FC2A
:1042A0000622217801F03DFA01F000FC03681B6949
:1042B000984706284AD1002501F0F8FB03685B699E
:1042C00098470DF805000135062DF5D10222694603
:1042D0002046FFF7C5FF9DF80250854236D10222E5
:1042E0000DF103012046FFF7BBFF9DF80550854205
:1042F0002CD1BDF800009DF803609DF8045040BA31
:1043000080B201F087FE18A3D3E9002301F0F8FE84
:1043100011A3D3E9002302F01DF80022104B01F095
:104320003BFD02F0E5F9A06045EA062001F072FECF
:1043300000220C4B01F0E4FE07A3D3E9002302F0B6
:1043400009F802F0D5F96060012000E0002002B019
:1043500070BD00BFAFF3008000000000E0FFEF4041
:1043600000804640000059400000000000E0654029
:1043700010B50446FFF788FF10B194ED020A10BD96
:104380009FED010A10BD00BF0000C07F00F010B813
:1043900008B5024B1B689B68019308BD68020300C7
:1043A00008B5024B1B68DB68019308BD6802030077
:1043B00008B5024B1B681B68019308BD2C02030063
:1043C00008B5024B1B685B68019308BD2C02030013
:1043D00008B5024B1B681B6B019308BD2C02030040
:1043E00008B5024B1B68DB69019308BD300203006E
:1043F00008B5024B1B681B6A019308BD300203001D
:1044000008B5024B1B685B68019308BD18020300E6
:1044100008B5024B1B685B69019308BD18020300D5
:1044200008B5024B1B689B68019308BD4802030056
:1044300008B5024B1B681B69019308BD48020300C5
:1044400008B5024B1B685B69019308BD4802030075
:1044500008B5024B1B681B6B019308BD48020300A3
:1044600008B5024B1B685B6C019308BD4802030052
:1044700008B5024B1B685B69019308BD6402030029
:1044800008B5024B1B681B68019308BD3C02030082
:1044900008B5024B1B68DB68019308BD3C020300B2
:1044A00008B5024B1B681B69019308BD3C02030061
:1044B00008B5024B1B685B69019308BD3C02030011
:1044C00008B5024B1B689B69019308BD3C020300C1
:1044D00008B5024B1B68DB69019308BD3C02030071
:1044E00008B5024B1B681B6A019308BD3C02030020
:1044F00008B5024B1B689B6A019308BD3C02030090
:1045000008B5024B1B68DB68019308BD2802030055
:1045100008B5024B1B685B69019308BD28020300C4
:1045200008B5024B1B689B69019308BD2802030074
:1045300008B5024B1B68DB69019308BD2802030024
:1045400008B5024B1B681B6A019308BD28020300D3
:1045500008B5024B1B685B6A019308BD2802030083
:1045600008B5024B1B689B6A019308BD2802030033
:1045700008B5024B1B68DB6A019308BD28020300E3
:1045800008B5024B1B681B6B019308BD2802030092
:1045900008B5024B1B685B6B019308BD2802030042
:1045A00008B5024B1B681B6C019308BD2802030071
:1045B00008B5024B1B681B68019308BD4C02030041
:1045C00008B5024B1B685B68019308BD4C020300F1
:1045D00008B5024B1B681B69019308BD4C02030020
:1045E00008B5024B1B685B69019308BD4C020300D0
:1045F00008B5024B1B689B69019308BD4C02030080
:1046000008B5024B1B68DB69019308BD4C0203002F
:1046100008B5024B1B681B6A019308BD4C020300DE
:1046200008B5024B1B685B68019308BD20020300BC
:1046300008B5024B1B685B69019308BD20020300AB
:1046400008B5024B1B68DB6C019308BD2002030018
:1046500008B5024B1B685B6D019308BD2002030087
:1046600008B5034B1B68D3F88830019308BD0000E0
:104670002002030008B5034B1B68D3F89430019364
:1046800008BD00002002030008B5024B1B685B68F0
:10469000019308BD4002030008B5024B1B689B68EC
:1046A000019308BD4002030008B5024B1B68DB689C
:1046B000019308BD4002030008B5024B1B681B694B
:1046C000019308BD4002030008B5024B1B685B69FB
:1046D000019308BD4002030008B5024B1B689B69AB
:1046E000019308BD4002030008B5024B1B68DB695B
:1046F000019308BD4002030008B5024B1B681B6A0A
:10470000019308BD4002030008B5024B1B681B6BF8
:10471000019308BD4002030008B5024B1B685B6BA8
:10472000019308BD4002030008B5024B1B685B699A
:10473000019308BD4402030008B5024B1B681B6AC5
:10474000019308BD4402030008B5024B1B68DB6BF4
:10475000019308BD4402030008B5024B1B681B68A7
:10476000019308BD1C02030008B5024B1B685B687F
:10477000019308BD1C02030008B5024B1B689B682F
:10478000019308BD1C02030008B5024B1B68DB6ADD
:10479000019308BD1C02030008B5024B1B681B6B8C
:1047A000019308BD1C020300002211464068FFF778
:1047B000A3BF002211464068FFF7AEBF0022406849
:1047C000FFF7A2BF002281F001014068FFF78CBF14
:1047D00000231A4619464068FFF77EBF00231A4699
:1047E00019464068FFF770BF002211464068FFF786
:1047F00063BF002211464068FFF74EBF002202212E
:104800004068FFF751BF00231A464068FFF73CBFDE
:10481000024B03225A60024A1A607047A0E3032049
:10482000BC680D00704710B51021044601F063F913
:10483000204610BD70B5084B0360044600250E46A7
:1048400040F80C5FFFF704FE30462671FFF7C8FD05
:10485000A560204670BD00BFF0680D000079FFF72D
:10486000C7BD0000044B00204FF6FF72187058803F
:104870009A80FFF7D5BE00BFA8E3032010B5044619
:104880000068FFF771FF204610BD10B504460068B0
:1048900008B1FFF769FF00232360A360636010BDC8
:1048A00038B504460D4600680131FFF765FF10B1C9
:1048B00084E82100012038BD10B50368044613B117
:1048C00043688B4207D22046FFF7EAFF20B1A36876
:1048D0000BB922681370012010BD70B50E46114649
:1048E00004461546FFF7E8FF18B92046FFF7CDFF4D
:1048F00009E02A463146A560206801F057FF22688A
:10490000A3680021D154204670BD38B50023044669
:1049100003604360836003730D4639B1084601F0BC
:104920009CFF294602462046FFF7D7FF204638BDA8
:1049300010B5036804469B689847A368013BA360D1
:104940002BB923682046DB68BDE81040184710BD2E
:104950000B68036013B15A6801325A60704710B592
:104960000446006828B14368013B43600BB9FFF778
:10497000DFFF204610BD0000024800230360FFF760
:104980006FBD00BFB0E30320F8B506460D468F1893
:104990000024BD420CD0336815F8011B9B683046DB
:1049A0009847002801DB0444F3E7002C08BF0446C5
:1049B0002046F8BD70B505460C46084649B101F0E1
:1049C0004CFF2B68024621462846DB68BDE8704054
:1049D000184770BD08B5FFF7EDFF08BD03689B6879
:1049E000184730B58BB00B4600218DF82410012AF2
:1049F00098BF0A220DF12304B3FBF2F505FB123335
:104A000003F0FF03092B94BF30333733DBB2214669
:104A100004F801392B46002DEED1FFF7CBFF0BB088
:104A200030BD10B42AB903685DF8044B9B68C9B265
:104A30001847D2B25DF8044BFFF7D3BFFFF7F1BFC1
:104A40002DE9F04107460E4615462AB90368C9B25A
:104A50009B68BDE8F04118470A2A02D1002901DA13
:104A600004E0D2B2BDE8F041FFF7BBBF2D21FFF754
:104A7000B5FF2A46044671423846FFF7B2FF20448C
:104A8000BDE8F0812DE9F04757EC106B82460D46EA
:104A900010EE102A3B4610EE100A394601F0CAFD0E
:104AA00008B1484912E027F000494FF0FF32464B69
:104AB0003046494601F0BEFD68B94FF0FF32424B27
:104AC0003046494601F098FD28B940495046FFF765
:104AD00071FFBDE8F0874FF060423D4B30463946EC
:104AE00001F09EFD08B13B49F0E74FF060423A4BC0
:104AF0003046394601F076FD0028F4D1002200232B
:104B00003046394601F06EFD40B12D215046FFF789
:104B100065FF07F1004304461F4600E004462F49A5
:104B20004FF0000800205FFA88F39D4206D900226A
:104B30002B4B01F00FFC08F10108F4E732463B462D
:104B400001F02CF90F46064601F0B2FD0A2201469B
:104B500080465046FFF745FF04447DB3404601F0D0
:104B600059FA02460B463046394601F015F9064619
:104B70000F4650461B49FFF71DFF0444184B002207
:104B80003046394601F0BCFA0F46064601F068FD92
:104B90000A22014680465046FFF752FF0444404631
:104BA00001F048FA02460B463046394601F0F4F867
:104BB000013D15F0FF0506460F46DFD12046BDE852
:104BC000F08700BFF8680D00FFFFEF7F02690D005E
:104BD000FFFFEF41FC680D00FFFFEFC10000E03F69
:104BE0000000244000690D00C9B2FFF74BBF000070
:104BF000014B024A1A607047B4E3032079690D0043
:104C0000024B1A68024B1A60704700BF14E303207E
:104C1000B8E303200021FFF70BBD10B583680446FD
:104C200013B1032201469847204610BD10B5044633
:104C3000FFF7F3FF204610BD13B50B46044603C82B
:104C40008DE8030093E8030084E803009DE8030077
:104C500083E8030002B010BD0348044A044900235E
:104C6000836000F043BF00BFBCE303207CE303206C
:104C70002D4C0D0008B50C4B33B100F0FDFB036863
:104C80001B699847002809DC084B63B100F0C2FC9F
:104C900003681B699847002803DC08BDAFF3008058
:104CA000F2E7AFF3008008BD000000000000000044
:104CB00008B5FFF7DFFFFFF7ABFB014B186008BD3E
:104CC00034E7032007B5002300931A466FF07701FD
:104CD000FFF7D0FC03B05DF804FB000007B5438884
:104CE0000A2B08D0502B09D1094B1B683BB103B0EC
:104CF0005DF804EB1847FFF7E5FF06E0002300939B
:104D00001A466FF07701FFF7B5FC03B05DF804FBBE
:104D1000CCE3032010B5FFF773FB044601F05AFD06
:104D2000074B13B12046AFF3008000210448FFF782
:104D30000BFD00210348BDE81040FFF791BC00BF08
:104D400000000000DD4C0D0070470020704710B5DA
:104D50001021044600F0CFFE204610BD08B508B172
:104D6000FFF7F5FF08BD0022026010B54FF69C72F8
:104D70008280B1F9044084808A8002680C680460F3
:104D80000A6010BD10B504460068FFF7EDFC204630
:104D900010BD38B5C468F4B12378022B03D104F1F7
:104DA0000C00FFF7EFFF656835B12846FFF735FFC8
:104DB0001021284600F09FFEA56835B12846FFF770
:104DC0002CFF1021284600F096FE20461421BDE855
:104DD000384000F090BE38BD13B5044691E8050098
:104DE00000234B600B602060626001A80193009378
:104DF000FFF7B5FD204602B010BDF7B50C4602AD79
:104E000054F8043B45F8083D06460F4601A82146E4
:104E1000FFF79EFD29463046FFF7DEFF01A8FFF7AA
:104E20009EFD2046FFF79BFD3846082100F063FEFB
:104E3000304603B0F0BD000038B5002304460360DF
:104E400010200D46FFF729F928B101234360836044
:104E5000024B0360C5602060204638BD186A0D0013
:104E6000826810B50AB900F048FEC368BDE810407A
:104E7000184708B5006800F11001FFF7F1FF08BD01
:104E8000826810B50AB900F038FEC368BDE810406A
:104E9000184708B5006800F11001FFF7F1FF08BDE1
:104EA00038B5002383608B6804460D462BB102227F
:104EB0009847EB68E360AB68A360204638BD00000C
:104EC000F0B589B004686846FFF74DFF00238DF800
:104ED00008304FF00202D4E84F3F002B03D1C4E862
:104EE000412F0029F7D102D08DF8083063E014F18A
:104EF0000C0503D069462846FFF735FFBFF35F8FE7
:104F000001236370002004F10803BFF35F8F53E8AF
:104F1000006F43E80002002AF9D1BFF35F8F002E33
:104F200049D0FFF78DFB20B129463046FFF798FFA7
:104F30003AE0314602A8FFF7B3FFE068B4F9105039
:104F400008B101F06FFC06901020ADF81C50FFF77F
:104F5000A4F80546E8B1002787601820FFF79DF800
:104F6000044688B10146876002A8FFF765FE049BEE
:104F7000A268A360059B049206A9E268E36004F1BD
:104F800010000592FFF7EFFE0D4BEB600D4B2C6010
:104F9000AB6006A8FFF7F6FE02A8FFF73EFE002270
:104FA00029460948FFF754FB3046FFF736FE10212B
:104FB000304600F0A0FD6846FFF7E4FE09B0F0BD02
:104FC000734E0D00E9500D0061560D002DE9F04FB4
:104FD0008BB006460F46904699469DF850A0FFF7C5
:104FE000A3FB07AD834630BB4FF62E73059005A992
:104FF0002846ADF81830FFF7B6FE1420FFF74DF83D
:10500000044658B10223037001234370C0F804B072
:10501000C0F808B029460C30FFF7A5FE30462146FF
:1050200040F8044BFFF708FF2846FFF7ABFE05A842
:10503000FFF7A8FE52E000240C2314206C60AC6043
:105040000793FFF72AF8014618B1047044704460D2
:10505000846004A80391FFF7EFFE224B0893082019
:10506000FFF71BF8044628B1039B40F8043B04A952
:10507000FFF76EFC00955FFA8AF34A4641463846D0
:105080000994FFF759FB20B9039B5B7803F0FF02FB
:1050900083B1039B059304A906A8FFF759FC05A952
:1050A0003046FFF799FE06A8FFF759FC04A8FFF762
:1050B00056FC13E04FF69C7305A903A80592ADF8C2
:1050C0001830FFF7FDFE05A8FFF75CFE05A809995B
:1050D000FFF793FE06A8FFF742FCDAE730460BB075
:1050E000BDE8F08F59520D00022AF8B5044606D0EB
:1050F000032A17D0012A22D10B6803601FE0182071
:105100000E68FEF7CAFF054650B13146FFF7C8FEEC
:105110003069B6F9147008B101F084FB2861AF82E0
:1051200025600CE0046854B104F11000FFF72AFE7A
:105130002046FFF772FD1821204600F0DCFC00201D
:10514000F8BD38B5002383608B6804460D462BB14B
:1051500002229847EB68E360AB68A360204638BD45
:10516000022A70B5044606D0032A11D0012A18D1AC
:105170000B68036015E014200E68FEF78EFF0546ED
:1051800020B13146FFF7DDFF337C2B74256008E04A
:10519000046834B12046FFF740FD1421204600F09A
:1051A000AAFC002070BD0000F0B5002387B00C46BB
:1051B000BFF35F8F50E8006F40E80032002AF9D15A
:1051C000BFF35F8F002E3FD01846FFF739FA07462E
:1051D00020B121463046FFF753FE2EE0314601A8AC
:1051E000FFF7AFFF23788DF814301020FEF755FF3E
:1051F0000546D0B187601420FEF74FFF044678B112
:105200008760014601A8FFF717FD039BA268A36012
:10521000049B0392E268E3609DF8143004922374C7
:105220000A4BEB600A4B2C60AB6001A8FFF7F5FC62
:10523000002229460748FFF70BFA3046FFF7EDFC3E
:105240001021304600F057FC07B0F0BD934E0D0022
:1052500061510D0061560D0030B585B004460D4614
:1052600068461146FFF7C9FD7CB124B228460DB14E
:1052700001F0D8FA029002A96846ADF80C40FFF799
:105280001FFE02A8FFF77EFD1DE000988DF8084084
:105290004FF00102D0E84F3FA34203D1C0E8412FB5
:1052A0000029F7D102D08DF808300CE010F10C0184
:1052B0004FF0010318BF0373BFF35F8F043000F892
:1052C000033CFFF771FF01A8FFF749FB05B030BDB4
:1052D000704710B51821044600F00DFC204610BDA3
:1052E000F0B5037D062B8DB00E4600F104074FF09C
:1052F000000402D000F1080518E00CAD394605F8AD
:10530000304D2F232A460A20FFF7B2F8284601F035
:10531000A4FA33680246DB682946304698470FE016
:1053200024B12E213046FFF759FB044415F8011D26
:105330000A223046FFF782FBBD420444F0D12046EA
:105340000DB0F0BD10B5054B0446112240F8043BEA
:10535000002101F036FA204610BD00BF346A0D006E
:105360000346074A10B543F8042B01F1100251F827
:10537000044B43F8044B9142F9D10A781A7010BDDE
:10538000346A0D0010B59DF8084044EA032343EA4F
:10539000024242EA016104234160037510BD37B542
:1053A0000D788B784A78C97800912946FFF7EAFF93
:1053B00003B030BD41747047704708B50021007CD0
:1053C000FFF716F930EA200028BF4FF0FF3008BD84
:1053D00008B50121007CFFF70BF930EA200028BF57
:1053E0004FF0FF3008BD08B5007CFFF7F9F820EA60
:1053F000E07008BD08B5007CFFF7EAF820EAE0702D
:1054000008BD007CFFF704B910B51421044600F074
:1054100072FB204610BD38B50446007C0D46FFF7F0
:10542000DFF8002801DC607C28B12946207CFFF7EA
:10543000E7F820EAE07038BD10B504460023636049
:105440004FF47A73A360054B23600123084621744F
:1054500063741146FFF7ACF8204610BD486A0D0092
:105460000022007CFFF7ACB810B5142204460021DE
:1054700001F0A7F9204610BD30B50E4D87B001A848
:10548000FFF7F2FF296811F0010410D12846FEF75A
:105490000AFE60B101AA21460748FFF7CDFF284662
:1054A000FEF706FE054A0649034800F01FFB0248C6
:1054B00007B030BDD0E30320D4E303207CE3032016
:1054C000B9530D00002211464068FFF7F5B80022DD
:1054D00011464068FFF710B9002211464068FFF7F7
:1054E0001BB900224068FFF70FB9002281F00101CB
:1054F0004068FFF7F9B800231A4619464068FFF7DD
:10550000EBB800231A4619464068FFF7DDB80022C1
:1055100011464068FFF7C0B8002202214068FFF73B
:10552000C3B800231A464068FFF7AEB838B5084C38
:1055300028252A460021204601F043F94FF0FF3389
:105540006360044B258004225A60034A1A6038BD08
:10555000F0E30320E8E30320786A0D00704741740C
:10556000704708B5007CFEF7C3FF20EAE07008BD75
:1055700008B5007CFEF794FF20EAE07008BD08B58E
:10558000007CFEF79DFF30EA200028BF4FF0FF307F
:1055900008BD08B5007CFEF78BFF30EA200028BF6D
:1055A0004FF0FF3008BD007CFEF792BF10B514210C
:1055B000044600F0A0FA204610BD70B5457C0446B4
:1055C0000E4625B9007CFEF793FF002805DD314625
:1055D000207CBDE87040FEF75BBF284670BD000030
:1055E00010B5044608461146002262604FF47A72F4
:1055F000A260054A22600122207462741A46FEF7F6
:105600003FFF204610BD00BFAC6A0D00007CFEF7D6
:1056100067BF000038B50C4D296811F0010411D1A5
:105620002846FEF740FD68B1084A094B0948214663
:10563000FFF7D6FF2846FEF73BFD074A0749054816
:1056400000F054FA034838BDB0E40320B4E403206A
:105650002CE4032018E403207CE303205D550D00B7
:1056600010B5836804460BB900F047FAC368984741
:10567000A3681BB1032221462046984720461021EB
:10568000BDE8104000F037BA7047F8B50646154639
:105690000C468F18BC4206D0336814F8011B9B6877
:1056A00030469847F6E72846F8BD0022007CFEF712
:1056B00047BF0021007CFEF74BBF0021007CFEF7B6
:1056C0004FBF0021007CFEF753BF0021007CFEF796
:1056D00057BF10B51421044600F00DFA204610BD46
:1056E00010B504464FF47A730846A3600021044BBA
:1056F000207461602360FEF753FF204610BD00BF99
:10570000DC6A0D0000231A461946007CFEF7F8BE3D
:1057100013B50024007C0094FEF7FAFEC0B202B07C
:1057200010BD0123FFF7F4BF0022007CFEF7F8BE96
:105730000022007CFEF7FCBE0121FFF7F9BF00212B
:10574000007CFEF725BF002211464068FEF7D4BF5B
:10575000002211464068FEF7DFBF00224068FEF7D6
:10576000D3BF002281F001014068FEF7BDBF0023D6
:105770001A4601214068FEF7AFBF00231A461946BA
:105780004068FEF7A1BF002211464068FEF794BFB3
:10579000002211464068FEF77FBF002202214068C8
:1057A000FEF782BF00231A464068FEF76DBF38B58A
:1057B000054688B104684CB1A3681BB10322214699
:1057C000204698471021204600F095F928461421DC
:1057D000BDE8384000F08FB938BD10B103685B6890
:1057E0001847704710B503680446BBB15868FEF708
:1057F00017FE78B923685A7C12B95868FEF718FE6C
:1058000023685868FEF71CFE20680023236028B137
:10581000FFF7CDFF206808B1FFF7C9FF204610BD94
:1058200038B50C4B03600446D0F8CC0108B1FEF744
:1058300038FCD4F8C45135B12846FFF7D3FF042112
:10584000284600F058F9A06808B1FFF7C6FF2046C7
:1058500038BD00BF046B0D0038B50E4C0E4B2360F5
:105860000025022304F5E4706360A560C4F8C45108
:10587000C4F8C851FEF7F4FD084BC4F8CC5184F8C5
:10588000D05123602046064A0649BDE8384000F062
:105890002DB900BF38E50320386B0D00046B0D00F7
:1058A0007CE3032021580D0000231A464068FEF7D0
:1058B000EBBE002202214068FEF7F6BE0022114630
:1058C0004068FEF7E9BE002211464068FEF7F4BECC
:1058D00000231A4619464068FEF7F6BE00231A4612
:1058E00019464068FEF7F8BE002281F001014068C9
:1058F000FEF7FABE00224068FEF706BF00221146FE
:105900004068FEF709BF002211464068FEF7F4BE6A
:105910002DE9F043002495B016460D460746FFF7E3
:1059200011FD214620220CA8009400F04AFF4023DC
:105930000C9321466B460CAA3046FEF731FD044617
:10594000002844D1024601216868FEF7B5FE022115
:10595000804622466868FEF7AFFE009E81462146DB
:10596000002E34D0002932D17368022B02D00A2BCA
:1059700009D02AE0B8F1000F27D071693846043108
:10598000FFF70DFD20E0B9F1000F1ED07469112260
:1059900001A800F016FF06238DF8143001AD04F1C4
:1059A00008031834186859682A4603C20833A3420A
:1059B0001546F7D101A906A807ADFFF7D1FC0FCD19
:1059C0003C1D0FC42B6823700121F669C8E70098BD
:1059D000FEF7DEFC384615B0BDE8F083024B034A03
:1059E0001A6000225A6070470CE70320386B0D00E4
:1059F00010B504460F48FEF731FF28B1A4F10B03A0
:105A0000022B01D8002010BD00F050F8FFF797FEE0
:105A100008B1012CF6D9FFF7FDFDFFF7F7FD18B12E
:105A2000A4F10903012BEDD9232C8CBF0020012008
:105A300010BD00BF14E703200D2810B504469CBF1D
:105A40000E34A4B22046FFF7D3FF50B10321204605
:105A5000FEF7B6FC032804D12046BDE81040FEF74F
:105A6000B7BC002010BD000070B50C4C0C4E0D4DA5
:105A700000212046FEF7DEFE20460B4C324629462A
:105A800000F034F801212046FEF7D4FE32462946C4
:105A90002046BDE8704000F029B800BF14E703209D
:105AA0007CE3032025480D0024E7032038B50B4D87
:105AB000296811F001040FD12846FEF7F4FA58B115
:105AC00021460748FFF70CFE2846FEF7F1FA054A83
:105AD0000549034800F00AF8014838BD38E70320BB
:105AE0003CE703207CE3032089560D000B4601466A
:105AF000184600F04DBEFEF7D2BA08B5FEF744FED8
:105B0000184B1A68D1075CBF01221A60164B1A683D
:105B1000D2075CBF01221A60144B1A68D0075CBF21
:105B200001221A60124B1A68D1075CBF01221A6069
:105B3000104B1A68D2075CBF01221A600E4B1A681C
:105B4000D0075CBF01221A600C4B1A68D1075CBFFA
:105B500001221A600A4B1A68D2075CBF01221A6040
:105B6000704700BF6CE7032068E7032064E7032069
:105B700060E703205CE7032058E7032054E7032095
:105B800050E70320244B1A68D0075CBF01221A603B
:105B9000224B1A68D1075CBF01221A60204B1A6899
:105BA000D2075CBF01221A601E4B1A68D0075CBF87
:105BB00001221A601C4B1A68D1075CBF01221A60CF
:105BC0001A4B1A68D2075CBF01221A60184B1A6878
:105BD000D0075CBF01221A60164B1A68D1075CBF60
:105BE00001221A60144B1A68D2075CBF01221A60A6
:105BF000124B1A68D0075CBF01221A60104B1A685A
:105C0000D1075CBF01221A600E4B1A68D2075CBF35
:105C100001221A60704700BF9CE7032098E7032029
:105C200094E7032090E703208CE7032088E7032014
:105C300084E7032080E703207CE7032078E7032044
:105C400074E7032070E70320244B1A68D0075CBF79
:105C500001221A60224B1A68D1075CBF01221A6028
:105C6000204B1A68D2075CBF01221A601E4B1A68CB
:105C7000D0075CBF01221A601C4B1A68D1075CBFB9
:105C800001221A601A4B1A68D2075CBF01221A60FF
:105C9000184B1A68D0075CBF01221A60164B1A68AD
:105CA000D1075CBF01221A60144B1A68D2075CBF8F
:105CB00001221A60124B1A68D0075CBF01221A60D9
:105CC000104B1A68D1075CBF01221A600E4B1A688C
:105CD000D2075CBF01221A60704700BFCCE70320E7
:105CE000C8E70320C4E70320C0E70320BCE7032084
:105CF000B8E70320B4E70320B0E70320ACE70320B4
:105D0000A8E70320A4E70320A0E70320184B1A68A4
:105D1000D1075CBF01221A60164B1A68D2075CBF1C
:105D200001221A60144B1A68D0075CBF01221A6066
:105D3000124B1A68D1075CBF01221A60104B1A6817
:105D4000D2075CBF01221A600E4B1A68D0075CBFF5
:105D500001221A600C4B1A68D1075CBF01221A603D
:105D60000A4B1A68D2075CBF01221A60704700BF55
:105D7000ECE70320E8E70320E4E70320E0E7032063
:105D8000DCE70320D8E70320D4E70320D0E7032093
:105D900081F0004102E000BF83F0004330B54FEADC
:105DA00041044FEA430594EA050F08BF90EA020F49
:105DB0001FBF54EA000C55EA020C7FEA645C7FEADC
:105DC000655C00F0E2804FEA5454D4EB5555B8BFFF
:105DD0006D420CDD2C4480EA020281EA030382EA70
:105DE000000083EA010180EA020281EA0303362D02
:105DF00088BF30BD11F0004F4FEA01314FF4801CD5
:105E00004CEA113102D0404261EB410113F0004FE6
:105E10004FEA03334CEA133302D0524263EB43039D
:105E200094EA050F00F0A780A4F10104D5F1200E3B
:105E30000DDB02FA0EFC22FA05F2801841F1000196
:105E400003FA0EF2801843FA05F359410EE0A5F16A
:105E500020050EF1200E012A03FA0EFC28BF4CF09B
:105E6000020C43FA05F3C01851EBE37101F0004551
:105E700007D54FF0000EDCF1000C7EEB00006EEB5E
:105E80000101B1F5801F1BD3B1F5001F0CD34908E8
:105E90005FEA30004FEA3C0C04F101044FEA44523F
:105EA00012F5800F80F09A80BCF1004F08BF5FEAC6
:105EB000500C50F1000041EB045141EA050130BDA6
:105EC0005FEA4C0C404141EB010111F4801FA4F149
:105ED0000104E9D191F0000F04BF01460020B1FA9E
:105EE00081F308BF2033A3F10B03B3F120020CDAD6
:105EF0000C3208DD02F1140CC2F10C0201FA0CF0B4
:105F000021FA02F10CE002F11402D8BFC2F1200C18
:105F100001FA02F120FA0CFCDCBF41EA0C019040CE
:105F2000E41AA2BF01EB0451294330BD6FEA040417
:105F30001F3C1CDA0C340EDC04F11404C4F1200202
:105F400020FA04F001FA02F340EA030021FA04F314
:105F500045EA030130BDC4F10C04C4F1200220FA6B
:105F600002F001FA04F340EA0300294630BD21FAA9
:105F700004F0294630BD94F0000F83F4801306BF6F
:105F800081F480110134013D4EE77FEA645C18BF63
:105F90007FEA655C29D094EA050F08BF90EA020FFA
:105FA00005D054EA000C04BF1946104630BD91EAF2
:105FB000030F1EBF0021002030BD5FEA545C05D1F5
:105FC0004000494128BF41F0004130BD14F5800434
:105FD0003CBF01F5801130BD01F0004545F0FE41A8
:105FE00041F470014FF0000030BD7FEA645C1ABFDD
:105FF000194610467FEA655C1CBF0B46024650EA14
:10600000013406BF52EA033591EA030F41F400213F
:1060100030BD00BF90F0000F04BF0021704730B5C5
:106020004FF4806404F132044FF000054FF000019A
:1060300050E700BF90F0000F04BF0021704730B55B
:106040004FF4806404F1320410F0004548BF404230
:106050004FF000013EE700BF42004FEAE2014FEA85
:1060600031014FEA02701FBF12F07F4393F07F4F60
:1060700081F06051704792F0000F14BF93F07F4F92
:10608000704730B54FF4607401F0004521F00041D5
:1060900020E700BF50EA010208BF704730B54FF05B
:1060A00000050AE050EA010208BF704730B511F060
:1060B000004502D5404261EB41014FF4806404F198
:1060C00032045FEA915C3FF4DCAE4FF003025FEA1A
:1060D000DC0C18BF03325FEADC0C18BF033202EBA2
:1060E000DC02C2F1200300FA03FC20FA02F001FAFC
:1060F00003FE40EA0E0021FA02F11444C1E600BF9B
:1061000070B54FF0FF0C4CF4E06C1CEA11541DBF4D
:106110001CEA135594EA0C0F95EA0C0F00F0DEF818
:106120002C4481EA030621EA4C5123EA4C5350EAFD
:10613000013518BF52EA033541F4801143F480134E
:1061400038D0A0FB02CE4FF00005E1FB02E506F0DF
:106150000042E0FB03E54FF00006E1FB03569CF034
:10616000000F18BF4EF0010EA4F1FF04B6F5007F3A
:1061700064F5407404D25FEA4E0E6D4146EB0606AC
:1061800042EAC62141EA55514FEAC52040EA5E5035
:106190004FEACE2EB4F1FD0C88BFBCF5E06F1ED8DF
:1061A000BEF1004F08BF5FEA500E50F1000041EB16
:1061B000045170BD06F0004646EA010140EA0200C3
:1061C00081EA0301B4EB5C04C2BFD4EB0C0541EAE5
:1061D000045170BD41F480114FF0000E013C00F3FA
:1061E000AB8014F1360FDEBF002001F0004170BD1E
:1061F000C4F10004203C35DA0C341BDC04F1140437
:10620000C4F1200500FA05F320FA04F001FA05F2C2
:1062100040EA020001F0004221F0004110EBD3708F
:1062200021FA04F642EB06015EEA430E08BF20EABB
:10623000D37070BDC4F10C04C4F1200500FA04F35E
:1062400020FA05F001FA04F240EA020001F00041F0
:1062500010EBD37041F100015EEA430E08BF20EA63
:10626000D37070BDC4F1200500FA05F24EEA020EAB
:1062700020FA04F301FA05F243EA020321FA04F0DA
:1062800001F0004121FA04F220EA020000EBD37091
:106290005EEA430E08BF20EAD37070BD94F0000F91
:1062A0000FD101F00046400041EB010111F4801FC5
:1062B00008BF013CF7D041EA060195F0000F18BF76
:1062C000704703F00046520043EB030313F4801FB2
:1062D00008BF013DF7D043EA0603704794EA0C0F6C
:1062E0000CEA135518BF95EA0C0F0CD050EA410682
:1062F00018BF52EA4306D1D181EA030101F00041FF
:106300004FF0000070BD50EA410606BF1046194626
:1063100052EA430619D094EA0C0F02D150EA013632
:1063200013D195EA0C0F05D152EA03361CBF104673
:1063300019460AD181EA030101F0004141F0FE4112
:1063400041F470014FF0000070BD41F0FE4141F496
:10635000780170BD70B54FF0FF0C4CF4E06C1CEA96
:1063600011541DBF1CEA135594EA0C0F95EA0C0F4B
:1063700000F0A7F8A4EB050481EA030E52EA033506
:106380004FEA013100F088804FEA03334FF0805527
:1063900045EA131343EA12634FEA022245EA111554
:1063A00045EA10654FEA00260EF000419D4208BF05
:1063B000964244F1FD0404F5407402D25B084FEAB2
:1063C0003202B61A65EB03055B084FEA32024FF45E
:1063D00080104FF4002CB6EB020E75EB030E22BFBB
:1063E000B61A754640EA0C005B084FEA3202B6EB7B
:1063F000020E75EB030E22BFB61A754640EA5C002A
:106400005B084FEA3202B6EB020E75EB030E22BFB9
:10641000B61A754640EA9C005B084FEA3202B6EBBA
:10642000020E75EB030E22BFB61A754640EADC0079
:1064300055EA060E18D04FEA051545EA16754FEADB
:1064400006164FEAC30343EA52734FEAC2025FEAF9
:106450001C1CC0D111F4801F0BD141EA00014FF088
:1064600000004FF0004CB6E711F4801F04BF014359
:106470000020B4F1FD0C88BFBCF5E06F3FF6AFAE75
:10648000B5EB030C04BFB6EB020C5FEA500C50F105
:10649000000041EB045170BD0EF0004E4EEA113188
:1064A00014EB5C04C2BFD4EB0C0541EA045170BD8F
:1064B00041F480114FF0000E013C90E645EA060ED3
:1064C0008DE60CEA135594EA0C0F08BF95EA0C0F01
:1064D0003FF43BAF94EA0C0F0AD150EA01347FF449
:1064E00034AF95EA0C0F7FF425AF104619462CE720
:1064F00095EA0C0F06D152EA03353FF4FDAE104683
:10650000194622E750EA410618BF52EA43067FF4D3
:10651000C5AE50EA41047FF40DAF52EA43057FF463
:10652000EBAE12E74FF0FF3C06E000BF4FF0010C6E
:1065300002E000BF4FF0010C4DF804CD4FEA410CD2
:106540007FEA6C5C4FEA430C18BF7FEA6C5C1BD09F
:1065500001B050EA410C0CBF52EA430C91EA030F20
:1065600002BF90EA020F0020704710F1000F91EA7D
:10657000030F58BF994208BF90422CBFD8176FEA4B
:10658000E37040F0010070474FEA410C7FEA6C5C19
:1065900002D150EA013C07D14FEA430C7FEA6C5C20
:1065A000D6D152EA033CD3D05DF8040B704700BF4C
:1065B0008446104662468C461946634600E000BF9A
:1065C00001B5FFF7B7FF002848BF10F1000F01BD6C
:1065D0004DF808EDFFF7F4FF0CBF012000205DF837
:1065E00008FB00BF4DF808EDFFF7EAFF34BF0120BC
:1065F00000205DF808FB00BF4DF808EDFFF7E0FF55
:1066000094BF012000205DF808FB00BF4DF808EDA5
:10661000FFF7CEFF94BF012000205DF808FB00BF0C
:106620004DF808EDFFF7C4FF34BF012000205DF8EE
:1066300008FB00BF4FEA410C7FEA6C5C02D150EAD4
:10664000013C0AD14FEA430C7FEA6C5C02D152EA6A
:10665000033C02D14FF0000070474FF0010070473B
:106660004FEA410212F5001215D211D56FF478737A
:10667000B3EB625212D94FEAC12343F0004343EA1D
:10668000505311F0004F23FA02F018BF40427047F8
:106690004FF00000704750EA013005D111F0004082
:1066A00008BF6FF0004070474FF00000704700BF18
:1066B0004A0011D212F5001211D20DD56FF4787381
:1066C000B3EB62520ED44FEAC12343F0004343EAD6
:1066D000505323FA02F070474FF00000704750EA21
:1066E000013002D14FF0FF3070474FF0000070478B
:1066F0004FEA4102B2F1E04324BFB3F5001CDCF1E4
:10670000FE5C0DD901F0004C4FEAC0024CEA50701B
:10671000B2F1004F40EB830008BF20F0010070474A
:1067200011F0804F21D113F13872BCBF01F000404D
:10673000704741F480114FEA5252C2F11802C2F17F
:10674000200C10FA0CF320FA02F018BF40F0010000
:106750004FEAC1234FEAD32303FA0CFC40EA0C00B2
:1067600023FA02F34FEA4303CCE77FEA625307D1EF
:1067700050EA01331EBF4FF0FE4040F44000704726
:1067800001F0004040F0FE4040F40000704700BFC0
:1067900010B5054C13462CB10A4601460220AFF352
:1067A000008010BD204610BD0000000010B5431E43
:1067B0000A44914204D011F8014B03F8014FF8E765
:1067C00010BD02440346934202D003F8011BFAE7CE
:1067D0007047000038B5124B1C68A36B0546D3B94F
:1067E0001820FDF7B9FF43F20E33A06303804AF689
:1067F000CD33438041F2342383804EF26D63C380F6
:106800004DF6EC630381052343810B238381012231
:106810000023C0E90423A36B00221D615A6138BD27
:1068200078E30320024B0146186800F003B800BF6C
:1068300078E3032070B5064608460C4600F00DF8D4
:10684000451C29463046FDF7A7FF064618B12A46E3
:106850002146FFF7ABFF304670BD034613F8012B0E
:10686000002AFBD1181A01387047000021400D00A2
:106870005D400D0089400D008D400D0000000000BE
:106880007477696C696F5F736D730053656E6469CB
:106890006E674D65737361676500596F757220632C
:1068A00068696C6420697320696E20746865206370
:1068B00061722100000000000000000007480D0088
:1068C000FD470D00F3470D00E9470D00DD470D00C2
:1068D000D1470D00C5470D00BD470D00B3470D0062
:1068E000A9470D0011590D00000000000000000034
:1068F00025480D0027480D006E616E006F7666001A
:106900002E00696E6600626175640053657269618C
:106910006C0053657269616C310074797065007048
:106920006172616D00636D6400696400686E64008B
:106930007374726D0066696C74006C766C006164CF
:106940006448616E646C65720072656D6F7665484F
:10695000616E646C657200656E756D48616E646C25
:10696000657273004A534F4E53747265616D4C6F7C
:106970006748616E646C657200617070002530312B
:10698000307520005D20002564002C200028293A65
:106990002000205B00636F6465203D2000256900B6
:1069A00064657461696C73203D20000D0A006C6E93
:1069B00000666E00636F64650064657461696C00F5
:1069C0006E6F6E6500747261636500696E666F005C
:1069D0007761726E006572726F720070616E6963CA
:1069E00000616C6C005A00252B3033643A2530323C
:1069F000750025592D256D2D25645425483A254DC2
:106A00003A2553257A0061736374696D650000004F
:106A10000000000000000000494D0D004F4D0D002A
:106A2000934D0D005D4D0D004B4D0D00000000001D
:106A300000000000E1520D00D1520D00D3520D00B4
:106A40000000000000000000B9530D0009540D00C3
:106A500017540D0089490D00F5530D00BB530D006F
:106A6000D1530D0003540D00E7530D00B5530D0035
:106A7000000000000000000023550D0019550D0016
:106A80000F550D00C5540D0003550D00F7540D00B2
:106A9000EB540D00E3540D00D9540D00CF540D00FC
:106AA00011590D0000000000000000005D550D00B0
:106AB000AD550D00BB550D0089490D0071550D00F8
:106AC00093550D007F550D00A7550D005F550D0026
:106AD00063550D00000000000000000089560D0005
:106AE000D3560D00AB560D008B560D00B3560D005E
:106AF000BB560D00C3560D00CB560D000000000024
:106B000000000000A5570D009B570D0091570D0088
:106B100087570D007B570D006F570D0063570D0011
:106B20005B570D0051570D0047570D0011590D00CF
:106B30000000000000000000A9580D00B3580D002F
:106B4000BD580D00C7580D00D1580D00DD580D007F
:106B5000E9580D00F5580D00FD580D0007590D00BE
:106B600011590D00000000000000000000000000AE
:106B70000000000000000000000000000000000015
:106B80000000000000000000000000000000000005
:106B900000000000000000000000000000000000F5
:106BA00000000000000000000000000000000000E5
:106BB00000000000000000000000000000000000D5
:106BC0000000000043000000B5410D008D430D00A2
:106BD00011480D0065480D0079490D00F14B0D007D
:106BE000014C0D00594C0D002D550D0059580D004C
:106BF000DD590D00695A0D00015B0D00855B0D002C
:106C0000495C0D000D5D0D0000000000000000005B
:106C1000066A0D0000000000646B0D00846B0D001F
:106C2000A46B0D0000000000000000000000000048
:106C300000000000C46B0D00000000000000000018
:106C40000000000000000000000000000000000044
:106C50000000000000000000000000000000000034
:106C60000000000000000000000000000000000024
:086C70000000000018E30320FE
:106C7800FFFFFFFF00000102030405060708090AD9
:106C88000B0C0D0E0F101112131415161718191AD4
:086C98001B1C1D1E1F2028001B
:046CA00078563412DC
:04000003D0004020C9
:00000001FF
