:02000002D0002C
:1040000000400D00E4710D00000006000D000501E8
:084010000401DE0500000000C0
:04401800C46C0D0067
:1040200009480A49884208B505D0094A824202D0A7
:10403000121A02F0E7FD0748074A0021121A02F09F
:10404000ECFD014808BD00BFCCE2032054710D0017
:1040500034E3032034E30320F0E7032070B500F0DD
:10406000F3FF074C074BE41AA40800251E46A5429F
:1040700004D056F8253098470135F8E770BD00BFE9
:1040800048710D000C710D0000F016B808B500F075
:10409000F9F8BDE8084000F099BF00F0B9BC00F0A5
:1040A000BFBC00F0BDBC0078B0FA80F0400970479A
:1040B000012303707047000038B501F089FB4FF40D
:1040C000165101F079FB44211B481C4C00F007FA03
:1040D000122001F0A6FE07EE900AF8EEE77A122011
:1040E000C4ED007A01F09DFE07EE900AF8EEE77A43
:1040F00001210620C4ED017A114C01F079FE04F192
:104100001405102001F08DFE07EE900AF8EEE77A14
:10411000E4EC017AAC42F4D100210620094C01F014
:1041200067FE04F11405044800F06EFAA4EC010ADD
:10413000A542F8D138BD00BF38E3032078E303205F
:1041400060E3032080E3032008B512202DED028BED
:1041500001F067FE012108EE900A062001F048FEFA
:10416000102001F05EFE002108EE100A062001F08A
:104170003FFE264800F048FA2549264A0B682648A3
:1041800002EB8302D2ED007A90ED007A37EE677A87
:10419000F8EEC87A0133C2ED007A042B1F4AC8BF7B
:1041A00000230B6013681E49F8EEE88A01EB8301D7
:1041B0000133C1ED008A012B1A4977EE277AC8BF77
:1041C000002313600B68184AC0ED007A174802EB11
:1041D0008302D0ED007A92ED007ABDEEC00A77EE50
:1041E000C77AB8EEC00A013382ED000A042B37EE1D
:1041F000800AC8BF002380ED000A0B60BDEC028B73
:104200006420BDE8084000F093BE00BF38E30320FF
:1042100058E3032060E3032044E303204CE303203E
:1042200078E3032074E3032080E3032048E30320C2
:104230001FB5114B02681B788DF800300F493C23E5
:1042400002A801F06FF8039C7CB16368013B6360D6
:104250005BB9236820469B689847A368013BA3602D
:104260001BB923682046DB68984701F0B1FA04497E
:1042700000F049FD04B010BD5CE30320D86C0D00D4
:10428000E36C0D0010B501212DED028B082001F02B
:10429000AFFDFFF759FF5C4BDFED5C7A03F11402D1
:1042A000B3EC017A9A4277EE877AF9D1B1EE048ABB
:1042B00087EE887A564B574CC3ED007A84ED007A2E
:1042C00001F086FA544900F00BFD01F081FA022159
:1042D00094ED000A00F00BFE94ED007AF0EE087AFF
:1042E000B4EEE77AF1EE10FA40F183804B4B93ED98
:1042F000007AF7EE007AB4EE677AF1EE10FA0ED19A
:10430000D3ED017AF5EE407AF1EE10FA07D1444888
:10431000FFF78EFF01F05CFA424900F0F4FC424BDB
:1043200093ED007AD3ED047A77EEC77AB2EE047A91
:10433000F4EEC77AF1EE10FA07DB3948FFF778FFA1
:1043400001F046FA394900F0DEFC374BDFED2F7AF9
:1043500003F11402B3EC017A9A4277EE877AF9D12D
:1043600087EE887A324B334CC3ED007A84ED007AC5
:1043700001F02EFA30499FED318A00F0B1FC01F0D6
:1043800027FA022194ED000A00F0B1FDD4ED007A85
:104390009FED2B7AF4EEC77AF1EE10FA0CDBF4EE17
:1043A000C87AF1EE10FA07D51D48FFF741FF01F07A
:1043B0000FFA244900F0A7FCD4ED007AF4EEC87A95
:1043C000F1EE10FA15DB1648FFF732FF01F000FAA4
:1043D0001D4900F098FCFFF7B7FE0021082001F00E
:1043E00007FD0121082001F003FD642000F0A0FD7D
:1043F000E2E70820002101F0FBFCBDEC028B642009
:10440000BDE8104000F094BD60E303200000000010
:1044100044E3032054E30320F26C0D0078E303200F
:1044200094E303200A6D0D0080E30320496D0D0025
:1044300048E3032050E303206C6D0D000000B442FC
:104440000000A042836D0D00B26D0D0010B50A4B47
:104450000A4C01221A7000F0F7F80949204600F0D2
:10446000C6FB2046074A084901F052FD0748BDE84F
:10447000104000F011B800BF5CE3032094E3032078
:10448000DB6D0D0034E30320614B0D0038E30320A6
:104490000368C9B29B681847704738B505460C4693
:1044A00001F010FD297801F010FB01F00BFD210A4D
:1044B000FFF7EEFF01F006FDE1B2FFF7E9FF01F0C3
:1044C00001FDBDE8384001F008BB08B543F2A20188
:1044D000FFF7E3FF0A20BDE8084000F029BD38B52A
:1044E00004460D4601F0EEFC01F0B8FA20462570B6
:1044F000FFF7EBFF012038BD0A44FF2091420ED0A8
:1045000011F8013B5840082310F0800F4FEA40009B
:1045100018BF80F03100013BC0B2F5D1EEE7704723
:1045200073B54FF410510446FFF7B7FF4FF4FA701C
:1045300000F0FEFC01F0C6FC0622217801F0C2FA70
:1045400001F0C0FC03681B69984706284AD1002582
:1045500001F0B8FC03685B6998470DF80500013568
:10456000062DF5D1022269462046FFF7C5FF9DF8CA
:104570000250854236D102220DF103012046FFF799
:10458000BBFF9DF8055085422CD1BDF800009DF879
:1045900003609DF8045040BA80B201F067FF18A391
:1045A000D3E9002301F0D8FF11A3D3E9002302F0DF
:1045B000FDF80022104B01F01BFE02F0C5FAA060CE
:1045C00045EA062001F052FF00220C4B01F0C4FF27
:1045D00007A3D3E9002302F0E9F802F0B5FA60601E
:1045E000012000E0002002B070BD00BFAFF30080EA
:1045F00000000000E0FFEF4000804640000059400E
:104600000000000000E0654010B50446FFF788FF99
:1046100010B194ED020A10BD9FED010A10BD00BF5C
:104620000000C07F00F010B808B5024B1B689B6803
:10463000019308BD6802030008B5024B1B68DB68E4
:10464000019308BD6802030008B5024B1B681B6894
:10465000019308BD2C02030008B5024B1B685B6880
:10466000019308BD2C02030008B5024B1B68DB68F0
:10467000019308BD2C02030008B5024B1B681B699F
:10468000019308BD2C02030008B5024B1B681B6B8D
:10469000019308BD2C02030008B5024B1B68DB69BF
:1046A000019308BD3002030008B5024B1B681B6A6A
:1046B000019308BD3002030008B5024B1B685B681C
:1046C000019308BD1802030008B5024B1B685B6923
:1046D000019308BD1802030008B5024B1B689B68D4
:1046E000019308BD4802030008B5024B1B681B6913
:1046F000019308BD4802030008B5024B1B685B69C3
:10470000019308BD4802030008B5024B1B685B6CAF
:10471000019308BD4802030008B5024B1B689B6C5F
:10472000019308BD4802030008B5024B1B685B6992
:10473000019308BD6402030008B5024B1B681B68A7
:10474000019308BD3C02030008B5024B1B68DB68FF
:10475000019308BD3C02030008B5024B1B681B69AE
:10476000019308BD3C02030008B5024B1B685B695E
:10477000019308BD3C02030008B5024B1B689B690E
:10478000019308BD3C02030008B5024B1B68DB69BE
:10479000019308BD3C02030008B5024B1B681B6A6D
:1047A000019308BD3C02030008B5024B1B689B6ADD
:1047B000019308BD3C02030008B5024B1B68DB688F
:1047C000019308BD2802030008B5024B1B689B69D2
:1047D000019308BD2802030008B5024B1B68DB6982
:1047E000019308BD2802030008B5024B1B681B6A31
:1047F000019308BD2802030008B5024B1B685B6AE1
:10480000019308BD2802030008B5024B1B689B6A90
:10481000019308BD2802030008B5024B1B68DB6A40
:10482000019308BD2802030008B5024B1B681B6BEF
:10483000019308BD2802030008B5024B1B685B6B9F
:10484000019308BD2802030008B5024B1B681B6CCE
:10485000019308BD2802030008B5024B1B681B6DBD
:10486000019308BD2802030008B5024B1B681B68B2
:10487000019308BD4C02030008B5024B1B685B683E
:10488000019308BD4C02030008B5024B1B681B696D
:10489000019308BD4C02030008B5024B1B685B691D
:1048A000019308BD4C02030008B5024B1B689B69CD
:1048B000019308BD4C02030008B5024B1B68DB697D
:1048C000019308BD4C02030008B5024B1B681B6A2C
:1048D000019308BD4C02030008B5024B1B685B68DE
:1048E000019308BD2002030008B5024B1B685B69F9
:1048F000019308BD2002030008B5024B1B68DB6C66
:10490000019308BD2002030008B5024B1B685B6DD4
:10491000019308BD2002030008B5034B1B68D3F8C0
:104920008830019308BD00002002030008B5034B46
:104930001B68D3F89430019308BD000020020300E7
:1049400008B5024B1B685B68019308BD4002030079
:1049500008B5024B1B689B68019308BD4002030029
:1049600008B5024B1B68DB68019308BD40020300D9
:1049700008B5024B1B681B69019308BD4002030088
:1049800008B5024B1B685B69019308BD4002030038
:1049900008B5024B1B689B69019308BD40020300E8
:1049A00008B5024B1B68DB69019308BD4002030098
:1049B00008B5024B1B681B6A019308BD4002030047
:1049C00008B5024B1B681B6B019308BD4002030036
:1049D00008B5024B1B685B6B019308BD40020300E6
:1049E00008B5024B1B685B69019308BD44020300D4
:1049F00008B5024B1B681B6A019308BD4402030003
:104A000008B5024B1B68DB6B019308BD4402030031
:104A100008B5024B1B681B68019308BD1C0203000C
:104A200008B5024B1B685B68019308BD1C020300BC
:104A300008B5024B1B689B68019308BD1C0203006C
:104A400008B5024B1B68DB6A019308BD1C0203001A
:104A500008B5024B1B681B6B019308BD1C020300C9
:104A6000002211464068FFF7A3BF002211464068AC
:104A7000FFF7AEBF00224068FFF7A2BF002281F01F
:104A800001014068FFF78CBF00231A4619464068B1
:104A9000FFF77EBF00231A4619464068FFF770BF34
:104AA000002211464068FFF763BF002211464068AC
:104AB000FFF74EBF002202214068FFF751BF0023DD
:104AC0001A464068FFF73CBF024B03225A60024A75
:104AD0001A607047A4E30320FC6D0D00704710B509
:104AE0000C21044601F022FA204610BD10B5054BFA
:104AF0000360044601710846FFF7CEFD0023A36062
:104B0000204610BD306E0D000079FFF7CDBD10B509
:104B10000446006818B1FFF783FF0023236010BD2F
:104B200010B50446FFF7F3FF204610BD10B5094C41
:104B300000204FF6FF732060A080A0712081638168
:104B4000FFF7CAFE2046044A0449BDE8104001F0C0
:104B5000DFB900BFACE3032034E30320214B0D0099
:104B600010B504460068FFF75BFF204610BD10B586
:104B70000446006808B1FFF753FF00232360A360D9
:104B8000636010BD38B504460D4600680131FFF77B
:104B90004FFF10B184E82100012038BD10B5036833
:104BA000044613B143688B4207D22046FFF7EAFF61
:104BB00020B1A3680BB922681370012010BD70B535
:104BC0000E46114604461546FFF7E8FF18B9204681
:104BD000FFF7CDFF09E02A463146A560206802F0C4
:104BE00011F82268A3680021D154204670BD38B561
:104BF0000023044603604360836003730D4639B1AC
:104C0000084602F056F8294602462046FFF7D7FF2D
:104C1000204638BD10B50446006808B1FFF77CFD9A
:104C2000204610BD10B5036804469B689847A368EA
:104C3000013BA3602BB923682046DB68BDE8104028
:104C4000184710BD0B68036013B15A6801325A60EF
:104C5000704710B50446006828B14368013B4360C3
:104C60000BB9FFF7DFFF204610BD000010B5064C62
:104C7000002320462360FFF747FD2046034A0449EE
:104C8000BDE8104001F044B9B8E3032034E3032049
:104C9000154C0D00F8B506460D468F180024BD4290
:104CA0000CD0336815F8011B9B68304698470028E4
:104CB00001DB0444F3E7002C08BF04462046F8BD9E
:104CC00070B505460C46084649B101F0F2FF2B6865
:104CD000024621462846DB68BDE87040184770BD93
:104CE00008B5FFF7EDFF08BD03689B68184738B5A6
:104CF0000D210546FFF7F8FF0A2104462846FFF775
:104D0000F3FF204438BD38B50546FFF7D9FF044608
:104D10002846FFF7ECFF204438BD30B58BB00B467A
:104D200000218DF82410012A98BF0A220DF12304D6
:104D3000B3FBF2F505FB123303F0FF03092B94BF1D
:104D400030333733DBB2214604F801392B46002DCE
:104D5000EED1FFF7B5FF0BB030BD00002DE9F047F5
:104D600057EC106B82460D4610EE102A3B4610EEB3
:104D7000100A394601F08AFE08B14E4912E027F0C8
:104D800000494FF0FF324C4B3046494601F07EFE61
:104D900068B94FF0FF32484B3046494601F058FEA3
:104DA00028B946495046FFF78BFFBDE8F0874FF022
:104DB0006042434B3046394601F05EFE08B141493E
:104DC000F0E74FF06042404B3046394601F036FE86
:104DD0000028F4D1002200233046394601F02EFE8F
:104DE00040B12D215046FFF77FFF07F100430446F5
:104DF0001F4600E0044635494FF0000800205FFAE6
:104E000088F39D4206D90022314B01F0CFFC08F116
:104E10000108F4E732463B4601F0ECF90F4606463E
:104E200001F072FE0A22014680465046FFF775FFE8
:104E30000444E5B3404601F019FB02460B463046F8
:104E4000394601F0D5F906460F4650462149FFF78D
:104E500037FF044400221E4B3046394601F07CFBEC
:104E600006460F4601F028FEB0F1000907DA2D21B1
:104E70005046FFF739FFC9F10001804602E049467C
:104E80004FF000080A225046FFF747FF4044044411
:104E9000484601F0FBFA02460B463046394601F01F
:104EA000A7F9013D15F0FF0506460F46D2D1204671
:104EB000BDE8F087386E0D00FFFFEF7F426E0D00FA
:104EC000FFFFEF413C6E0D00FFFFEFC10000E03F30
:104ED00000002440406E0D0038B5C9B20546FFF70A
:104EE0003DFF04462846FFF702FF204438BD38B591
:104EF000044610EE100A0D4601F0DAFA41EC100BF0
:104F000029462046BDE83840FFF7E6BF014B024A7C
:104F10001A607047BCE30320B96E0D00024B1A689B
:104F2000024B1A60704700BFCCE20320C0E30320AD
:104F30000021FFF7D9BC10B58368044613B10322E2
:104F400001469847204610BD10B50446FFF7F3FF11
:104F5000204610BD13B50B46044603C88DE8030078
:104F600093E8030084E803009DE8030083E803005E
:104F700002B010BD0348044A04490023836000F0D6
:104F8000C7BF00BFC4E3032034E30320494F0D0033
:104F900008B50C4B33B100F01BFC03681B69984744
:104FA000002809DC084B63B100F0E0FC03681B69D2
:104FB0009847002803DC08BDAFF30080F2E7AFF3A9
:104FC000008008BD000000000000000008B5FFF7E9
:104FD000DFFFFFF779FB014B186008BD30E70320C6
:104FE0000248034A0349121A01F00CBE00F40320E0
:104FF00004F4032050710D0007B5002300931A46F6
:105000006FF07701FFF792FC03B05DF804FB00003E
:1050100007B543880A2B08D0502B09D1094B1B68D0
:105020003BB103B05DF804EB1847FFF7E5FF06E07E
:10503000002300931A466FF07701FFF777FC03B067
:105040005DF804FBD4E3032038B5104C104D236801
:10505000AB42104B0CBF012200221A7002D0FFF7A6
:10506000BFFF2560FFF728FB044601F0DFFD0A4B78
:1050700013B12046AFF3008000210748FFF7C0FCC2
:1050800000210648BDE83840FFF746BC00F4032085
:105090001E1C279AD8E303200000000011500D00C9
:1050A00070470020704710B51021044600F03EFF05
:1050B000204610BD08B508B1FFF7F5FF08BD002276
:1050C000026010B54FF69C728280B1F90440848072
:1050D0008A8002680C6804600A6010BD10B504463E
:1050E0000068FFF79DFC204610BD38B5C468F4B1D8
:1050F0002378022B03D104F10C00FFF7EFFF656862
:1051000035B12846FFF717FF1021284600F00EFFA3
:10511000A56835B12846FFF70EFF1021284600F09C
:1051200005FF20461421BDE8384000F0FFBE38BD21
:1051300013B5044691E8050000234B600B60206026
:10514000626001A801930093FFF783FD204602B03F
:1051500010BDF7B50C4602AD54F8043B45F8083DC8
:1051600006460F4601A82146FFF76CFD294630464A
:10517000FFF7DEFF01A8FFF76CFD2046FFF769FD92
:105180003846082100F0D2FE304603B0F0BD0000E2
:1051900038B500230446036010200D46FEF77DFF5E
:1051A00028B1012343608360024B0360C560206027
:1051B000204638BD586F0D00826810B50AB900F05E
:1051C000C8FEC368BDE81040184708B5006800F184
:1051D0001001FFF7F1FF08BD826810B50AB900F0B1
:1051E000B8FEC368BDE81040184708B5006800F174
:1051F0001001FFF7F1FF08BD38B5002383608B680D
:1052000004460D462BB102229847EB68E360AB6879
:10521000A360204638BD0000F0B589B00468684638
:10522000FFF74DFF00238DF808304FF00202D4E85D
:105230004F3F002B03D1C4E8412F0029F7D102D002
:105240008DF8083063E014F10C0503D06946284658
:10525000FFF735FFBFF35F8F01236370002004F178
:105260000803BFF35F8F53E8006F43E80002002A92
:10527000F9D1BFF35F8F002E49D0FFF73DFB20B17E
:1052800029463046FFF798FF3AE0314602A8FFF77B
:10529000B3FFE068B4F9105008B101F0EFFC0690DC
:1052A0001020ADF81C50FEF7F8FE0546E8B10027C7
:1052B00087601820FEF7F1FE044688B1014687603A
:1052C00002A8FFF747FE049BA268A360059B049217
:1052D00006A9E268E36004F110000592FFF7EFFE13
:1052E0000D4BEB600D4B2C60AB6006A8FFF7F6FE94
:1052F00002A8FFF720FE002229460948FFF704FB19
:105300003046FFF718FE1021304600F00FFE6846C9
:10531000FFF7E4FE09B0F0BDCB510D0041540D0084
:10532000B9590D002DE9F04F8BB006460F46904657
:1053300099469DF850A0FFF753FB07AD834630BB5D
:105340004FF62E73059005A92846ADF81830FFF7E3
:10535000B6FE1420FEF7A1FE044658B102230370E6
:1053600001234370C0F804B0C0F808B029460C30DF
:10537000FFF7A5FE3046214640F8044BFFF708FF33
:105380002846FFF7ABFE05A8FFF7A8FE52E0002471
:105390000C2314206C60AC600793FEF77EFE014680
:1053A00018B1047044704460846004A80391FFF74E
:1053B000EFFE224B08930820FEF76FFE044628B14B
:1053C000039B40F8043B04A9FFF73CFC00955FFAFF
:1053D0008AF34A46414638460994FFF709FB20B94B
:1053E000039B5B7803F0FF0283B1039B059304A941
:1053F00006A8FFF727FC05A93046FFF799FE06A887
:10540000FFF727FC04A8FFF724FC13E04FF69C737A
:1054100005A903A80592ADF81830FFF7FDFE05A811
:10542000FFF75CFE05A80999FFF793FE06A8FFF7B2
:1054300010FCDAE730460BB0BDE8F08FB1550D0037
:10544000022AF8B5044606D0032A17D0012A22D131
:105450000B6803601FE018200E68FEF71EFE05466D
:1054600050B13146FFF7C8FE3069B6F9147008B183
:1054700001F004FC2861AF8225600CE0046854B19F
:1054800004F11000FFF72AFE2046FFF754FD182113
:10549000204600F04BFD0020F8BD38B500238360A6
:1054A0008B6804460D462BB102229847EB68E360F7
:1054B000AB68A360204638BD022A70B5044606D00A
:1054C000032A11D0012A18D10B68036015E01420BB
:1054D0000E68FEF7E2FD054620B13146FFF7DDFF1D
:1054E000337C2B74256008E0046834B12046FFF754
:1054F00022FD1421204600F019FD002070BD00009F
:10550000F0B5002387B00C46BFF35F8F50E8006F03
:1055100040E80032002AF9D1BFF35F8F002E3FD060
:105520001846FFF7E9F9074620B121463046FFF754
:1055300053FE2EE0314601A8FFF7AFFF23788DF828
:1055400014301020FEF7A9FD0546D0B18760142065
:10555000FEF7A3FD044678B18760014601A8FFF776
:10556000F9FC039BA268A360049B0392E268E360DA
:105570009DF81430049223740A4BEB600A4B2C60A4
:10558000AB6001A8FFF7D7FC002229460748FFF7C8
:10559000BBF93046FFF7CFFC1021304600F0C6FCC7
:1055A00007B0F0BDEB510D00B9540D00B9590D0015
:1055B00030B585B004460D4668461146FFF7C9FD73
:1055C0007CB124B228460DB101F058FB029002A92B
:1055D0006846ADF80C40FFF71FFE02A8FFF77EFDFE
:1055E0001DE000988DF808404FF00102D0E84F3FD1
:1055F000A34203D1C0E8412F0029F7D102D08DF892
:1056000008300CE010F10C014FF0010318BF0373D8
:10561000BFF35F8F043000F8033CFFF771FF01A870
:10562000FFF717FB05B030BD704710B518210446D1
:1056300000F07CFC204610BDF0B5037D062B8DB03C
:105640000E4600F104074FF0000402D000F10805F7
:1056500018E00CAD394605F8304D2F232A460A20B4
:10566000FFF762F8284601F024FB33680246DB6846
:105670002946304698470FE024B12E213046FFF7E7
:1056800033FB044415F8011D0A223046FFF745FBA1
:10569000BD420444F0D120460DB0F0BD10B5054B1D
:1056A0000446112240F8043B002101F0B6FA2046DE
:1056B00010BD00BF746F0D000346074A10B543F8D4
:1056C000042B01F1100251F8044B43F8044B9142B2
:1056D000F9D10A781A7010BD746F0D0010B59DF8DD
:1056E000084044EA032343EA024242EA01610423F8
:1056F0004160037510BD37B50D788B784A78C9784D
:1057000000912946FFF7EAFF03B030BD41747047AE
:10571000704708B50021007CFFF7C6F830EA20008A
:1057200028BF4FF0FF3008BD08B50121007CFFF70E
:10573000BBF830EA200028BF4FF0FF3008BD08B5A5
:10574000007CFFF7A9F820EAE07008BD08B5007CEE
:10575000FFF79AF820EAE07008BD007CFFF7B4B8C4
:1057600010B51421044600F0E1FB204610BD38B509
:105770000446007C0D46FFF78FF8002801DC607CB2
:1057800028B12946207CFFF797F820EAE07038BD61
:1057900010B50446002363604FF47A73A360054B91
:1057A000236001230846217463741146FFF75CF8F7
:1057B000204610BD886F0D000022007CFFF75CB80A
:1057C00010B514220446002101F027FA204610BD2E
:1057D00030B50E4D87B001A8FFF7F2FF296811F030
:1057E000010410D12846FEF75EFC60B101AA2146F3
:1057F0000748FFF7CDFF2846FEF75AFC054A064941
:10580000034800F085FB024807B030BDDCE303200D
:10581000E0E3032034E3032011570D00002211467A
:105820004068FFF7A5B8002211464068FFF7C0B8EE
:10583000002211464068FFF7CBB800224068FFF70E
:10584000BFB8002281F001014068FFF7A9B800232A
:105850001A4619464068FFF79BB800231A461946B6
:105860004068FFF78DB8002211464068FFF770B816
:10587000002202214068FFF773B800231A464068EF
:10588000FFF75EB838B5084C28252A460021204687
:1058900001F0C3F94FF0FF336360044B258004220D
:1058A0005A60034A1A6038BDFCE30320F4E3032086
:1058B000B86F0D0070474174704708B5007CFEF763
:1058C00073FF20EAE07008BD08B5007CFEF744FFD6
:1058D00020EAE07008BD08B5007CFEF74DFF30EA15
:1058E000200028BF4FF0FF3008BD08B5007CFEF750
:1058F0003BFF30EA200028BF4FF0FF3008BD007C9E
:10590000FEF742BF10B51421044600F00FFB2046FD
:1059100010BD70B5457C04460E4625B9007CFEF7E7
:1059200043FF002805DD3146207CBDE87040FEF7CE
:105930000BBF284670BD000010B50446084611464E
:10594000002262604FF47A72A260054A226001224E
:10595000207462741A46FEF7EFFE204610BD00BFA9
:10596000EC6F0D00007CFEF717BF000038B50C4D42
:10597000296811F0010411D12846FEF794FB68B1A3
:10598000084A094B09482146FFF7D6FF2846FEF78B
:105990008FFB074A0749054800F0BAFA034838BDAB
:1059A000BCE40320C0E4032038E4032024E4032003
:1059B00034E30320B5580D0010B5836804460BB9D5
:1059C00000F0C7FAC3689847A3681BB103222146B9
:1059D0002046984720461021BDE8104000F0A6BAA6
:1059E0007047F8B5064615460C468F18BC4206D0DF
:1059F000336814F8011B9B6830469847F6E7284641
:105A0000F8BD0022007CFEF7EFBE0021007CFEF70F
:105A1000F3BE0021007CFEF7F7BE0021007CFEF7FC
:105A2000FBBE0021007CFEF7FFBE10B5142104462A
:105A300000F07CFA204610BD10B5044600236360D8
:105A40004FF47A73A360044B217408462360114617
:105A5000FEF7FAFE204610BD1C700D0000231A460A
:105A60001946007CFEF7A8BE70B50C4686B014251A
:105A700006462A46002101A801F0CFF823788DF8C8
:105A8000083063680393E36804930022237A307C30
:105A9000ADF8045001A90593FEF7DEFE06B070BD17
:105AA0001FB500338DF800104FF06401039118BF4B
:105AB0000123694601928DF80830FFF7D5FF05B044
:105AC0005DF804FB0123FFF7EBBF0022007CFEF72B
:105AD0007BBE0022007CFEF77FBE0121FFF7F9BFED
:105AE0000021007CFEF7A8BE002211464068FEF7A8
:105AF0005FBF002211464068FEF76ABF002240687F
:105B0000FEF75EBF002281F001014068FEF748BF4A
:105B100000231A4601214068FEF73ABF00231A46C7
:105B200019464068FEF72CBF002211464068FEF778
:105B30001FBF002211464068FEF70ABF0022022163
:105B40004068FEF70DBF00231A464068FEF7F8BE16
:105B500038B5054688B104684CB1A3681BB103226F
:105B60002146204698471021204600F0DFF92846BC
:105B70001421BDE8384000F0D9B938BD10B1036830
:105B80005B681847704710B503680446BBB1586896
:105B9000FEF7A2FD78B923685A7C12B95868FEF75F
:105BA000A3FD23685868FEF7A7FD20680023236043
:105BB00028B1FFF7CDFF206808B1FFF7C9FF2046E5
:105BC00010BD38B50446D0F8C40108B1FEF769FA33
:105BD000D4F8C00108B1FEF79FFDD4F8BC5135B12F
:105BE0002846FFF7D0FF0421284600F09FF92068DF
:105BF00008B1FFF7C3FF204638BD000010B5044BC5
:105C0000044640F8083BFFF7DCFF204610BD00BF0C
:105C100044700D0038B50E4C0E4B23600025022356
:105C200004F5E4706360A560C4F8C451C4F8C851B9
:105C3000FEF76AFD084BC4F8CC5184F8D0512360BC
:105C40002046064A0649BDE8384000F061B900BF69
:105C500044E5032078700D0044700D0034E3032008
:105C6000FD5B0D0000231A464068FEF769BE002266
:105C700002214068FEF774BE002211464068FEF71C
:105C800067BE002211464068FEF772BE00231A4626
:105C900019464068FEF774BE00231A46194640684C
:105CA000FEF776BE002281F001014068FEF778BE63
:105CB00000224068FEF784BE002211464068FEF7CD
:105CC00087BE002211464068FEF772BE2DE9F04300
:105CD000002495B016460D460746FFF7DFFC214627
:105CE00020220CA8009400F098FF40230C9321463A
:105CF0006B460CAA3046FEF79FFC0446002844D1B0
:105D0000024601216868FEF733FE022180462246E2
:105D10006868FEF72DFE009E81462146002E34D095
:105D2000002932D17368022B02D00A2B09D02AE055
:105D3000B8F1000F27D0716938460431FFF7DBFC5A
:105D400020E0B9F1000F1ED07469112201A800F003
:105D500064FF06238DF8143001AD04F108031834F4
:105D6000186859682A4603C20833A3421546F7D17A
:105D700001A906A807ADFFF79FFC0FCD3C1D0FC47E
:105D80002B6823700121F669C8E70098FEF74CFCE8
:105D9000384615B0BDE8F083024B034A1A60002272
:105DA0005A60704718E7032078700D0010B504465C
:105DB00000F04EF8FEF7A8FE28B1A4F10B03022B69
:105DC00001D8002010BD00F07DF8FFF789FE08B172
:105DD000012CF6D9FFF7CAFDFFF7C4FD18B1A4F1F5
:105DE0000903012BEDD9232C8CBF0020012010BD0D
:105DF00038B504460D46FEF737FCFF2810D00628BC
:105E000004D84D2323FA00F0C30709D42046FFF736
:105E1000CDFF28B129462046BDE83840FEF72CBC0E
:105E200038BD0D2810B504469CBF0E34A4B22046E0
:105E3000FFF7BCFF50B103212046FEF70DFC0328FD
:105E400004D12046BDE81040FEF71EBC002010BD66
:105E500038B50B4D296811F001040FD12846FEF723
:105E600022F958B121460748FEF740FE2846FEF7C2
:105E70001FF9054A0549034800F04AF8014838BDB2
:105E80002CE7032020E7032034E30320DD4A0D0044
:105E900070B5044614252A46094E002100F0BDFEC7
:105EA000258020253146A5602561284600F040F870
:105EB00031466060284600F03BF8E060204670BD47
:105EC000A4700D0030B50E4D296811F0010487B0A3
:105ED00013D12846FEF7E7F878B101A8FFF7D8FFFD
:105EE00001AA21460748FFF7A7FD2846FEF7E0F87C
:105EF000054A0649034800F00BF8024807B030BDD8
:105F000034E7032038E7032034E30320E1590D0090
:105F10000B460146184600F067BE0000024B1868A9
:105F2000BFF35F8F704700BF4CE70320FEF7B7B8A1
:105F300000F000B810B5002814BF04460124204624
:105F4000FEF766FD20B9FFF7E9FF08B18047F6E7E5
:105F500010BD08B5FEF774FD184B1A68D1075CBF79
:105F600001221A60164B1A68D2075CBF01221A6020
:105F7000144B1A68D0075CBF01221A60124B1A68D2
:105F8000D1075CBF01221A60104B1A68D2075CBFB0
:105F900001221A600E4B1A68D0075CBF01221A60FA
:105FA0000C4B1A68D1075CBF01221A600A4B1A68B1
:105FB000D2075CBF01221A60704700BF6CE7032064
:105FC00068E7032064E7032060E703205CE7032021
:105FD00058E7032054E7032050E70320244B1A68B6
:105FE000D0075CBF01221A60224B1A68D1075CBF40
:105FF00001221A60204B1A68D2075CBF01221A6086
:106000001E4B1A68D0075CBF01221A601C4B1A682D
:10601000D1075CBF01221A601A4B1A68D2075CBF15
:1060200001221A60184B1A68D0075CBF01221A605F
:10603000164B1A68D1075CBF01221A60144B1A680C
:10604000D2075CBF01221A60124B1A68D0075CBFEE
:1060500001221A60104B1A68D1075CBF01221A6036
:106060000E4B1A68D2075CBF01221A60704700BF4E
:106070009CE7032098E7032094E7032090E70320A0
:106080008CE7032088E7032084E7032080E70320D0
:106090007CE7032078E7032074E7032070E7032000
:1060A000244B1A68D0075CBF01221A60224B1A6881
:1060B000D1075CBF01221A60204B1A68D2075CBF6F
:1060C00001221A601E4B1A68D0075CBF01221A60B9
:1060D0001C4B1A68D1075CBF01221A601A4B1A6860
:1060E000D2075CBF01221A60184B1A68D0075CBF48
:1060F00001221A60164B1A68D1075CBF01221A6090
:10610000144B1A68D2075CBF01221A60124B1A683E
:10611000D0075CBF01221A60104B1A68D1075CBF20
:1061200001221A600E4B1A68D2075CBF01221A6066
:10613000704700BFCCE70320C8E70320C4E7032073
:10614000C0E70320BCE70320B8E70320B4E703203F
:10615000B0E70320ACE70320A8E70320A4E703206F
:10616000A0E70320184B1A68D1075CBF01221A6010
:10617000164B1A68D2075CBF01221A60144B1A68CA
:10618000D0075CBF01221A60124B1A68D1075CBFAE
:1061900001221A60104B1A68D2075CBF01221A60F4
:1061A0000E4B1A68D0075CBF01221A600C4B1A68AC
:1061B000D1075CBF01221A600A4B1A68D2075CBF84
:1061C00001221A60704700BFECE70320E8E70320D4
:1061D000E4E70320E0E70320DCE70320D8E703201F
:1061E000D4E70320D0E7032081F0004102E000BFA4
:1061F00083F0004330B54FEA41044FEA430594EA87
:10620000050F08BF90EA020F1FBF54EA000C55EAC1
:10621000020C7FEA645C7FEA655C00F0E2804FEA92
:106220005454D4EB5555B8BF6D420CDD2C4480EA74
:10623000020281EA030382EA000083EA010180EAA4
:10624000020281EA0303362D88BF30BD11F0004FF2
:106250004FEA01314FF4801C4CEA113102D0404228
:1062600061EB410113F0004F4FEA03334CEA133363
:1062700002D0524263EB430394EA050F00F0A7807B
:10628000A4F10104D5F1200E0DDB02FA0EFC22FA76
:1062900005F2801841F1000103FA0EF2801843FA6A
:1062A00005F359410EE0A5F120050EF1200E012A5B
:1062B00003FA0EFC28BF4CF0020C43FA05F3C01899
:1062C00051EBE37101F0004507D54FF0000EDCF112
:1062D000000C7EEB00006EEB0101B1F5801F1BD3BB
:1062E000B1F5001F0CD349085FEA30004FEA3C0CBF
:1062F00004F101044FEA445212F5800F80F09A80B5
:10630000BCF1004F08BF5FEA500C50F1000041EBB8
:10631000045141EA050130BD5FEA4C0C404141EBBC
:10632000010111F4801FA4F10104E9D191F0000FE3
:1063300004BF01460020B1FA81F308BF2033A3F166
:106340000B03B3F120020CDA0C3208DD02F1140C5D
:10635000C2F10C0201FA0CF021FA02F10CE002F198
:106360001402D8BFC2F1200C01FA02F120FA0CFC91
:10637000DCBF41EA0C019040E41AA2BF01EB0451DA
:10638000294330BD6FEA04041F3C1CDA0C340EDCD8
:1063900004F11404C4F1200220FA04F001FA02F31B
:1063A00040EA030021FA04F345EA030130BDC4F1D9
:1063B0000C04C4F1200220FA02F001FA04F340EACE
:1063C0000300294630BD21FA04F0294630BD94F07F
:1063D000000F83F4801306BF81F480110134013D66
:1063E0004EE77FEA645C18BF7FEA655C29D094EAD7
:1063F000050F08BF90EA020F05D054EA000C04BF55
:106400001946104630BD91EA030F1EBF002100203F
:1064100030BD5FEA545C05D14000494128BF41F0DE
:10642000004130BD14F580043CBF01F5801130BD42
:1064300001F0004545F0FE4141F470014FF00000CD
:1064400030BD7FEA645C1ABF194610467FEA655C7E
:106450001CBF0B46024650EA013406BF52EA033520
:1064600091EA030F41F4002130BD00BF90F0000F0E
:1064700004BF0021704730B54FF4806404F132044A
:106480004FF000054FF0000150E700BF90F0000F03
:1064900004BF0021704730B54FF4806404F132042A
:1064A00010F0004548BF40424FF000013EE700BFFA
:1064B00042004FEAE2014FEA31014FEA02701FBF8A
:1064C00012F07F4393F07F4F81F06051704792F05C
:1064D000000F14BF93F07F4F704730B54FF46074D6
:1064E00001F0004521F0004120E700BF50EA010221
:1064F00008BF704730B54FF000050AE050EA0102CE
:1065000008BF704730B511F0004502D5404261EB3D
:1065100041014FF4806404F132045FEA915C3FF47E
:10652000DCAE4FF003025FEADC0C18BF03325FEA17
:10653000DC0C18BF033202EBDC02C2F1200300FACC
:1065400003FC20FA02F001FA03FE40EA0E0021FAF1
:1065500002F11444C1E600BF70B54FF0FF0C4CF4DB
:10656000E06C1CEA11541DBF1CEA135594EA0C0F91
:1065700095EA0C0F00F0DEF82C4481EA030621EACC
:106580004C5123EA4C5350EA013518BF52EA033507
:1065900041F4801143F4801338D0A0FB02CE4FF0B9
:1065A0000005E1FB02E506F00042E0FB03E54FF0E9
:1065B0000006E1FB03569CF0000F18BF4EF0010EE1
:1065C000A4F1FF04B6F5007F64F5407404D25FEADD
:1065D0004E0E6D4146EB060642EAC62141EA555190
:1065E0004FEAC52040EA5E504FEACE2EB4F1FD0CD2
:1065F00088BFBCF5E06F1ED8BEF1004F08BF5FEA50
:10660000500E50F1000041EB045170BD06F0004601
:1066100046EA010140EA020081EA0301B4EB5C04AE
:10662000C2BFD4EB0C0541EA045170BD41F48011A6
:106630004FF0000E013C00F3AB8014F1360FDEBFCB
:10664000002001F0004170BDC4F10004203C35DAA7
:106650000C341BDC04F11404C4F1200500FA05F32A
:1066600020FA04F001FA05F240EA020001F00042CB
:1066700021F0004110EBD37021FA04F642EB060141
:106680005EEA430E08BF20EAD37070BDC4F10C046B
:10669000C4F1200500FA04F320FA05F001FA04F22F
:1066A00040EA020001F0004110EBD37041F100011B
:1066B0005EEA430E08BF20EAD37070BDC4F1200526
:1066C00000FA05F24EEA020E20FA04F301FA05F28E
:1066D00043EA020321FA04F001F0004121FA04F236
:1066E00020EA020000EBD3705EEA430E08BF20EA06
:1066F000D37070BD94F0000F0FD101F00046400040
:1067000041EB010111F4801F08BF013CF7D041EAC1
:10671000060195F0000F18BF704703F000465200C5
:1067200043EB030313F4801F08BF013DF7D043EA96
:106730000603704794EA0C0F0CEA135518BF95EA4C
:106740000C0F0CD050EA410618BF52EA4306D1D1D3
:1067500081EA030101F000414FF0000070BD50EAF2
:10676000410606BF1046194652EA430619D094EA7C
:106770000C0F02D150EA013613D195EA0C0F05D166
:1067800052EA03361CBF104619460AD181EA0301BA
:1067900001F0004141F0FE4141F470014FF0000072
:1067A00070BD41F0FE4141F4780170BD70B54FF00D
:1067B000FF0C4CF4E06C1CEA11541DBF1CEA13558D
:1067C00094EA0C0F95EA0C0F00F0A7F8A4EB05046F
:1067D00081EA030E52EA03354FEA013100F0888066
:1067E0004FEA03334FF0805545EA131343EA12632F
:1067F0004FEA022245EA111545EA10654FEA0026E4
:106800000EF000419D4208BF964244F1FD0404F59C
:10681000407402D25B084FEA3202B61A65EB0305F8
:106820005B084FEA32024FF480104FF4002CB6EBB5
:10683000020E75EB030E22BFB61A754640EA0C0035
:106840005B084FEA3202B6EB020E75EB030E22BF75
:10685000B61A754640EA5C005B084FEA3202B6EBB6
:10686000020E75EB030E22BFB61A754640EA9C0075
:106870005B084FEA3202B6EB020E75EB030E22BF45
:10688000B61A754640EADC0055EA060E18D04FEA03
:10689000051545EA16754FEA06164FEAC30343EAA3
:1068A00052734FEAC2025FEA1C1CC0D111F4801F70
:1068B0000BD141EA00014FF000004FF0004CB6E769
:1068C00011F4801F04BF01430020B4F1FD0C88BF08
:1068D000BCF5E06F3FF6AFAEB5EB030C04BFB6EB13
:1068E000020C5FEA500C50F1000041EB045170BD06
:1068F0000EF0004E4EEA113114EB5C04C2BFD4EB33
:106900000C0541EA045170BD41F480114FF0000EB6
:10691000013C90E645EA060E8DE60CEA135594EA32
:106920000C0F08BF95EA0C0F3FF43BAF94EA0C0F35
:106930000AD150EA01347FF434AF95EA0C0F7FF4AA
:1069400025AF104619462CE795EA0C0F06D152EAFE
:1069500003353FF4FDAE1046194622E750EA4106E2
:1069600018BF52EA43067FF4C5AE50EA41047FF4F3
:106970000DAF52EA43057FF4EBAE12E74FF0FF3C58
:1069800006E000BF4FF0010C02E000BF4FF0010C29
:106990004DF804CD4FEA410C7FEA6C5C4FEA430CA2
:1069A00018BF7FEA6C5C1BD001B050EA410C0CBFF1
:1069B00052EA430C91EA030F02BF90EA020F002053
:1069C000704710F1000F91EA030F58BF994208BFBA
:1069D00090422CBFD8176FEAE37040F00100704777
:1069E0004FEA410C7FEA6C5C02D150EA013C07D1CE
:1069F0004FEA430C7FEA6C5CD6D152EA033CD3D019
:106A00005DF8040B704700BF8446104662468C4612
:106A10001946634600E000BF01B5FFF7B7FF002845
:106A200048BF10F1000F01BD4DF808EDFFF7F4FF6E
:106A30000CBF012000205DF808FB00BF4DF808EDF9
:106A4000FFF7EAFF34BF012000205DF808FB00BF1C
:106A50004DF808EDFFF7E0FF94BF012000205DF83E
:106A600008FB00BF4DF808EDFFF7CEFF94BF0120F3
:106A700000205DF808FB00BF4DF808EDFFF7C4FFEC
:106A800034BF012000205DF808FB00BF4FEA410C35
:106A90007FEA6C5C02D150EA013C0AD14FEA430C18
:106AA0007FEA6C5C02D152EA033C02D14FF0000055
:106AB00070474FF0010070474FEA410212F5001293
:106AC00015D211D56FF47873B3EB625212D94FEA35
:106AD000C12343F0004343EA505311F0004F23FA1F
:106AE00002F018BF404270474FF00000704750EA74
:106AF000013005D111F0004008BF6FF00040704731
:106B00004FF00000704700BF4A0011D212F500128A
:106B100011D20DD56FF47873B3EB62520ED44FEAF5
:106B2000C12343F0004343EA505323FA02F0704775
:106B30004FF00000704750EA013002D14FF0FF30B3
:106B400070474FF0000070474FEA4102B2F1E04356
:106B500024BFB3F5001CDCF1FE5C0DD901F0004C44
:106B60004FEAC0024CEA5070B2F1004F40EB830094
:106B700008BF20F00100704711F0804F21D113F1C0
:106B80003872BCBF01F00040704741F480114FEAF9
:106B90005252C2F11802C2F1200C10FA0CF320FA82
:106BA00002F018BF40F001004FEAC1234FEAD3239F
:106BB00003FA0CFC40EA0C0023FA02F34FEA430309
:106BC000CCE77FEA625307D150EA01331EBF4FF092
:106BD000FE4040F44000704701F0004040F0FE40AD
:106BE00040F40000704700BF10B5054C13462CB1AF
:106BF0000A4601460220AFF3008010BD204610BDBA
:106C00000000000010B5431E0A44914204D011F860
:106C1000014B03F8014FF8E710BD024403469342CD
:106C200002D003F8011BFAE77047000038B5124B99
:106C30001C68A36B0546D3B91820FDF7E9FE43F2A3
:106C40000E33A06303804AF6CD33438041F23423F0
:106C500083804EF26D63C3804DF6EC6303810523A0
:106C600043810B23838101220023C0E90423A36B0A
:106C700000221D615A6138BD30E30320024B0146FA
:106C8000186800F003B800BF30E3032070B5064673
:106C900008460C4600F00DF8451C29463046FDF725
:106CA000D7FE064618B12A462146FFF7ABFF30460D
:106CB00070BD034613F8012B002AFBD1181A0138C6
:106CC0007047000021400D005D400D0089400D001F
:106CD0008D400D00000000007477696C696F5F7370
:106CE0006D730053656E64696E674D65737361679C
:106CF0006500546865206368696C6420617665721C
:106D00006167652069733A20200053656E64696E7F
:106D100067206D6573736167652062656361757374
:106D20006520636172207475726E6564206F66669B
:106D300020616E64206368696C6420697320696EE9
:106D40002074686520636172005468652074656D05
:106D500070657261747572652069732072697369F8
:106D60006E6720746F6F20666173740054686520CD
:106D700074656D7020617665726167652069733A2C
:106D800020200053656E64696E67206D65737361C2
:106D9000676520626563617573652074656D7065F4
:106DA00072617475726520697320746F6F20686FEB
:106DB000740053656E64696E67206D6573736167F7
:106DC0006520626563617573652074656D70206907
:106DD0007320637269746963616C00596F75722006
:106DE0006368696C6420697320696E20746865202B
:106DF000636172000000000000000000BF4A0D0047
:106E0000B54A0D00AB4A0D00A14A0D00954A0D0090
:106E1000894A0D007D4A0D00754A0D006B4A0D0030
:106E2000614A0D00CD5C0D00000000000000000074
:106E3000DD4A0D00DF4A0D006E616E006F76660060
:106E40002E00696E66006261756400536572696147
:106E50006C0053657269616C310074797065007003
:106E60006172616D00636D6400696400686E640046
:106E70007374726D0066696C74006C766C0061648A
:106E80006448616E646C65720072656D6F7665480A
:106E9000616E646C657200656E756D48616E646CE0
:106EA000657273004A534F4E53747265616D4C6F37
:106EB0006748616E646C65720061707000253031E6
:106EC000307520005D20002564002C200028293A20
:106ED0002000205B00636F6465203D200025690071
:106EE00064657461696C73203D20000D0A006C6E4E
:106EF00000666E00636F64650064657461696C00B0
:106F00006E6F6E6500747261636500696E666F0016
:106F10007761726E006572726F720070616E696384
:106F200000616C6C005A00252B3033643A253032F6
:106F3000750025592D256D2D25645425483A254D7C
:106F40003A2553257A0061736374696D650000000A
:106F50000000000000000000A1500D00A7500D002F
:106F6000EB500D00B5500D00A3500D0000000000C7
:106F70000000000039560D0029560D002B560D005B
:106F8000000000000000000011570D0061570D00C7
:106F90006F570D00954C0D004D570D0013570D0008
:106FA00029570D005B570D003F570D000D570D0081
:106FB00000000000000000007B580D0071580D001B
:106FC00067580D001D580D005B580D004F580D00FF
:106FD00043580D003B580D0031580D0027580D0047
:106FE000CD5C0D000000000000000000B5580D0051
:106FF00005590D0013590D00954C0D00C9580D0091
:10700000EB580D00D7580D00FF580D00B7580D0074
:10701000BB580D000000000000000000E1590D0009
:107020002B5A0D00035A0D00E3590D000B5A0D00A9
:10703000135A0D001B5A0D00235A0D0000000000CA
:1070400000000000475B0D003D5B0D00335B0D0051
:10705000295B0D001D5B0D00115B0D00055B0D0034
:10706000FD5A0D00F35A0D00E95A0D00CD5C0D00DC
:107070000000000000000000655C0D006F5C0D006A
:10708000795C0D00835C0D008D5C0D00995C0D003A
:10709000A55C0D00B15C0D00B95C0D00C35C0D007A
:1070A000CD5C0D00000000000000000000000000AA
:1070B00000000000000000000000000000000000D0
:1070C00000000000000000000000000000000000C0
:1070D00000000000000000000000000000000000B0
:1070E00000000000000000000000000000000000A0
:1070F0000000000000000000000000000000000090
:107100000000000000000000430000004D440D009E
:1071100025460D00C94A0D002D4B0D006D4C0D008C
:107120000D4F0D001D4F0D00754F0D0085580D00C2
:10713000155C0D00995D0D00595F0D00DD5F0D00C0
:10714000A1600D0065610D0000000000000000005E
:04715000000000003B
:10715400466F0D0000000000A8700D00C8700D00FF
:10716400E8700D00000000000000000000000000B6
:107174000000000008710D00000000000000000085
:1071840000000000000000000000000000000000FB
:1071940000000000000000000000000000000000EB
:1071A40000000000000000000000000000000000DB
:0871B40000000000D0E20320FE
:1071BC00FFFFFFFF00000102030405060708090A90
:1071CC000B0C0D0E0F101112131415161718191A8B
:0871DC001B1C1D1E1F202800D2
:0471E4007856341293
:04000003D0004020C9
:00000001FF
