:02000002D0002C
:1040000000400D00B46F0D00000006000D0005011A
:084010000401DE0500000000C0
:04401800746A0D00B9
:10401C0009480A49884208B505D0094A824202D0AB
:10402C00121A02F087FC0748074A0021121A02F004
:10403C008CFC014808BD00BFD8E20320246F0D00A2
:10404C0040E3032040E30320F0E7032070B500F0C9
:10405C003BFF074C074BE41AA40800251E46A5425B
:10406C0004D056F8253098470135F8E770BD00BFED
:10407C00186F0D00E06E0D0000F016B808B500F0DA
:10408C001DF9BDE8084000F0E1BE00F0F1BB00F006
:10409C00F7BB00F0F5BB0078B0FA80F04009704730
:1040AC00012303707047000070B501F0D1FA4FF492
:1040BC00165101F0C1FA02F079FC244B244C034058
:1040CC00002BBEBF03F1FF3363F00103013307EE96
:1040DC00903A204BF8EEE77A04F11405C3ED007A20
:1040EC0002F064FC194B0340002BBEBF03F1FF33FD
:1040FC0063F00103013307EE903A164BF8EEE77AC2
:10410C000326C3ED017A02F051FC90FBF6F303EBAE
:10411C004303C01A07EE900AF8EEE77AE4EC017A52
:10412C00A542F0D10C4C472504F1140602F03EFCDC
:10413C0090FBF5F303FB1500503007EE900AF8EEF8
:10414C00E77AE4EC017AA642F0D170BD0100008060
:10415C0070E3032088E3032090E30320F8B502F01A
:10416C0025FC384C384E394F0440002CBCBF04F1B0
:10417C00FF3464F001044FF001014FF00800B8BFA8
:10418C00013401F033FD02F011FC0021054608203A
:10419C0001F02CFD02F00AFC3D232D4990FBF3F2BB
:1041AC0002FB13003268D7ED007A01EB820191ED2E
:1041BC00007A032395FBF3F303EB4303ED1A37EE7D
:1041CC00C77A07EE905AF8EEE77A531CC1ED007AE5
:1041DC0077EE277A042B1F4AC7ED007AC8BF00235D
:1041EC0007EE904A33601C4913681C4CF8EEE77AD2
:1041FC0001EB83010133C1ED007A012B1849D4ED99
:10420C00007AC8BF002313600B68164A02EB8302C6
:10421C0092ED007A5A3037EEC77A07EE900AF8EE34
:10422C00E77A0133C2ED007A042B77EE277AC8BF08
:10423C000023C4ED007A0B606420BDE8F84000F068
:10424C00B7BD00BF0100008068E3032054E30320E6
:10425C0070E303205CE3032088E3032058E303208E
:10426C0084E3032090E303201FB5114B02681B78F5
:10427C008DF800300F493C2302A800F093FF039CFB
:10428C007CB16368013B63605BB9236820469B6823
:10429C009847A368013BA3601BB923682046DB68E1
:1042AC00984701F0D5F9044900F05DFC04B010BD4D
:1042BC006CE30320886A0D00936A0D0010B5012190
:1042CC002DED028B072001F091FCFFF747FF644BAB
:1042DC00DFED647A03F11402B3EC017A9A4277EEC3
:1042EC00877AF9D1B1EE048A87EE887A5E4B5F4CFF
:1042FC00C3ED007A84ED007A01F0AAF95C4900F074
:10430C001FFC01F0A5F9022194ED000A00F02EFD2E
:10431C0094ED007AF0EE087AB4EEE77AF1EE10FA4A
:10432C0040F1918001F094F9524C534900F01BFC80
:10433C0001F08EF9514900F003FC01F089F994ED7C
:10434C00000A022100F0F8FC01F082F94C4900F05F
:10435C00F7FB01F07DF9022194ED010A00F006FD56
:10436C0094ED007AF7EE007AB4EE677AF1EE10FA7B
:10437C000ED1D4ED017AF5EE407AF1EE10FA07D1B8
:10438C004048FFF771FF01F063F93F4900F0EBFB88
:10439C003E4B93ED007AD3ED047A77EEC77AB2EE0A
:1043AC00047AF4EEC77AF1EE10FA07DB3548FFF722
:1043BC005BFF01F04DF9364900F0D5FB334BDFEDD7
:1043CC00297A03F11402B3EC017A9A4277EE877AD8
:1043DC00F9D187EE887A2F4B2F4CC3ED007A84ED00
:1043EC00007A01F035F92D499FED2D8A00F0A8FBDC
:1043FC0001F02EF9022194ED000A00F0B7FCD4ED87
:10440C00007A9FED287AF4EEC77AF1EE10FA0CDB05
:10441C00F4EEC87AF1EE10FA07D51A48FFF724FF2C
:10442C0001F016F9204900F09EFBD4ED007AF4EE71
:10443C00C87AF1EE10FA06DB1248FFF715FF01F00F
:10444C0007F91A49EFE70720002101F0CFFBBDEC7B
:10445C00028B4FF4FA60BDE8104000F0A9BC00BF1D
:10446C0070E303200000000054E3032064E3032006
:10447C00A26A0D0088E30320BA6A0D00C76A0D001A
:10448C00B86A0D0044E30320DB6A0D0090E30320BF
:10449C001A6B0D0058E3032060E303203D6B0D0005
:1044AC000000B4420000A042546B0D00836B0D0061
:1044BC0010B5084B084C01221A7000F025F807497A
:1044CC00204600F0C4FA2046054A0649BDE81040D3
:1044DC0001F006BC6CE3032044E30320AC6B0D003D
:1044EC0040E30320CD490D0008B5024B1B689B68C7
:1044FC00019308BD6802030008B5024B1B68DB681A
:10450C00019308BD6802030008B5024B1B681B68C9
:10451C00019308BD2C02030008B5024B1B68DB6835
:10452C00019308BD2C02030008B5024B1B681B69E4
:10453C00019308BD2C02030008B5024B1B68DB6914
:10454C00019308BD3002030008B5024B1B681B6ABF
:10455C00019308BD3002030008B5024B1B685B6871
:10456C00019308BD1802030008B5024B1B685B6978
:10457C00019308BD1802030008B5024B1B689B6829
:10458C00019308BD4802030008B5024B1B681B6968
:10459C00019308BD4802030008B5024B1B685B6918
:1045AC00019308BD4802030008B5024B1B685B6C05
:1045BC00019308BD4802030008B5024B1B689B6CB5
:1045CC00019308BD4802030008B5024B1B685B69E8
:1045DC00019308BD6402030008B5024B1B681B68FD
:1045EC00019308BD3C02030008B5024B1B68DB6855
:1045FC00019308BD3C02030008B5024B1B681B6904
:10460C00019308BD3C02030008B5024B1B685B69B3
:10461C00019308BD3C02030008B5024B1B689B6963
:10462C00019308BD3C02030008B5024B1B68DB6913
:10463C00019308BD3C02030008B5024B1B681B6AC2
:10464C00019308BD3C02030008B5024B1B689B6A32
:10465C00019308BD3C02030008B5024B1B681B6AA2
:10466C00019308BD2802030008B5024B1B685B6A66
:10467C00019308BD2802030008B5024B1B689B6A16
:10468C00019308BD2802030008B5024B1B68DB6AC6
:10469C00019308BD2802030008B5024B1B681B6B75
:1046AC00019308BD2802030008B5024B1B685B6B25
:1046BC00019308BD2802030008B5024B1B681B6C54
:1046CC00019308BD2802030008B5024B1B681B6848
:1046DC00019308BD4C02030008B5024B1B685B68D4
:1046EC00019308BD4C02030008B5024B1B681B6903
:1046FC00019308BD4C02030008B5024B1B685B69B3
:10470C00019308BD4C02030008B5024B1B689B6962
:10471C00019308BD4C02030008B5024B1B68DB6912
:10472C00019308BD4C02030008B5024B1B681B6AC1
:10473C00019308BD4C02030008B5024B1B685B6873
:10474C00019308BD2002030008B5024B1B685B698E
:10475C00019308BD2002030008B5024B1B68DB6CFB
:10476C00019308BD2002030008B5024B1B685B6D6A
:10477C00019308BD2002030008B5034B1B68D3F856
:10478C008830019308BD00002002030008B5034BDC
:10479C001B68D3F89430019308BD0000200203007D
:1047AC0008B5024B1B685B68019308BD400203000F
:1047BC0008B5024B1B689B68019308BD40020300BF
:1047CC0008B5024B1B68DB68019308BD400203006F
:1047DC0008B5024B1B681B69019308BD400203001E
:1047EC0008B5024B1B685B69019308BD40020300CE
:1047FC0008B5024B1B689B69019308BD400203007E
:10480C0008B5024B1B68DB69019308BD400203002D
:10481C0008B5024B1B681B6A019308BD40020300DC
:10482C0008B5024B1B681B6B019308BD40020300CB
:10483C0008B5024B1B685B6B019308BD400203007B
:10484C0008B5024B1B685B69019308BD4402030069
:10485C0008B5024B1B681B6A019308BD4402030098
:10486C0008B5024B1B68DB6B019308BD44020300C7
:10487C0008B5024B1B681B68019308BD1C020300A2
:10488C0008B5024B1B685B68019308BD1C02030052
:10489C0008B5024B1B689B68019308BD1C02030002
:1048AC0008B5024B1B68DB6A019308BD1C020300B0
:1048BC0008B5024B1B681B6B019308BD1C0203005F
:1048CC00002211464068FFF7A3BF00221146406842
:1048DC00FFF7AEBF00224068FFF7A2BF002281F0B5
:1048EC0001014068FFF78CBF00231A461946406847
:1048FC00FFF77EBF00231A4619464068FFF770BFCA
:10490C00002211464068FFF763BF00221146406841
:10491C00FFF74EBF002202214068FFF751BF002372
:10492C001A464068FFF73CBF024B03225A60024A0A
:10493C001A607047A4E30320D06B0D00704710B5CC
:10494C000C21044601F0DAF9204610BD10B5054BD8
:10495C000360044601710846FFF7EEFD0023A360D7
:10496C00204610BD046C0D000079FFF7EDBD10B5AD
:10497C000446006818B1FFF783FF0023236010BDC5
:10498C0010B50446FFF7F3FF204610BD10B5094CD7
:10499C0000204FF6FF732060A080A07120816381FE
:1049AC00FFF7CAFE2046044A0449BDE8104001F056
:1049BC0097B900BFACE3032040E303208D490D0001
:1049CC0010B504460068FFF75BFF204610BD10B51C
:1049DC000446006808B1FFF753FF00232360A3606F
:1049EC00636010BD38B504460D4600680131FFF711
:1049FC004FFF10B184E82100012038BD10B50368C9
:104A0C00044613B143688B4207D22046FFF7EAFFF6
:104A1C0020B1A3680BB922681370012010BD70B5CA
:104A2C000E46114604461546FFF7E8FF18B9204616
:104A3C00FFF7CDFF09E02A463146A560206801F05A
:104A4C0079FF2268A3680021D154204670BD38B587
:104A5C000023044603604360836003730D4639B141
:104A6C00084601F0F8FF294602462046FFF7D7FF1B
:104A7C00204638BD10B50446006808B1FFF79CFD10
:104A8C00204610BD10B5036804469B689847A36880
:104A9C00013BA3602BB923682046DB68BDE81040BE
:104AAC00184710BD0B68036013B15A6801325A6085
:104ABC00704710B50446006828B14368013B436059
:104ACC000BB9FFF7DFFF204610BD000010B5064CF8
:104ADC00002320462360FFF767FD2046034A044964
:104AEC00BDE8104001F0FCB8B8E3032040E303201C
:104AFC00814A0D00F8B506460D468F180024BD42BC
:104B0C000CD0336815F8011B9B6830469847002879
:104B1C0001DB0444F3E7002C08BF04462046F8BD33
:104B2C0070B505460C46084649B101F094FF2B6858
:104B3C00024621462846DB68BDE87040184770BD28
:104B4C0008B5FFF7EDFF08BD03689B68184738B53B
:104B5C000D210546FFF7F8FF0A2104462846FFF70A
:104B6C00F3FF204438BD38B50546FFF7D9FF04469E
:104B7C002846FFF7ECFF204438BD30B58BB00B4610
:104B8C0000218DF82410012A98BF0A220DF123046C
:104B9C00B3FBF2F505FB123303F0FF03092B94BFB3
:104BAC0030333733DBB2214604F801392B46002D64
:104BBC00EED1FFF7B5FF0BB030BD00002DE9F0478B
:104BCC0057EC106B82460D4610EE102A3B4610EE49
:104BDC00100A394601F042FE08B14E4912E027F0A6
:104BEC0000494FF0FF324C4B3046494601F036FE3F
:104BFC0068B94FF0FF32484B3046494601F010FE81
:104C0C0028B946495046FFF78BFFBDE8F0874FF0B7
:104C1C006042434B3046394601F016FE08B141491B
:104C2C00F0E74FF06042404B3046394601F0EEFD64
:104C3C000028F4D1002200233046394601F0E6FD6D
:104C4C0040B12D215046FFF77FFF07F1004304468A
:104C5C001F4600E0044635494FF0000800205FFA7B
:104C6C0088F39D4206D90022314B01F087FC08F1F4
:104C7C000108F4E732463B4601F0A4F90F4606461C
:104C8C0001F02AFE0A22014680465046FFF775FFC6
:104C9C000444E5B3404601F0D1FA02460B463046D7
:104CAC00394601F08DF906460F4650462149FFF76B
:104CBC0037FF044400221E4B3046394601F034FBCA
:104CCC0006460F4601F0E0FDB0F1000907DA2D2190
:104CDC005046FFF739FFC9F10001804602E0494612
:104CEC004FF000080A225046FFF747FF40440444A7
:104CFC00484601F0B3FA02460B463046394601F0FD
:104D0C005FF9013D15F0FF0506460F46D2D120464E
:104D1C00BDE8F0870C6C0D00FFFFEF7F166C0D00EB
:104D2C00FFFFEF41106C0D00FFFFEFC10000E03FF3
:104D3C0000002440146C0D0038B5044610EE100A27
:104D4C00CDB201F09DFA41EC100B29462046BDE88E
:104D5C003840FFF733BF38B5C9B20546FFF72EFF11
:104D6C0004462846FFF7F3FE204438BD38B5044608
:104D7C0010EE100A0D4601F083FA41EC100B294697
:104D8C002046BDE83840FFF7E6BF0000014B024A61
:104D9C001A607047BCE303208D6C0D00024B1A683F
:104DAC00024B1A60704700BFD8E20320C0E3032017
:104DBC000021FFF7C9BC10B58368044613B1032268
:104DCC0001469847204610BD10B50446FFF7F3FF87
:104DDC00204610BD13B50B46044603C88DE80300EE
:104DEC0093E8030084E803009DE8030083E80300D4
:104DFC0002B010BD0348044A04490023836000F04C
:104E0C006FBF00BFC4E3032040E30320D54D0D006A
:104E1C0008B50C4B33B100F01BFC03681B699847B9
:104E2C00002809DC084B63B100F0E0FC03681B6947
:104E3C009847002803DC08BDAFF30080F2E7AFF31E
:104E4C00008008BD000000000000000008B5FFF75E
:104E5C00DFFFFFF789FB014B186008BD30E703202B
:104E6C000248034A0349121A01F064BD00F40320FE
:104E7C0004F40320206F0D0007B5002300931A469D
:104E8C006FF07701FFF782FC03B05DF804FB0000C4
:104E9C0007B543880A2B08D0502B09D1094B1B6846
:104EAC003BB103B05DF804EB1847FFF7E5FF06E0F4
:104EBC00002300931A466FF07701FFF767FC03B0ED
:104ECC005DF804FBD4E3032038B5104C104D236877
:104EDC00AB42104B0CBF012200221A7002D0FFF71C
:104EEC00BFFF2560FFF738FB044601F037FD0A4B86
:104EFC0013B12046AFF3008000210748FFF7B0FC48
:104F0C0000210648BDE83840FFF736BC00F403200A
:104F1C001E1C279AD8E30320000000009D4E0D00B4
:104F2C0070470020704710B51021044600F0E6FED3
:104F3C00204610BD08B508B1FFF7F5FF08BD0022EB
:104F4C00026010B54FF69C728280B1F904408480E7
:104F5C008A8002680C6804600A6010BD10B50446B3
:104F6C000068FFF78DFC204610BD38B5C468F4B15D
:104F7C002378022B03D104F10C00FFF7EFFF6568D7
:104F8C0035B12846FFF717FF1021284600F0B6FE72
:104F9C00A56835B12846FFF70EFF1021284600F012
:104FAC00ADFE20461421BDE8384000F0A7BE38BD48
:104FBC0013B5044691E8050000234B600B6020609C
:104FCC00626001A801930093FFF773FD204602B0C5
:104FDC0010BDF7B50C4602AD54F8043B45F8083D3E
:104FEC0006460F4601A82146FFF75CFD29463046D0
:104FFC00FFF7DEFF01A8FFF75CFD2046FFF759FD28
:10500C003846082100F07AFE304603B0F0BD0000AF
:10501C0038B500230446036010200D46FFF735F821
:10502C0028B1012343608360024B0360C56020609C
:10503C00204638BD2C6D0D00826810B50AB900F001
:10504C0070FEC368BDE81040184708B5006800F151
:10505C001001FFF7F1FF08BD826810B50AB900F026
:10506C0060FEC368BDE81040184708B5006800F141
:10507C001001FFF7F1FF08BD38B5002383608B6882
:10508C0004460D462BB102229847EB68E360AB68EF
:10509C00A360204638BD0000F0B589B004686846AE
:1050AC00FFF74DFF00238DF808304FF00202D4E8D3
:1050BC004F3F002B03D1C4E8412F0029F7D102D078
:1050CC008DF8083063E014F10C0503D069462846CE
:1050DC00FFF735FFBFF35F8F01236370002004F1EE
:1050EC000803BFF35F8F53E8006F43E80002002A08
:1050FC00F9D1BFF35F8F002E49D0FFF72DFB20B104
:10510C0029463046FFF798FF3AE0314602A8FFF7F0
:10511C00B3FFE068B4F9105008B101F081FC0690BF
:10512C001020ADF81C50FEF7B0FF0546E8B1002783
:10513C0087601820FEF7A9FF044688B101468760F6
:10514C0002A8FFF747FE049BA268A360059B04928C
:10515C0006A9E268E36004F110000592FFF7EFFE88
:10516C000D4BEB600D4B2C60AB6006A8FFF7F6FE09
:10517C0002A8FFF720FE002229460948FFF7F4FA9F
:10518C003046FFF718FE1021304600F0B7FD684698
:10519C00FFF7E4FE09B0F0BD57500D00CD520D00E5
:1051AC0045580D002DE9F04F8BB006460F46904642
:1051BC0099469DF850A0FFF743FB07AD834630BBE3
:1051CC004FF62E73059005A92846ADF81830FFF759
:1051DC00B6FE1420FEF759FF044658B102230370A3
:1051EC0001234370C0F804B0C0F808B029460C3055
:1051FC00FFF7A5FE3046214640F8044BFFF708FFA9
:10520C002846FFF7ABFE05A8FFF7A8FE52E00024E6
:10521C000C2314206C60AC600793FEF736FF01463C
:10522C0018B1047044704460846004A80391FFF7C3
:10523C00EFFE224B08930820FEF727FF044628B107
:10524C00039B40F8043B04A9FFF72CFC00955FFA84
:10525C008AF34A46414638460994FFF7F9FA20B9D1
:10526C00039B5B7803F0FF0283B1039B059304A9B6
:10527C0006A8FFF717FC05A93046FFF799FE06A80C
:10528C00FFF717FC04A8FFF714FC13E04FF69C7310
:10529C0005A903A80592ADF81830FFF7FDFE05A887
:1052AC00FFF75CFE05A80999FFF793FE06A8FFF728
:1052BC0000FCDAE730460BB0BDE8F08F3D540D0032
:1052CC00022AF8B5044606D0032A17D0012A22D1A7
:1052DC000B6803601FE018200E68FEF7D6FE05462B
:1052EC0050B13146FFF7C8FE3069B6F9147008B1F9
:1052FC0001F096FB2861AF8225600CE0046854B184
:10530C0004F11000FFF72AFE2046FFF754FD182188
:10531C00204600F0F3FC0020F8BD38B50023836074
:10532C008B6804460D462BB102229847EB68E3606C
:10533C00AB68A360204638BD022A70B5044606D07F
:10534C00032A11D0012A18D10B68036015E0142030
:10535C000E68FEF79AFE054620B13146FFF7DDFFD9
:10536C00337C2B74256008E0046834B12046FFF7C9
:10537C0022FD1421204600F0C1FC002070BD00006D
:10538C00F0B5002387B00C46BFF35F8F50E8006F79
:10539C0040E80032002AF9D1BFF35F8F002E3FD0D6
:1053AC001846FFF7D9F9074620B121463046FFF7DA
:1053BC0053FE2EE0314601A8FFF7AFFF23788DF89E
:1053CC0014301020FEF761FE0546D0B18760142022
:1053DC00FEF75BFE044678B18760014601A8FFF733
:1053EC00F9FC039BA268A360049B0392E268E36050
:1053FC009DF81430049223740A4BEB600A4B2C601A
:10540C00AB6001A8FFF7D7FC002229460748FFF73D
:10541C00ABF93046FFF7CFFC1021304600F06EFCA4
:10542C0007B0F0BD77500D0045530D0045580D00E9
:10543C0030B585B004460D4668461146FFF7C9FDE8
:10544C007CB124B228460DB101F0EAFA029002A90F
:10545C006846ADF80C40FFF71FFE02A8FFF77EFD73
:10546C001DE000988DF808404FF00102D0E84F3F46
:10547C00A34203D1C0E8412F0029F7D102D08DF807
:10548C0008300CE010F10C014FF0010318BF03734E
:10549C00BFF35F8F043000F8033CFFF771FF01A8E6
:1054AC00FFF707FB05B030BD704710B51821044657
:1054BC0000F024FC204610BDF0B5037D062B8DB00A
:1054CC000E4600F104074FF0000402D000F108056D
:1054DC0018E00CAD394605F8304D2F232A460A202A
:1054EC00FFF772F8284601F0B6FA33680246DB681B
:1054FC002946304698470FE024B12E213046FFF75D
:10550C0023FB044415F8011D0A223046FFF735FB36
:10551C00BD420444F0D120460DB0F0BD10B5054B92
:10552C000446112240F8043B002101F00EFA2046FB
:10553C0010BD00BF486D0D000346074A10B543F877
:10554C00042B01F1100251F8044B43F8044B914227
:10555C00F9D10A781A7010BD486D0D0010B59DF880
:10556C00084044EA032343EA024242EA016104236D
:10557C004160037510BD37B50D788B784A78C978C2
:10558C0000912946FFF7EAFF03B030BD4174704724
:10559C00704708B50021007CFFF7B6F830EA200010
:1055AC0028BF4FF0FF3008BD08B50121007CFFF784
:1055BC00ABF830EA200028BF4FF0FF3008BD08B52B
:1055CC00007CFFF799F820EAE07008BD08B5007C74
:1055DC00FFF78AF820EAE07008BD007CFFF7A4B85A
:1055EC0010B51421044600F089FB204610BD38B5D7
:1055FC000446007C0D46FFF77FF8002801DC607C38
:10560C0028B12946207CFFF787F820EAE07038BDE6
:10561C0010B50446002363604FF47A73A360054B06
:10562C00236001230846217463741146FFF74CF87C
:10563C00204610BD5C6D0D000022007CFFF74CB8BD
:10564C0010B514220446002101F07FF9204610BD4C
:10565C0030B50E4D87B001A8FFF7F2FF296811F0A5
:10566C00010410D12846FEF716FD60B101AA2146AF
:10567C000748FFF7CDFF2846FEF712FD054A0649FD
:10568C00034800F02DFB024807B030BDDCE30320DB
:10569C00E0E3032040E303209D550D00002211465A
:1056AC004068FFF795B8002211464068FFF7B0B884
:1056BC00002211464068FFF7BBB800224068FFF794
:1056CC00AFB8002281F001014068FFF799B80023C0
:1056DC001A4619464068FFF78BB800231A4619463C
:1056EC004068FFF77DB8002211464068FFF760B8AC
:1056FC00002202214068FFF763B800231A46406875
:10570C00FFF74EB838B5084C28252A46002120460C
:10571C0001F01BF94FF0FF336360044B258004222A
:10572C005A60034A1A6038BDFCE30320F4E30320FB
:10573C008C6D0D0070474174704708B5007CFEF706
:10574C0083FF20EAE07008BD08B5007CFEF754FF2B
:10575C0020EAE07008BD08B5007CFEF75DFF30EA7A
:10576C00200028BF4FF0FF3008BD08B5007CFEF7C5
:10577C004BFF30EA200028BF4FF0FF3008BD007C03
:10578C00FEF752BF10B51421044600F0B7FA2046BC
:10579C0010BD70B5457C04460E4625B9007CFEF75D
:1057AC0053FF002805DD3146207CBDE87040FEF734
:1057BC001BBF284670BD000010B5044608461146B4
:1057CC00002262604FF47A72A260054A22600122C4
:1057DC00207462741A46FEF7FFFE204610BD00BF0F
:1057EC00C06D0D00007CFEF727BF000038B50C4DD6
:1057FC00296811F0010411D12846FEF74CFC68B160
:10580C00084A094B09482146FFF7D6FF2846FEF700
:10581C0047FC074A0749054800F062FA034838BDBF
:10582C00BCE40320C0E4032038E4032024E4032078
:10583C0040E3032041570D0010B5836804460BB9B3
:10584C0000F06FFAC3689847A3681BB10322214686
:10585C002046984720461021BDE8104000F04EBA73
:10586C007047F8B5064615460C468F18BC4206D054
:10587C00336814F8011B9B6830469847F6E72846B6
:10588C00F8BD0022007CFEF7E7BE0021007CFEF78D
:10589C00EBBE0021007CFEF7EFBE0021007CFEF782
:1058AC00F3BE0021007CFEF7F7BE10B514210446B0
:1058BC0000F024FA204610BD10B5044600236360A6
:1058CC004FF47A73A360044B21740846236011468D
:1058DC00FEF7F2FE204610BDF06D0D000021007C9D
:1058EC00FEF7E2BE002211464068FEF791BF00228F
:1058FC0011464068FEF79CBF00224068FEF790BF3F
:10590C00002281F001014068FEF77ABF00231A469D
:10591C0001214068FEF76CBF00231A461946406807
:10592C00FEF75EBF002211464068FEF751BF002211
:10593C0011464068FEF73CBF002202214068FEF78A
:10594C003FBF00231A464068FEF72ABF38B505460C
:10595C0088B104684CB1A3681BB1032221462046D0
:10596C0098471021204600F0C9F928461421BDE8BB
:10597C00384000F0C3B938BD10B103685B681847F4
:10598C00704710B503680446BBB15868FEF7F4FDC8
:10599C0078B923685A7C12B95868FEF7F5FD23686C
:1059AC005868FEF7F9FD20680023236028B1FFF743
:1059BC00CDFF206808B1FFF7C9FF204610BD38B5F0
:1059CC000446D0F8C40108B1FEF763FBD4F8C0015B
:1059DC0008B1FEF7F1FDD4F8BC5135B12846FFF7FC
:1059EC00D0FF0421284600F089F9206808B1FFF7A0
:1059FC00C3FF204638BD000010B5044B044640F8E8
:105A0C00083BFFF7DCFF204610BD00BF186E0D00F1
:105A1C0038B50E4C0E4B23600025022304F5E470C0
:105A2C006360A560C4F8C451C4F8C851FEF7BCFD4E
:105A3C00084BC4F8CC5184F8D05123602046064A58
:105A4C000649BDE8384000F04BB900BF44E50320DF
:105A5C004C6E0D00186E0D0040E30320055A0D002E
:105A6C0000231A464068FEF79BBE002202214068C4
:105A7C00FEF7A6BE002211464068FEF799BE002232
:105A8C0011464068FEF7A4BE00231A46194640682A
:105A9C00FEF7A6BE00231A4619464068FEF7A8BEBC
:105AAC00002281F001014068FEF7AABE0022406886
:105ABC00FEF7B6BE002211464068FEF7B9BE0022C2
:105ACC0011464068FEF7A4BE2DE9F043002495B0C2
:105ADC0016460D460746FFF721FD214620220CA84D
:105AEC00009400F032FF40230C9321466B460CAA25
:105AFC003046FEF701FD0446002844D10246012140
:105B0C006868FEF765FE0221804622466868FEF74B
:105B1C005FFE009E81462146002E34D0002932D1F2
:105B2C007368022B02D00A2B09D02AE0B8F1000FBF
:105B3C0027D0716938460431FFF71DFD20E0B9F11B
:105B4C00000F1ED07469112201A800F0FEFE06237E
:105B5C008DF8143001AD04F1080318341868596835
:105B6C002A4603C20833A3421546F7D101A906A859
:105B7C0007ADFFF7E1FC0FCD3C1D0FC42B68237064
:105B8C000121F669C8E70098FEF7AEFC384615B05F
:105B9C00BDE8F083024B034A1A6000225A6070473A
:105BAC0018E703204C6E0D0010B5044600F038F8D1
:105BBC00FEF7DAFE28B1A4F10B03022B01D800206A
:105BCC0010BD00F067F8FFF789FE08B1012CF6D97B
:105BDC00FFF70CFEFFF706FE18B1A4F10903012B29
:105BEC00EDD9232C8CBF0020012010BD38B5044604
:105BFC000D46FEF791FCFF2810D0062804D84D2343
:105C0C0023FA00F0C30709D42046FFF7CDFF28B1D3
:105C1C0029462046BDE83840FEF786BC38BD00005A
:105C2C0038B50B4D296811F001040FD12846FEF749
:105C3C0032FA58B121460748FEF788FE2846FEF78F
:105C4C002FFA054A0549034800F04AF8014838BDC7
:105C5C002CE7032020E7032040E3032049490D00F3
:105C6C0070B5044614252A46094E002100F06DFE3D
:105C7C00258020253146A5602561284600F040F896
:105C8C0031466060284600F03BF8E060204670BD6D
:105C9C00786E0D0030B50E4D296811F0010487B0F7
:105CAC0013D12846FEF7F7F978B101A8FFF7D8FF12
:105CBC0001AA21460748FFF7FFFD2846FEF7F0F939
:105CCC00054A0649034800F00BF8024807B030BDFE
:105CDC0034E7032038E7032040E303206D580D0020
:105CEC000B460146184600F017BE0000024B186820
:105CFC00BFF35F8F704700BF4CE70320FEF7C7B9B7
:105D0C0000F000B810B5002814BF0446012420464A
:105D1C00FEF7AEFD20B9FFF7E9FF08B18047F6E7C3
:105D2C0010BD08B5FEF7BCFD184B1A68D1075CBF57
:105D3C0001221A60164B1A68D2075CBF01221A6046
:105D4C00144B1A68D0075CBF01221A60124B1A68F8
:105D5C00D1075CBF01221A60104B1A68D2075CBFD6
:105D6C0001221A600E4B1A68D0075CBF01221A6020
:105D7C000C4B1A68D1075CBF01221A600A4B1A68D7
:105D8C00D2075CBF01221A60704700BF6CE703208A
:105D9C0068E7032064E7032060E703205CE7032047
:105DAC0058E7032054E7032050E70320244B1A68DC
:105DBC00D0075CBF01221A60224B1A68D1075CBF66
:105DCC0001221A60204B1A68D2075CBF01221A60AC
:105DDC001E4B1A68D0075CBF01221A601C4B1A6854
:105DEC00D1075CBF01221A601A4B1A68D2075CBF3C
:105DFC0001221A60184B1A68D0075CBF01221A6086
:105E0C00164B1A68D1075CBF01221A60144B1A6832
:105E1C00D2075CBF01221A60124B1A68D0075CBF14
:105E2C0001221A60104B1A68D1075CBF01221A605C
:105E3C000E4B1A68D2075CBF01221A60704700BF74
:105E4C009CE7032098E7032094E7032090E70320C6
:105E5C008CE7032088E7032084E7032080E70320F6
:105E6C007CE7032078E7032074E7032070E7032026
:105E7C00244B1A68D0075CBF01221A60224B1A68A7
:105E8C00D1075CBF01221A60204B1A68D2075CBF95
:105E9C0001221A601E4B1A68D0075CBF01221A60DF
:105EAC001C4B1A68D1075CBF01221A601A4B1A6886
:105EBC00D2075CBF01221A60184B1A68D0075CBF6E
:105ECC0001221A60164B1A68D1075CBF01221A60B6
:105EDC00144B1A68D2075CBF01221A60124B1A6865
:105EEC00D0075CBF01221A60104B1A68D1075CBF47
:105EFC0001221A600E4B1A68D2075CBF01221A608D
:105F0C00704700BFCCE70320C8E70320C4E7032099
:105F1C00C0E70320BCE70320B8E70320B4E7032065
:105F2C00B0E70320ACE70320A8E70320A4E7032095
:105F3C00A0E70320184B1A68D1075CBF01221A6036
:105F4C00164B1A68D2075CBF01221A60144B1A68F0
:105F5C00D0075CBF01221A60124B1A68D1075CBFD4
:105F6C0001221A60104B1A68D2075CBF01221A601A
:105F7C000E4B1A68D0075CBF01221A600C4B1A68D2
:105F8C00D1075CBF01221A600A4B1A68D2075CBFAA
:105F9C0001221A60704700BFECE70320E8E70320FA
:105FAC00E4E70320E0E70320DCE70320D8E7032045
:105FBC00D4E70320D0E7032081F0004102E000BFCA
:105FCC0083F0004330B54FEA41044FEA430594EAAD
:105FDC00050F08BF90EA020F1FBF54EA000C55EAE8
:105FEC00020C7FEA645C7FEA655C00F0E2804FEAB9
:105FFC005454D4EB5555B8BF6D420CDD2C4480EA9B
:10600C00020281EA030382EA000083EA010180EACA
:10601C00020281EA0303362D88BF30BD11F0004F18
:10602C004FEA01314FF4801C4CEA113102D040424E
:10603C0061EB410113F0004F4FEA03334CEA133389
:10604C0002D0524263EB430394EA050F00F0A780A1
:10605C00A4F10104D5F1200E0DDB02FA0EFC22FA9C
:10606C0005F2801841F1000103FA0EF2801843FA90
:10607C0005F359410EE0A5F120050EF1200E012A81
:10608C0003FA0EFC28BF4CF0020C43FA05F3C018BF
:10609C0051EBE37101F0004507D54FF0000EDCF138
:1060AC00000C7EEB00006EEB0101B1F5801F1BD3E1
:1060BC00B1F5001F0CD349085FEA30004FEA3C0CE5
:1060CC0004F101044FEA445212F5800F80F09A80DB
:1060DC00BCF1004F08BF5FEA500C50F1000041EBDF
:1060EC00045141EA050130BD5FEA4C0C404141EBE3
:1060FC00010111F4801FA4F10104E9D191F0000F0A
:10610C0004BF01460020B1FA81F308BF2033A3F18C
:10611C000B03B3F120020CDA0C3208DD02F1140C83
:10612C00C2F10C0201FA0CF021FA02F10CE002F1BE
:10613C001402D8BFC2F1200C01FA02F120FA0CFCB7
:10614C00DCBF41EA0C019040E41AA2BF01EB045100
:10615C00294330BD6FEA04041F3C1CDA0C340EDCFE
:10616C0004F11404C4F1200220FA04F001FA02F341
:10617C0040EA030021FA04F345EA030130BDC4F1FF
:10618C000C04C4F1200220FA02F001FA04F340EAF4
:10619C000300294630BD21FA04F0294630BD94F0A5
:1061AC00000F83F4801306BF81F480110134013D8C
:1061BC004EE77FEA645C18BF7FEA655C29D094EAFD
:1061CC00050F08BF90EA020F05D054EA000C04BF7B
:1061DC001946104630BD91EA030F1EBF0021002066
:1061EC0030BD5FEA545C05D14000494128BF41F005
:1061FC00004130BD14F580043CBF01F5801130BD69
:10620C0001F0004545F0FE4141F470014FF00000F3
:10621C0030BD7FEA645C1ABF194610467FEA655CA4
:10622C001CBF0B46024650EA013406BF52EA033546
:10623C0091EA030F41F4002130BD00BF90F0000F34
:10624C0004BF0021704730B54FF4806404F1320470
:10625C004FF000054FF0000150E700BF90F0000F29
:10626C0004BF0021704730B54FF4806404F1320450
:10627C0010F0004548BF40424FF000013EE700BF20
:10628C0042004FEAE2014FEA31014FEA02701FBFB0
:10629C0012F07F4393F07F4F81F06051704792F082
:1062AC00000F14BF93F07F4F704730B54FF46074FC
:1062BC0001F0004521F0004120E700BF50EA010247
:1062CC0008BF704730B54FF000050AE050EA0102F4
:1062DC0008BF704730B511F0004502D5404261EB64
:1062EC0041014FF4806404F132045FEA915C3FF4A5
:1062FC00DCAE4FF003025FEADC0C18BF03325FEA3E
:10630C00DC0C18BF033202EBDC02C2F1200300FAF2
:10631C0003FC20FA02F001FA03FE40EA0E0021FA17
:10632C0002F11444C1E600BF70B54FF0FF0C4CF401
:10633C00E06C1CEA11541DBF1CEA135594EA0C0FB7
:10634C0095EA0C0F00F0DEF82C4481EA030621EAF2
:10635C004C5123EA4C5350EA013518BF52EA03352D
:10636C0041F4801143F4801338D0A0FB02CE4FF0DF
:10637C000005E1FB02E506F00042E0FB03E54FF00F
:10638C000006E1FB03569CF0000F18BF4EF0010E07
:10639C00A4F1FF04B6F5007F64F5407404D25FEA03
:1063AC004E0E6D4146EB060642EAC62141EA5551B6
:1063BC004FEAC52040EA5E504FEACE2EB4F1FD0CF8
:1063CC0088BFBCF5E06F1ED8BEF1004F08BF5FEA76
:1063DC00500E50F1000041EB045170BD06F0004628
:1063EC0046EA010140EA020081EA0301B4EB5C04D5
:1063FC00C2BFD4EB0C0541EA045170BD41F48011CD
:10640C004FF0000E013C00F3AB8014F1360FDEBFF1
:10641C00002001F0004170BDC4F10004203C35DACD
:10642C000C341BDC04F11404C4F1200500FA05F350
:10643C0020FA04F001FA05F240EA020001F00042F1
:10644C0021F0004110EBD37021FA04F642EB060167
:10645C005EEA430E08BF20EAD37070BDC4F10C0491
:10646C00C4F1200500FA04F320FA05F001FA04F255
:10647C0040EA020001F0004110EBD37041F1000141
:10648C005EEA430E08BF20EAD37070BDC4F120054C
:10649C0000FA05F24EEA020E20FA04F301FA05F2B4
:1064AC0043EA020321FA04F001F0004121FA04F25C
:1064BC0020EA020000EBD3705EEA430E08BF20EA2C
:1064CC00D37070BD94F0000F0FD101F00046400066
:1064DC0041EB010111F4801F08BF013CF7D041EAE8
:1064EC00060195F0000F18BF704703F000465200EC
:1064FC0043EB030313F4801F08BF013DF7D043EABD
:10650C000603704794EA0C0F0CEA135518BF95EA72
:10651C000C0F0CD050EA410618BF52EA4306D1D1F9
:10652C0081EA030101F000414FF0000070BD50EA18
:10653C00410606BF1046194652EA430619D094EAA2
:10654C000C0F02D150EA013613D195EA0C0F05D18C
:10655C0052EA03361CBF104619460AD181EA0301E0
:10656C0001F0004141F0FE4141F470014FF0000098
:10657C0070BD41F0FE4141F4780170BD70B54FF033
:10658C00FF0C4CF4E06C1CEA11541DBF1CEA1355B3
:10659C0094EA0C0F95EA0C0F00F0A7F8A4EB050495
:1065AC0081EA030E52EA03354FEA013100F088808C
:1065BC004FEA03334FF0805545EA131343EA126355
:1065CC004FEA022245EA111545EA10654FEA00260A
:1065DC000EF000419D4208BF964244F1FD0404F5C3
:1065EC00407402D25B084FEA3202B61A65EB03051F
:1065FC005B084FEA32024FF480104FF4002CB6EBDC
:10660C00020E75EB030E22BFB61A754640EA0C005B
:10661C005B084FEA3202B6EB020E75EB030E22BF9B
:10662C00B61A754640EA5C005B084FEA3202B6EBDC
:10663C00020E75EB030E22BFB61A754640EA9C009B
:10664C005B084FEA3202B6EB020E75EB030E22BF6B
:10665C00B61A754640EADC0055EA060E18D04FEA29
:10666C00051545EA16754FEA06164FEAC30343EAC9
:10667C0052734FEAC2025FEA1C1CC0D111F4801F96
:10668C000BD141EA00014FF000004FF0004CB6E78F
:10669C0011F4801F04BF01430020B4F1FD0C88BF2E
:1066AC00BCF5E06F3FF6AFAEB5EB030C04BFB6EB39
:1066BC00020C5FEA500C50F1000041EB045170BD2C
:1066CC000EF0004E4EEA113114EB5C04C2BFD4EB59
:1066DC000C0541EA045170BD41F480114FF0000EDD
:1066EC00013C90E645EA060E8DE60CEA135594EA59
:1066FC000C0F08BF95EA0C0F3FF43BAF94EA0C0F5C
:10670C000AD150EA01347FF434AF95EA0C0F7FF4D0
:10671C0025AF104619462CE795EA0C0F06D152EA24
:10672C0003353FF4FDAE1046194622E750EA410608
:10673C0018BF52EA43067FF4C5AE50EA41047FF419
:10674C000DAF52EA43057FF4EBAE12E74FF0FF3C7E
:10675C0006E000BF4FF0010C02E000BF4FF0010C4F
:10676C004DF804CD4FEA410C7FEA6C5C4FEA430CC8
:10677C0018BF7FEA6C5C1BD001B050EA410C0CBF17
:10678C0052EA430C91EA030F02BF90EA020F002079
:10679C00704710F1000F91EA030F58BF994208BFE0
:1067AC0090422CBFD8176FEAE37040F0010070479D
:1067BC004FEA410C7FEA6C5C02D150EA013C07D1F4
:1067CC004FEA430C7FEA6C5CD6D152EA033CD3D03F
:1067DC005DF8040B704700BF8446104662468C4639
:1067EC001946634600E000BF01B5FFF7B7FF00286C
:1067FC0048BF10F1000F01BD4DF808EDFFF7F4FF95
:10680C000CBF012000205DF808FB00BF4DF808ED1F
:10681C00FFF7EAFF34BF012000205DF808FB00BF42
:10682C004DF808EDFFF7E0FF94BF012000205DF864
:10683C0008FB00BF4DF808EDFFF7CEFF94BF012019
:10684C0000205DF808FB00BF4DF808EDFFF7C4FF12
:10685C0034BF012000205DF808FB00BF4FEA410C5B
:10686C007FEA6C5C02D150EA013C0AD14FEA430C3E
:10687C007FEA6C5C02D152EA033C02D14FF000007B
:10688C0070474FF0010070474FEA410212F50012B9
:10689C0015D211D56FF47873B3EB625212D94FEA5B
:1068AC00C12343F0004343EA505311F0004F23FA45
:1068BC0002F018BF404270474FF00000704750EA9A
:1068CC00013005D111F0004008BF6FF00040704757
:1068DC004FF00000704700BF4A0011D212F50012B1
:1068EC0011D20DD56FF47873B3EB62520ED44FEA1C
:1068FC00C12343F0004343EA505323FA02F070479C
:10690C004FF00000704750EA013002D14FF0FF30D9
:10691C0070474FF00000704710B5054C13462CB172
:10692C000A4601460220AFF3008010BD204610BD80
:10693C000000000010B5431E0A44914204D011F827
:10694C00014B03F8014FF8E710BD02440346934294
:10695C0002D003F8011BFAE77047000038B5124B60
:10696C001C68A36B0546D3B91820FDF781FF43F2D1
:10697C000E33A06303804AF6CD33438041F23423B7
:10698C0083804EF26D63C3804DF6EC630381052367
:10699C0043810B23838101220023C0E90423A36BD1
:1069AC0000221D615A6138BD3CE30320194B10B520
:1069BC001C68A36BD3B91820FDF75AFF43F20E33B2
:1069CC00A06303804AF6CD33438041F234238380A5
:1069DC004EF26D63C3804DF6EC6303810523438156
:1069EC000B23838101220023C0E90423A16B0A4CF1
:1069FC000B694869094A5C4302FB0040A3FB022374
:106A0C000132034443F10003C1E9042323F00040A5
:106A1C0010BD00BF3CE303202DF451582D7F954C45
:106A2C00024B0146186800F003B800BF3CE303209A
:106A3C0070B5064608460C4600F00DF8451C294674
:106A4C003046FDF735FF064618B12A462146FFF7BA
:106A5C0071FF304670BD034613F8012B002AFBD1A1
:106A6C00181A0138704700001D400D0059400D00E8
:106A7C0085400D0089400D00000000007477696CA2
:106A8C00696F5F736D730053656E64696E674D65F6
:106A9C00737361676500546865206368696C642072
:106AAC00617665726167652069733A2020006368BE
:106ABC00696C6420696E206361720074686520756E
:106ACC0073622061727261792069733A20200053DD
:106ADC00656E64696E67206D6573736167652062AE
:106AEC0065636175736520636172207475726E6580
:106AFC0064206F666620616E64206368696C642034
:106B0C00697320696E207468652063617200546833
:106B1C00652074656D70657261747572652069733A
:106B2C0020726973696E6720746F6F20666173746D
:106B3C00005468652074656D7020617665726167BC
:106B4C00652069733A20200053656E64696E672076
:106B5C006D6573736167652062656361757365202C
:106B6C0074656D70657261747572652069732074DB
:106B7C006F6F20686F740053656E64696E67206D6B
:106B8C0065737361676520626563617573652074F5
:106B9C00656D7020697320637269746963616C0040
:106BAC00596F7572206368696C6420697320696E13
:106BBC002074686520636172000000000000000012
:106BCC00000000002B490D0021490D0017490D0054
:106BDC000D490D0001490D00F5480D00E9480D0067
:106BEC00E1480D00D7480D00CD480D00D55A0D00D9
:106BFC00000000000000000049490D004B490D0049
:106C0C006E616E006F7666002E00696E66006261C2
:106C1C0075640053657269616C0053657269616CCF
:106C2C0031007479706500706172616D00636D6420
:106C3C0000696400686E64007374726D0066696C40
:106C4C0074006C766C0061646448616E646C65728F
:106C5C000072656D6F766548616E646C6572006577
:106C6C006E756D48616E646C657273004A534F4E5D
:106C7C0053747265616D4C6F6748616E646C6572BC
:106C8C000061707000253031307520005D200025CA
:106C9C0064002C200028293A2000205B00636F64DC
:106CAC0065203D200025690064657461696C732062
:106CBC003D20000D0A006C6E00666E00636F64650B
:106CCC000064657461696C006E6F6E65007472614E
:106CDC00636500696E666F007761726E0065727233
:106CEC006F720070616E696300616C6C005A0025F4
:106CFC002B3033643A253032750025592D256D2DF6
:106D0C0025645425483A254D3A2553257A0061735C
:106D1C006374696D65000000000000000000000055
:106D2C002D4F0D00334F0D00774F0D00414F0D00CF
:106D3C002F4F0D000000000000000000C5540D0096
:106D4C00B5540D00B7540D00000000000000000009
:106D5C009D550D00ED550D00FB550D00014B0D0023
:106D6C00D9550D009F550D00B5550D00E7550D007B
:106D7C00CB550D0099550D000000000000000000DF
:106D8C0007570D00FD560D00F3560D00A9560D00CA
:106D9C00E7560D00DB560D00CF560D00C7560D0003
:106DAC00BD560D00B3560D00D55A0D000000000065
:106DBC000000000041570D0091570D009F570D002A
:106DCC00014B0D0055570D0077570D0063570D0003
:106DDC008B570D0043570D0047570D000000000066
:106DEC00000000006D580D00B7580D008F580D00B5
:106DFC006F580D0097580D009F580D00A7580D00A7
:106E0C00AF580D0000000000000000004F590D00AD
:106E1C0045590D003B590D0031590D0025590D00F8
:106E2C0019590D000D590D0005590D00FB580D0099
:106E3C00F1580D00D55A0D000000000000000000B4
:106E4C006D5A0D00775A0D00815A0D008B5A0D00AA
:106E5C00955A0D00A15A0D00AD5A0D00B95A0D00EE
:106E6C00C15A0D00CB5A0D00D55A0D000000000080
:106E7C000000000000000000000000000000000006
:106E8C0000000000000000000000000000000000F6
:106E9C0000000000000000000000000000000000E6
:106EAC0000000000000000000000000000000000D6
:106EBC0000000000000000000000000000000000C6
:106ECC0000000000000000000000000000000000B6
:106EDC0043000000BD440D0035490D0099490D00DB
:106EEC00D94A0D00994D0D00A94D0D00014E0D0014
:106EFC0011570D001D5A0D00A15B0D00355D0D00E5
:106F0C00B95D0D007D5E0D00415F0D0000000000BD
:046F1C000000000071
:046F2000000000006D
:106F24001A6D0D00000000007C6E0D009C6E0D00BB
:106F3400BC6E0D0000000000000000000000000016
:106F440000000000DC6E0D000000000000000000E6
:106F5400000000000000000000000000000000002D
:106F6400000000000000000000000000000000001D
:106F7400000000000000000000000000000000000D
:086F840000000000DCE2032024
:106F8C00FFFFFFFF00000102030405060708090AC2
:106F9C000B0C0D0E0F101112131415161718191ABD
:086FAC001B1C1D1E1F20280004
:046FB40078563412C5
:04000003D000401CCD
:00000001FF
